:020000040000FA
:100000000C945D000C9485000C9485000C94850084
:100010000C9485000C9485000C9485000C9485004C
:100020000C9485000C9485000C9485000C9485003C
:100030000C9485000C9485000C9485000C9485002C
:100040000C94FD1F0C9485000C946D200C9447209B
:100050000C9485000C9485000C9485000C9485000C
:100060000C949F200C948500000000080002010001
:100070000003040700000000000000000000000072
:10008000250028002B0000000000240027002A0083
:10009000040404040404040402020202020203032E
:1000A0000303030301020408102040800102040836
:1000B0001020010204081020BE2111241FBECFEF22
:1000C000D8E0DEBFCDBF12E0A0E0B1E0E2EBFAE4A1
:1000D00002C005900D92A23DB107D9F724E0A2ED30
:1000E000B2E001C01D92AC35B207E1F710E0CDE5FA
:1000F000D0E004C02197FE010E944A25CC35D107EB
:10010000C9F70E94F7210C9457250C940000CF9357
:10011000DF9300D000D0CDB7DEB719821A821B82E0
:100120001C8289819A81AB81BC818A3F9105A1059E
:10013000B10568F4000089819A81AB81BC81019688
:10014000A11DB11D89839A83AB83BC83EACF80E074
:100150000F900F900F900F90DF91CF9108954F92D5
:100160005F926F927F928F929F92AF92BF92CF9247
:10017000DF92EF92FF920F931F93CF93F9010FEF4E
:100180001FEF980100831183228333834A015B01AF
:10019000B3E0B694A79497948794BA95D1F76A017F
:1001A0007B0127E0C222DD24EE24FF249501840197
:1001B000C0E0063011052105310508F041C0C1112C
:1001C0003FC0DC01A00FB11F6C91412C512C3201BA
:1001D00080169106A206B30649F470E00C2C02C00A
:1001E000759567950A94E2F726013701462F50E08E
:1001F00060FF17C0B901A801A3E0440F551F661F97
:10020000771FAA95D1F7440E551E661E771E4082B1
:10021000518262827382C1E00F5F1F4F2F4F3F4FA9
:10022000C8CFBA01759567954FEF441A540A640A0E
:10023000740A48E04416510461047104B9F6ECCF25
:10024000CF911F910F91FF90EF90DF90CF90BF90D3
:10025000AF909F908F907F906F905F904F90089598
:100260000895089590E0FC01E859FF4F2491FC01A6
:10027000EC55FF4F3491FC01E057FF4FE491EE2322
:10028000C9F0222339F0233001F1A8F4213019F10B
:10029000223029F1F0E0EE0FFF1FE458FF4FA59147
:1002A000B4918FB7F894EC91611126C030953E233C
:1002B0003C938FBF08952730A9F02830C9F024302F
:1002C00049F7809180008F7D03C0809180008F77F7
:1002D00080938000DFCF84B58F7784BDDBCF84B57A
:1002E0008F7DFBCF8091B0008F778093B000D2CF0D
:1002F0008091B0008F7DF9CF3E2BDACF3FB7F894D5
:100300008091A2039091A303A091A403B091A503AF
:1003100026B5A89B05C02F3F19F00196A11DB11D60
:100320003FBFBA2FA92F982F8827BC01CD01620F9C
:10033000711D811D911D42E0660F771F881F991F57
:100340004A95D1F708958F929F92AF92BF92CF9224
:10035000DF92EF92FF920E947E014B015C018AE0E6
:10036000C82ED12CE12CF12C0E947E01681979094C
:100370008A099B09683E734081059105A8F321E035
:10038000C21AD108E108F10888EE880E83E0981EB1
:10039000A11CB11CC114D104E104F10429F7FF90A0
:1003A000EF90DF90CF90BF90AF909F908F90089587
:1003B000AF92BF92CF92DF92EF92FF920F931F9373
:1003C000CF93DF936C017B018B01040F151FEB01B1
:1003D0005E01AE18BF08C017D10759F06991D60168
:1003E000ED91FC910190F081E02DC6010995892BDA
:1003F00079F7C501DF91CF911F910F91FF90EF9099
:10040000DF90CF90BF90AF900895FC01538D448D45
:10041000252F30E0842F90E0821B930B541710F0AF
:10042000CF96089501970895FC01918D828D9817BC
:1004300061F0A28DAE0FBF2FB11D5D968C91928D94
:100440009F5F9F73928F90E008958FEF9FEF0895C5
:10045000FC01918D828D981731F0828DE80FF11D8E
:10046000858D90E008958FEF9FEF0895FC01918DA9
:10047000228D892F90E0805C9F4F821B91098F73A2
:100480009927089583EB93E00E94360221E0892B9F
:1004900009F420E0822F089580E090E0892B29F074
:1004A0000E94420281110C9400000895FC01A48D69
:1004B000A80FB92FB11DA35ABF4F2C91848D90E086
:1004C00001968F739927848FA689B7892C93A08969
:1004D000B1898C91837080648C93938D848D9813F3
:1004E00006C00288F389E02D80818F7D8083089586
:1004F000EF92FF920F931F93CF93DF93EC0181E074
:10050000888F9B8D8C8D98131AC0E889F98980811A
:1005100085FF15C09FB7F894EE89FF896083E8894D
:10052000F98980818370806480839FBF81E090E03F
:10053000DF91CF911F910F91FF90EF900895F62ECC
:100540000B8D10E00F5F1F4F0F731127E02E8C8D66
:100550008E110CC00FB607FCFACFE889F9898081AB
:1005600085FFF5CFCE010E945602F1CFEB8DEC0F47
:10057000FD2FF11DE35AFF4FF0829FB7F8940B8FC8
:10058000EA89FB8980818062CFCFCF93DF93EC0132
:10059000888D8823B9F0AA89BB89E889F9898C916B
:1005A00085FD03C0808186FD0DC00FB607FCF7CF27
:1005B0008C9185FFF2CF808185FFEDCFCE010E9427
:1005C0005602E9CFDF91CF91089520915303260F72
:1005D0003327331F21323105ECF420917703FC01DE
:1005E00090E080E0243069F082E00895A091530308
:1005F0002191AC014D5C5C4FA40FB52FB11D2C9324
:100600000196861798F380915303680F6093530304
:1006100080E0089581E008951092770381E080934F
:1006200079031092780361E082E10E94320161E077
:1006300083E10E943201E9EBF0E080818E7F8083CC
:1006400080818D7F808388E48093B80085E48093E7
:10065000BC000895CF93DF9391E0909332038823F9
:10066000B9F0C091B800D091BA008091BC008A7BEB
:100670008093BC0060E082E10E94320160E083E18F
:100680000E9432010E940C03D093BA00C093B800BC
:10069000DF91CF9108950895E091AD038091AC036F
:1006A000E81730F4F0E0E35FFC4F808190E00895BC
:1006B0008FEF9FEF08959091AD038091AC032FEFE2
:1006C0003FEF981748F4E92FF0E0E35FFC4F2081FB
:1006D00030E09F5F9093AD03C90108958091AC0312
:1006E0009091AD03891B990B0895CF92DF92EF9201
:1006F000FF920F931F93CF93DF937C01CB018A016D
:1007000020910C03222389F0EB016B01C40ED51E4E
:10071000CC15DD0569F06991D701ED91FC9101904F
:10072000F081E02DC7010995F3CF642F0E94E50207
:10073000C801DF91CF911F910F91FF90EF90DF9053
:10074000CF900895CF93DF931F92CDB7DEB7698323
:1007500020910C032223F9F02091AA03203258F0B3
:1007600021E030E0FC013383228390E080E00F90B1
:10077000DF91CF9108958091AB03E82FF0E0E45131
:10078000FD4F998190838F5F8093AB038093AA0381
:1007900081E090E0ECCF61E0CE0101960E94E5029D
:1007A000F7CFCF92DF92EF92FF920F931F93CF93E9
:1007B000DF93D091AA0381E0D13208F09CC0C091B0
:1007C000EB020E947E016B017C0180917703811115
:1007D0006CC082E08093770381E0809379038FEF90
:1007E0008093760310929B03D0939A03ACEEB2E011
:1007F000EAE7F3E080E0D8138DC010929C0380916B
:100800009C03CC0FC82BC0939C038091780381304C
:1008100009F084C0109278030E947E016B017C0174
:1008200080919C038093BB0080912E0390912F03B5
:10083000A0913003B0913103892B8A2B8B2BA1F02F
:100840000E947E0100912E0310912F03209130030E
:10085000309131036C197D098E099F09061717071E
:100860002807390708F442C08091BC0083FDD8CF27
:1008700085EC8093BC000E947E016B017C0180911D
:100880007703823009F44CC0809176038F3F09F4DE
:1008900069C080917603803209F466C08091760346
:1008A000803309F463C084E026C080912E039091C8
:1008B0002F03A0913003B0913103892B8A2B8B2B0E
:1008C00009F483CF0E947E0100912E0310912F0323
:1008D00020913003309131036C197D098E099F09F5
:1008E000061717072807390708F06FCF80912D03E7
:1008F0000E942A0385E01092AB031092AA03109283
:100900000C03DF91CF911F910F91FF90EF90DF903B
:10091000CF9008959D9191938F5F6DCF85EEA9CF74
:1009200080912E0390912F03A0913003B091310359
:10093000892B8A2B8B2B09F4A2CF0E947E01009178
:100940002E0310912F0320913003309131036C1945
:100950007D098E099F09061717072807390708F030
:100960008ECFC4CF80E0C7CF82E0C5CF83E0C3CFB6
:1009700090E080E008958F929F92AF92BF92CF92C5
:10098000DF92EF92FF920F931F93CF93DF936A0151
:100990004801E70191E090930C038093EB021092E1
:1009A000AB031092AA03E881F9810190F081E02D58
:1009B000C70109958C0C9D1CC814D90459F0E88115
:1009C000F9810190F081E02DD6016D916D01CE018C
:1009D0000995F2CFCE010E94D10390E080E0DF9133
:1009E000CF911F910F91FF90EF90DF90CF90BF902C
:1009F000AF909F908F900895EF92FF920F931F9367
:100A0000CF93DF9300D0CDB7DEB7FC01EF5BFE4F95
:100A100070813496E080F1804A83598302E010E0CF
:100A200020E030E0AE014F5F5F4F872F0E94BB0494
:100A3000892B51F08CEE0F900F90DF91CF911F9189
:100A40000F91FF90EF90089580E0F5CFEF92FF9225
:100A50000F931F93CF93DF931F92CDB7DEB7FC01A7
:100A6000EF5BFE4F70813496E080F180498301E0B6
:100A700010E020E030E0AE014F5F5F4F872F0E9413
:100A8000BB04892B49F08CEE0F90DF91CF911F9121
:100A90000F91FF90EF90089580E0F6CFEF92FF92D4
:100AA0000F931F93AB01FC01EB5BFE4FE080F180E5
:100AB0008F5B9E4F06E010E020E030E060EBFC0131
:100AC00080810E94BB04892B31F08CEE1F910F9125
:100AD000FF90EF90089580E0F9CFFC010190002095
:100AE000E9F73197AF01481B590BBC0183EB93E049
:100AF0000C94D8018F929F92AF92BF920F931F9345
:100B0000CF93DF93CDB7DEB7A1970FB6F894DEBFD2
:100B10000FBECDBF19A2423008F44AE08E010F5D2E
:100B20001F4F842E912CB12CA12CA50194010E9461
:100B30000E25E62FB901CA01EA30F4F4E05DD801D0
:100B4000EE938D01232B242B252B79F790E080E069
:100B5000109719F0CD010E946D05A1960FB6F8947B
:100B6000DEBF0FBECDBFDF91CF911F910F91BF9020
:100B7000AF909F908F900895E95CE1CFCF93DF9382
:100B8000D0E0C0E0009719F00E946D05EC0187E20B
:100B900092E00E946D058C0F9D1FDF91CF9108950B
:100BA0004F925F926F927F928F929F92AF92BF927D
:100BB000CF92DF92EF92FF920F931F93CF936B012F
:100BC0007C01742EAC019B010E94E524882399F0DE
:100BD0008AE292E0CF911F910F91FF90EF90DF900A
:100BE000CF90BF90AF909F908F907F906F905F90CD
:100BF0004F900C946D0546015701E894B7F82FEF1C
:100C00003FEF4FE75FE7C501B4010E94E524811182
:100C10000DC02FEF3FEF4FE75FE7C501B4010E9422
:100C20001B2318161CF48EE292E0D4CF2FEF3FEF77
:100C30004FE75FE4C701B6010E94732418161CF445
:100C400082E392E0C7CF2FEF3FEF4FE75FECC701A2
:100C5000B6010E941B2387FDF3CF20E030E0A901FD
:100C6000C701B6010E941B2310E000E087FF0AC005
:100C70006DE283EB93E00E9478028C01F7FAF09426
:100C8000F7F8F094C0E060E070E080E09FE37C164D
:100C900041F020E030E040E251E40E942023CF5FA9
:100CA000F6CFA70196010E94AF222B013C010E94C2
:100CB00092234B015C014AE00E947A057C01E00E20
:100CC000F11ECC23C1F1C501B4010E94C1239B01D7
:100CD000AC01C301B2010E94AE224B015C016EE285
:100CE00083EB93E00E947802E80EF91EC15018F1E0
:100CF00020E030E040E251E4C501B4010E947824D4
:100D00002B013C010E9492234B01B12CA12C4AE003
:100D1000C501B4010E947A05E80EF91EC501B401AF
:100D20000E94C1239B01AC01C301B2010E94AE220B
:100D30004B015C01DBCFC701CF911F910F91FF9059
:100D4000EF90DF90CF90BF90AF909F908F907F906B
:100D50006F905F904F9008954F925F926F927F9245
:100D60008F929F92AF92BF92CF92DF92EF92FF92BB
:100D70000F931F93CF93DF93D82F6A01480181E02F
:100D800080930C03D093EB021092AB031092AA0352
:100D9000D701ED91FC910190F081E02DC7010995FB
:100DA000C7010E94D1030E947E012B013C0180916A
:100DB0007703811166C0C82D81E08093770380930B
:100DC00079039FEF9093760310929B03980D909375
:100DD0009A0380939C0380919C03DD0FD82BD093C2
:100DE0009C0380917803813009F086C010927803CB
:100DF0000E947E012B013C0180919C038093BB00EB
:100E000080912E0390912F03A0913003B091310374
:100E1000892B8A2B8B2BA1F00E947E0100912E033F
:100E200010912F032091300330913103641975091B
:100E300086099709061717072807390708F442C0DB
:100E40008091BC0083FDD8CF85EC8093BC000E94CC
:100E50007E012B013C0180917703813009F44EC063
:100E600080919B038C1710F4C0919B03EAE7F3E099
:100E7000ADE0B3E080E08C1751F191919D938F5FCD
:100E8000FACF80912E0390912F03A0913003B0915F
:100E90003103892B8A2B8B2B09F489CF0E947E0189
:100EA00000912E0310912F032091300330913103D4
:100EB000641975098609970906171707280739075E
:100EC00008F075CF80912D030E942A03C0E0109294
:100ED000AD03C093AC038C0C9D1CC814D90481F1E4
:100EE000D701ED91FC910284F385E02DC7010995AE
:100EF000F60181936F01F1CF85EEA7CF80912E038C
:100F000090912F03A0913003B0913103892B8A2B4C
:100F10008B2B09F4A0CF0E947E0100912E0310912B
:100F20002F0320913003309131036419750986092C
:100F30009709061717072807390708F08CCFC2CF83
:100F400090E080E0DF91CF911F910F91FF90EF90A3
:100F5000DF90CF90BF90AF909F908F907F906F90D9
:100F60005F904F9008952F923F924F925F926F92B1
:100F70007F928F929F92AF92BF92CF92DF92EF9229
:100F8000FF920F931F93CF93DF93CDB7DEB72F97C9
:100F90000FB6F894DEBF0FBECDBF9C878B876D87E1
:100FA0005F874E873901170128012F8238864986CD
:100FB0005A8610E000E0EE24E394F12C0A151B059C
:100FC00009F461C09E01295F3F4FB201A1018E85E6
:100FD0009F850E94AF004F81588569857A854F3F74
:100FE0002FEF52076207720709F49CC0DB01CA01A8
:100FF0008C549F4FAF4FBF4FE6E0B695A79597959E
:101000008795EA95D1F7880F991F880F991F8D5002
:101010009E4F21E0FC0180819181A281B381892BC7
:101020008A2B8B2B09F420E0FD85F2137BC01A017B
:101030002B0133E056944794379427943A95D1F78F
:10104000DB01CA0187709927AA27BB2726E0221651
:1010500031044104510468F4F301E20DF31D9701DA
:1010600002C0220F331F8A95E2F7C9019081892BB4
:1010700080831A012B013FEF231A330A430A530AD4
:101080000F5F1F4F9BCFB12CF4012082318242822F
:101090005382B1102DC0B3018B859C850E944E05F3
:1010A000B82E811125C0EB85FC85EB5BFE4FE080FF
:1010B000F180EB85FC85EF5BFE4F06E010E020E061
:1010C00030E0AE014F5F5F4F60EB80810E94AC0665
:1010D000892B11F09CEEB92EF301DE011196C301AC
:1010E000069631912D91321320C0E817F907C9F700
:1010F0008B2D2F960FB6F894DEBF0FBECDBFDF91BC
:10110000CF911F910F91FF90EF90DF90CF90BF9004
:10111000AF909F908F907F906F905F904F903F9097
:101120002F9008952EECB22EAFCF8EECB82EE0CFDC
:10113000CF92DF92EF92FF920F931F93CF93DF93A3
:1011400000D000D0CDB7DEB76A01FC01EB5BFE4FEB
:10115000E080F1808F5B9E4F04E010E020E030E003
:10116000AE014F5F5F4FFC0180810E94AC06498158
:101170005A8154274527542770E060E0762F652F69
:10118000542F44272B81422B762F652F542F442731
:101190002C81422BF6014083518362837383892B18
:1011A00071F480E00F900F900F900F90DF91CF912E
:1011B0001F910F91FF90EF90DF90CF9008958CEEEC
:1011C000F1CFCF92DF92EF92FF920F931F93CF93C5
:1011D000DF9300D0CDB7DEB76A01FC01EB5BFE4FB9
:1011E000E080F1808F5B9E4F02E010E020E030E075
:1011F000AE014F5F5F4FFC0180810E94AC062981E8
:101200003A81322723273227F60131832083892B25
:1012100061F480E00F900F90DF91CF911F910F91BB
:10122000FF90EF90DF90CF9008958CEEF3CFEF9288
:10123000FF920F931F93CF93DF9300D0CDB7DEB70C
:101240008C017A016330710509F449C090F4613072
:10125000710509F162307105E1F1F80181A992A9E6
:10126000A3A9B4A9F70180839183A283B38380E00B
:1012700049C06630710588F7AE014F5F5F4F64E685
:101280000E94E10881113EC0298180E0922F990FD0
:10129000B0E0A0E0E7CFAE014F5F5F4F64E40E9493
:1012A000E10881112FC0998120E0392F330FA90166
:1012B00070E060E0232BD1F0F7014083518362831B
:1012C0007383F80145AB56AB67AB70AF91E096A363
:1012D00019C0FC0181AD92ADA3ADB4ADC3CFFC018B
:1012E000FD9680819181A281B381BCCFF80145A98F
:1012F00056A967A970ADF701408351836283738358
:10130000F80116A20F900F90DF91CF911F910F91CE
:10131000FF90EF9008958F929F92AF92BF92CF92DD
:10132000DF92EF92FF920F931F93CF93DF9300D042
:10133000CDB7DEB7962ED42E822EFC01EF5BFE4F8A
:10134000C0805C012BEBA21A2EEFB20AF501E080FF
:10135000F18001E010E020E030E0AE014E5F5F4F31
:101360008C2D0E94AC06892BA9F42A812D212829D5
:101370002A83F501E080F180298301E010E020E07C
:1013800030E0AE014F5F5F4F692D8C2D0E94BB0492
:10139000892B81F08CEE0F900F90DF91CF911F91F0
:1013A0000F91FF90EF90DF90CF90BF90AF909F9004
:1013B0008F90089580E0EFCFEF92FF920F931F93ED
:1013C000FC01EB5BFE4FE080F1808F5B9E4F01E004
:1013D00010E020E030E0FC0180810E94AC06892B07
:1013E00031F08CEE1F910F91FF90EF90089580E007
:1013F000F9CFEF92FF920F931F93CF93DF931F923A
:10140000CDB7DEB77C0100E041E06BE0C7010E9490
:101410002605182F40E06BE0C7010E942605182B17
:10142000AE014F5F5F4F63E1C7010E94DC09812B72
:101430000F5F9981977061F0033061F0882321F389
:101440000F90DF91CF911F910F91FF90EF90089532
:101450000330B1F784EFF4CF9F92AF92BF92CF9257
:10146000DF92EF92FF920F931F93CF93DF931F9220
:10147000CDB7DEB77C015B016A01922E198241E093
:101480006FEF0E942605182F40E060E0C7010E9420
:101490002605182B40E06FEFC7010E942605182B88
:1014A000992031F0A5016BECC7010E94DC09182BD3
:1014B000002341F0AE014F5F5F4F6EEEC7010E9407
:1014C000DC09182B41E06FEFC7010E942605182B9D
:1014D00041E060E0C7010E942605182B40E06FEF55
:1014E000C7010E94260599819F7EF6019083812B7A
:1014F0000F90DF91CF911F910F91FF90EF90DF90B0
:10150000CF90BF90AF909F9008950F931F93CF936C
:10151000DF931F92CDB7DEB78A01AE014F5F5F4FF9
:10152000613081F060E50E94DC09811105C099817C
:101530009F5F990FF80190830F90DF91CF911F91DA
:101540000F91089560E7EFCFCF92DF92EF92FF9275
:101550001F93CF93DF931F92CDB7DEB77C0140E09E
:1015600063E80E942605182F811117C0D12CC12CC9
:10157000AE014F5F5F4F63E8C7010E94DC09182F7F
:10158000898181110AC0111108C08FEFC81AD80AC9
:1015900088ECC816D10461F719EF41E063E8C70190
:1015A0000E942605812B0F90DF91CF911F91FF9014
:1015B000EF90DF90CF900895CF92DF92EF92FF925D
:1015C0000F931F93CF93DF931F92CDB7DEB77C01AC
:1015D00010E000E06C018EECC80ED11CF601808199
:1015E000AE014F5F5F4F8430A9F463E1C7010E94F1
:1015F000DC099981292F2770987111F58823D9F07A
:101600000F90DF91CF911F910F91FF90EF90DF909E
:10161000CF90089564E1C7010E94DC098111F0CFE9
:10162000998190FDEDCF0F5F1F4F083C110531F000
:101630000E948700D3CF2430B1F7E2CF89EFE0CF0B
:101640008AEFDECFCF93DF93EC01462F416060E05D
:101650000E942605811111C0CE010E94DC0A811171
:101660000CC0CE010E94F909811107C040E060E082
:10167000CE01DF91CF910C942605DF91CF91089593
:101680000F931F93CF93DF931F92CDB7DEB78B01DC
:101690001982AE014F5F5F4F61E00E94DC0981114A
:1016A00016C0998194FB332730F9F801308393FBFE
:1016B000332730F9328392FB332730F9318396FB9D
:1016C000222720F92383991F9927991F94830F902C
:1016D000DF91CF911F910F9108952F923F924F92DA
:1016E0005F926F927F928F929F92AF92BF92CF92B2
:1016F000DF92EF92FF921F93CF93DF93CDB7DEB7C8
:101700002B970FB6F894DEBF0FBECDBF6C011A0148
:101710001B861F821E82623009F06EC0AE01465FDA
:101720005F4F60E00E94850A182F811108C0AE014A
:10173000455F5F4F66E4C6010E94DC09182FAA8549
:10174000B0E020E03FE24AE350E00E943F252B0159
:101750003C0124EF420E21E0521E611C711CCB841F
:10176000D12CF12CE12C8FEFC81AD80AE80AF80A1C
:1017700098EE892E93E0992EA12CB12CC301B201D1
:10178000A50194010E940E25CA01B901A701960185
:101790000E94EA246B017C01C301B20120ED37E015
:1017A00040E050E00E940E25C701B601620F731F92
:1017B000841F951FA50194010E940E25F10120832D
:1017C000318342835383812F2B960FB6F894DEBF6B
:1017D0000FBECDBFDF91CF911F91FF90EF90DF90B3
:1017E000CF90BF90AF909F908F907F906F905F90C1
:1017F0004F903F902F900895633009F043C0AE01A1
:10180000465F5F4F60E00E94850A182F20E030E0BD
:10181000A9018111D3CFAE01465F5F4F60E0C601E1
:101820000E94850A182F811108C0AE014A5F5F4FE0
:1018300061E5C6010E94E108182FEE81FF81AA85AB
:10184000B0E020E03FE24AE350E00E943F252B0158
:101850003C0124EF420E21E0521E611C711C6F01FD
:10186000DD24F12CE12C04C0CC0CDD1CEE1CFF1C93
:10187000FA95D2F78FEFC81AD80AE80AF80AEE24C8
:10188000FF2476CFBE016F5F7F4F0E94400B8C819B
:10189000882351F1AE01465F5F4F60E0C6010E94B0
:1018A000850A182FF12CE12C81111BC0AE014A5F73
:1018B0005F4F61E5C6010E94E108182F2E813F812C
:1018C000C9019927B0E0A0E004C0880F991FAA1FA2
:1018D000BB1F3A95D2F70196A11DB11D7C011123C2
:1018E00029F0D12CC12C25C0F12CE12CAE01465F92
:1018F0005F4F61E0C6010E94850A182F8111F1CF68
:10190000AE01485F5F4F61E7C6010E94E108182FF2
:1019100028853985C9019927B0E0A0E004C0880F67
:10192000991FAA1FBB1F3A95D2F70196A11DB11DA1
:101930006C01AA85B0E020E03FE24AE350E00E945B
:101940003F252B013C01E4EF4E0EE1E05E1E611CE1
:10195000711C88EE882E83E0982EA12CB12CC30137
:10196000B201A50194010E940E25D601AE19BF094E
:101970000E943F250FCF4F925F926F927F92BF924E
:10198000CF92DF92EF92FF920F931F93CF93DF934B
:1019900000D000D0CDB7DEB78A01AE014F5F5F4FF8
:1019A0000E946D0BB82E81112AC069817A818B81CA
:1019B0009C8128EE422E23E0522E612C712CA30133
:1019C00092010E940E2569017A019B01AC01AFEFE3
:1019D000BFEF0E943F256C507E4F8F4F9F4FA3015A
:1019E00092010E940E257601DD24CC24C20ED31E66
:1019F000E41EF51EF801C082D182E282F3828B2DB3
:101A00000F900F900F900F90DF91CF911F910F913A
:101A1000FF90EF90DF90CF90BF907F906F905F909E
:101A20004F9008955F926F927F928F929F92AF92A4
:101A3000BF92CF92DF92EF92FF920F931F93CF93BB
:101A4000DF93CDB7DEB761970FB6F894DEBF0FBE58
:101A5000CDBF7C018B01FC018089FB018083AE013D
:101A60004A5F5F4F68EFC7010E94E108582E81115D
:101A70003AC1AE014F5F5F4F64E0C7010E94980812
:101A8000582E811130C12E813F812115310569F019
:101A900050E040E069817A818B819C810E940E2513
:101AA000F8012683378340875187F8018681978123
:101AB000A085B185F701868B978BA08FB18FF80138
:101AC0001286AE014F5F5F4F60E2C7010E94E108DE
:101AD000582E811108C189819A81009709F01AC195
:101AE000F701858D968DA78DB0A1F8018587968722
:101AF000A787B08BF701128EAE014F5F5F4F68E290
:101B0000C7010E94E108582E8111EDC089819A8198
:101B10009F708115F8E09F0708F090514AEF489FA9
:101B20009001499F300D1124C901330FAA0BBB0B43
:101B3000F801818B928BA38BB48B5801F1E2AF0E2D
:101B4000B11C470125E2820E911C380185E1680E27
:101B5000711CD12CC12CA501B601C7010E94170927
:101B6000582E8111C0C0F40181914F01F30181937E
:101B70003F01FFEFCF1ADF0A24E0A20EB11C86E07E
:101B8000C816D10441F7AE014F5F5F4F61E0C70156
:101B90000E94DC09582E8111A6C08981F701E35EFD
:101BA000FE4F808387FFCAC081E0F80181AFF80152
:101BB00081ADF701E75BFF4F808380ED97E0A0E008
:101BC000B0E08A879B87AC87BD871E821F821886FC
:101BD000198686E39BE0A0E0B0E0F801828393835E
:101BE000A483B583BE016F5F7F4FC7010E94400B86
:101BF000582E811178C08981811107C08A81811195
:101C000004C08B81882309F43EC0AE01465F5F4F5C
:101C100062E0C7010E946D0B8111C1C089818823D8
:101C2000A9F08A859B85AC85BD85825B9D4FAF4FB2
:101C3000BF4FF8014281538164817581840F951FE4
:101C4000A61FB71F82839383A483B5838B818823C8
:101C500009F477C08A859B85AC85BD858E549D4FE0
:101C6000AF4FBF4F880F991FAA1FBB1FF8014281BA
:101C7000538164817581840F951FA61FB71F8283CE
:101C80009383A483B5838C81811168C08D8188235F
:101C900001F1AE01425F5F4F64E0C7010E946D0B2E
:101CA0008E849F84A888B988F6E28F0EF2E09F1E8A
:101CB000A11CB11CF8014281538164817581480DDA
:101CC000591D6A1D7B1D4283538364837583811173
:101CD00066C0F80182819381A481B581F701828B6E
:101CE000938BA48BB58B852D61960FB6F894DEBFD0
:101CF0000FBECDBFDF91CF911F910F91FF90EF905D
:101D0000DF90CF90BF90AF909F908F907F906F901B
:101D10005F90089533E0880F991F3A95E1F7B0E09E
:101D2000A0E0F80185879687A787B08BF701858F9C
:101D3000968FA78FB0A381E0828FDECEF80111AE1F
:101D400036CF8A81882309F49ECF8A859B85AC850E
:101D5000BD858C569D4FAF4FBF4F88CFAE014A5FB8
:101D60005F4F63E0C7010E946D0B8E809F80A88447
:101D7000B984F4E98F0EF2E09F1EA11CB11CF8019A
:101D80004281538164817581480D591D6A1D7B1DF7
:101D90004283538364837583882309F477CF582E55
:101DA000A2CF2F923F924F925F926F927F928F922B
:101DB0009F92AF92BF92CF92DF92EF92FF920F93DA
:101DC0001F93CF93DF93CDB7DEB769970FB6F89423
:101DD000DEBF0FBECDBF00ED17E020E030E00B8787
:101DE0001C872D873E871F86188A198A1A8A4032D7
:101DF0002EE4520761057105E0F45CEFB52E8B2DE2
:101E000069960FB6F894DEBF0FBECDBFDF91CF91BC
:101E10001F910F91FF90EF90DF90CF90BF90AF9008
:101E20009F908F907F906F905F904F903F902F90FA
:101E300008954E8B5F8B688F798F8C01BE016A5F2E
:101E40007F4F0E94400BB82E8111D9CFCE88DF88FA
:101E5000E88CF98C88EEC81A88E0D80AE108F10805
:101E60008E81811106C08F81811103C088858823EE
:101E7000C1F1AE01455F5F4F62E0C8010E946D0B8A
:101E800081110AC18E81882391F08B859C85AD8557
:101E9000BE85825B9D4FAF4FBF4F8C159D05AE0534
:101EA000BF0508F0AACFC81AD90AEA0AFB0A888532
:101EB000882309F471C08B859C85AD85BE858E54C1
:101EC0009D4FAF4FBF4F880F991FAA1FBB1F8C1587
:101ED0009D05AE05BF0508F090CFC81AD90AEA0AD9
:101EE000FB0A89858823D9F0AE01415F5F4F63E02B
:101EF000C8010E946D0B4F85588969897A894C56B3
:101F00005D4F6F4F7F4F4C155D056E057F0508F0E7
:101F100074CF8111C1C0C41AD50AE60AF70A8A85AE
:101F2000882309F46CCFBE016F5F7F4FC8010E9408
:101F3000400B8C818823E9F1AE014B5E5F4F60E07E
:101F4000C8010E94850AB82E81111CC0AE014D5EE9
:101F50005F4F61E5C8010E94E108B82E8B899C891A
:101F60001C013324512C412C04C0220C331C441C72
:101F7000551C9A95D2F79FEF291A390A490A590A2E
:101F8000BB20C9F08E899F89A88DB98DF801828BFD
:101F9000938BA48BB58B33CF8F81882309F4A1CF8A
:101FA0008B859C85AD85BE858C569D4FAF4FBF4FB1
:101FB0008ECF312C212CAE014B5E5F4F61E0C8010A
:101FC0000E94850AB82E8111DDCFA6E2CA1AA2E0CE
:101FD000DA0AE108F108AD89B0E020E03FE24AE327
:101FE00050E00E943F254B015C01B4EF8B0EB1E045
:101FF0009B1EA11CB11CA8EEB3E0A70196010E9494
:102000003F252B013C01C501B40120ED37E040E044
:1020100050E00E940E25420E531E641E751EC5011F
:10202000B40128EE33E040E050E00E940E25C301E9
:10203000B2010E940E25220E331E21143104E1F05C
:102040004101B12CA12CE1E08E1A9108A108B10840
:1020500090E080E0B501A4014427452B462B472B97
:1020600031F0B694A794979487940196F3CF982F64
:1020700088271C01280C391CA10161E7C8010E94B6
:10208000FC04B82E81117ECFF801E153FF4FC082CE
:10209000D182E282F38276CFB82EB1CE7F928F9238
:1020A0009F92AF92BF92CF92DF92EF92FF920F93E7
:1020B0001F93CF93DF931F92CDB7DEB77C015B01F7
:1020C0006A01722E4C0183EE881A8EEF980AF40191
:1020D0001081198241E061E0C7010E94260581114B
:1020E0004AC060E4C7010E94220B811144C0F1E0A4
:1020F0007F121AC000E021E0AE014F5F5F4FB501D3
:10210000C7010E942C0A882389F00F90DF91CF919C
:102110001F910F91FF90EF90DF90CF90BF90AF9005
:102120009F908F907F900895F501108242E061E0CA
:10213000C7010E942605811124C060E0C7010E94EA
:10214000220B81111EC0F1E07F1218C001E020E0D7
:10215000A601BE016F5F7F4FC7010E942C0A81114B
:10216000D4CF412F61E0C7010E9426058111CDCF58
:10217000F4011083CACFF5011082C7CFF601108297
:10218000F0CFF601F9CF2F923F924F925F926F926C
:102190007F928F929F92AF92BF92CF92DF92EF92F7
:1021A000FF920F931F93CF93DF93CDB7DEB7EC97DA
:1021B0000FB6F894DEBF0FBECDBF6C015B01DC0132
:1021C00050961C9241E060E80E94260541E06FEFC6
:1021D000C6010E94260540E060E0C6010E94260577
:1021E000F601E95DFE4F408161E9C6010E942605C6
:1021F00041E060E0C6010E94260540E06FEFC601A5
:102200000E94260540E060E8C6010E94260541E0E4
:1022100060E0C6010E942605811116C091E09983F5
:10222000412C512C3201BFEF4B1A5B0A6B0A7B0A1F
:10223000998190FF2AC08111B6C2E8EC4E16510474
:1022400061047104D1F489EFEC960FB6F894DEBF07
:102250000FBECDBFDF91CF911F910F91FF90EF90F7
:10226000DF90CF90BF90AF909F908F907F906F90B6
:102270005F904F903F902F900895AE014F5F5F4F5A
:1022800060E0C6010E94DC09CECFF8EC4F16510485
:1022900061047104C1F28111D7CFC6010E94DC0A2A
:1022A0008111D2CF83E0F601E15EFE4F8083B696C6
:1022B000E080F1800CE010E020E030E0AE01465E0E
:1022C0005F4F64E1349780810E94AC06892B11F046
:1022D0008CEEBACFD50156961C925697F501108216
:1022E0001182128213826CA170E0762F66272DA1D5
:1022F000620F711D14961D921D921D921C921797CC
:10230000E9A1F0E0FE2FEE27FF0F2F01712C612CC9
:102310001C964D925D926D927C921F978BA190E0DE
:10232000982F8827990F8C0130E020E050960D936C
:102330001D932D933C9353970C8D10E0102F002785
:102340002D8D7801E20EF11CFCAEEBAE5596FC92A1
:10235000EE9254979A8CD601A75CBE4F2D913C917A
:1023600011975B978C90283E03E03007E9F1629F5C
:10237000C001639F900D729F900D11248C509E4F51
:1023800068EE73E00E94FA24D6015D96ED90FD9010
:102390000D911C9190975A962C91222329F12BADE7
:1023A0003CAD2E9DA0012F9D500D3E9D500D112442
:1023B000452F5527E417F50741F460EE7AE88820A9
:1023C00009F4E3C068EB72E212C09F01DB010E94D6
:1023D000302583017F01E41AF50A01091109A801DA
:1023E00097010E940E25B901882009F4CEC0CB01C7
:1023F0009695879596958795D50119969C938E937A
:1024000018976295660F660F607C57966C931FA6AF
:102410001EA6892D90E07C0173E0F594E7947A95EF
:10242000E1F7FAAEE9AE09AD0F70902E09F4B2C033
:1024300089AD8D7011E018AB853029F084EF800FE5
:10244000843008F018AA41E06FEFC6010E9426050B
:10245000811107C0AE01425D5F4F66EBC6010E946D
:10246000E1089EA520E0392F330F790110E000E04C
:10247000E9AAFAAA0BAB1CAB811105C040E06FEFD3
:10248000C6010E942605F601EE5CFE4FE9A8FAA8F7
:102490000BA91CA9E082F18202831383811178C108
:1024A000D60195968C909597882009F47FC0F50108
:1024B000E484F584068517855A968C9120E030E0F7
:1024C000A901882399F0A489B589F601258D368D57
:1024D000478D50A10E943F259B01AC0120583F4FE2
:1024E0004F4F5F4F232F342F452F55272E0D3F1D64
:1024F000401F511FA8EEB3E00E943F2570588F4F38
:102500009F4FBC0188279927F601E65DFE4F672B98
:10251000682B692B09F041C08EEA97E8AFE8B2E07A
:1025200080839183A283B3831EEAE12E17E8F12E04
:102530000FE812E0EDAAFEAA0FAB18AFD5011B966B
:102540001C921E921A97AE01465D5F4F70E060E0EC
:10255000C6010E9417094AA55BA56CA57DA541157A
:1025600051056105710559F0FF24F3940DA91EA9C9
:102570002FA938AD401751076207730708F0F12CF7
:102580008823A9F0212C312C07C1F50171876087C0
:10259000178A3DCF01E008AB56CF1082118212821C
:1025A00013821DAA1EAA1FAA18AEC8CFF12CD601ED
:1025B00097963C90332009F4C5C0AE014A5D5F4F49
:1025C00062E070E0C6010E9417094EA15FA168A5F4
:1025D00079A5411551056105710559F0EE24E39483
:1025E00009A91AA92BA93CA940175107620773072B
:1025F00008F0E12C212C90E0811132C0D601989690
:102600002C90222009F4A4C00BAD1CAD01151105BE
:1026100009F49AC0962D852D742D6627980150E0F7
:1026200040E00E940E2529013A01AE014F5F5F4F45
:1026300063E070E0C6010E94170949815A816B81ED
:102640007C81411551056105710531F091E0441619
:1026500055066606770608F090E0882309F479C0ED
:10266000D5011B961C921E921A9780E0811002C021
:10267000FF24F394F60136A1F3A6F4E09F1609F4C3
:10268000B0C021E0311120E0D6019C962C9331108E
:1026900002C0EE24E394F601E5A6211001C091E00A
:1026A000D6019E969C93F501808F9601265B3F4F45
:1026B00099E1F901DE01119601900D929A95E1F7E9
:1026C000D5011896ED91FC91199757969C915797C3
:1026D0001A966D917C911B971C96ED90FD900D9133
:1026E0001C911F9750964D905D906D907C905397E4
:1026F00054964D915C91559714968D909D90AD9008
:10270000BC9017978D829E82AF82B886FA87E98740
:102710007C876B87ED86FE860F87188B498A5A8ADD
:102720006B8A7C8A5E8B4D8B988F898F89E1FE0145
:102730003196D90101900D928A95E1F7C6010E9468
:10274000F90982CDE12C5ACF412C512C32016DCFA9
:1027500090E018A98FEF113009F488CF890D8330EC
:10276000F0F026E0921639F139E0931621F189ADA7
:102770008D708830B1F041E0E41699F054E0951680
:1027800039F1913001F1F41601F19F2DEF2C68CF52
:10279000212C312C812CF12C90E0E12C61CF85E0B3
:1027A00065CF83E063CFB8EC4B165104610471042C
:1027B00009F04ACD48CD84E081105CCFF60136A106
:1027C00021E023A75ECF82E0F7CFE92E81E0F4CFAE
:1027D00082E081104FCF81E0D6019B968C93E12C53
:1027E00082E021E051CFAF92BF92DF92EF92FF9251
:1027F0000F931F93CF93DF93CDB7DEB769970FB6D3
:10280000F894DEBF0FBECDBF8C015B017C0183EE6F
:10281000E81A8EEFF80AF701D08040EC61E0C801B9
:102820000E942605811126C0BE016F5F7F4FC8013F
:102830000E94C31081111EC041E06FEFC8010E94C9
:102840002605811117C0A50166EBC8010E94E108A9
:10285000811110C040E06FEFC8010E942605811170
:1028600009C04D2D61E0C8010E942605811102C0FA
:10287000F701D08269960FB6F894DEBF0FBECDBFC8
:10288000DF91CF911F910F91FF90EF90DF90BF905C
:10289000AF9008952F923F924F925F926F927F92E6
:1028A0008F929F92AF92BF92CF92DF92EF92FF9260
:1028B0000F931F93CF93DF93CDB7DEB7AC970FB6CF
:1028C000F894DEBF0FBECDBF1C017FA36EA359A736
:1028D00048A71F82188619861A861B861C861D86A5
:1028E0001E86198A1A8AFC01E85DFE4F208131811B
:1028F000398F288FAC014F5E5E4F5B8F4A8FDA01B4
:102900001C922C01BEEE4B1ABEEF5B0AF201108244
:102910003C01FDEE6F1AFEEF7F0AD3011C92FC0111
:10292000EC5EFE4F1082319610823196108241E0AB
:102930006FEF0E9426058B8B81111DC140E06FE473
:10294000C1010E9426058B8B811115C14CE26EE4FA
:10295000C1010E9426058B8B81110DC140E06FEFF4
:10296000C1010E9426058B8B811105C144EB66EBEA
:10297000C1010E9426058B8B8111FDC040E060E8FB
:10298000C1010E9426058B8B8111F5C020E0AE01AC
:102990004E5E5F4FBE016F5E7F4FC1010E944E10C1
:1029A0008B8B8111E8C01F82188619861A86F10167
:1029B000E95EFE4FFD8FEC8F9E01295F3F4F49017D
:1029C000A3E0AA2EB12CC12CD12CE12CF12C870133
:1029D0002A8D3B8DAF0160E0C1010E94B3078B8B54
:1029E0008111C9C04F81588569857A854C8B5D8B73
:1029F0006E8B7F8BBE01615F7F4FC1010E94F3131D
:102A00008B8B8111B8C08F859889688D798D6817F7
:102A1000790708F0D3C0AA8DBB8D1C92F2011082F9
:102A2000D3011C9232961082319610823196108218
:102A30008C899D89AE89BF898C549F4FAF4FBF4F02
:102A4000E6E0B695A79597958795EA95D1F7880F13
:102A5000991F880F991F8D509E4FFC018081918195
:102A6000A281B381892B8A2B8B2B91F42C893D89F0
:102A70004E895F892C3231054105510548F42F5F9D
:102A80003F4F4F4F5F4F2C8B3D8B4E8B5F8BD0CF8B
:102A9000AE01495F5F4F4A0173E0A72EB12CC12CF4
:102AA000D12CEC88FD880E891F892A8D3B8D4C8D99
:102AB0005D8D61E0C1010E94B307811159C16F8131
:102AC000788589859A856C8B7D8B8E8B9F8BBE01DB
:102AD000615F7F4FC1010E94F313811149C18F854E
:102AE0009889A88DB98D11E063E0462E512C612C98
:102AF000712CA817B90720F010E0412C512C32019D
:102B0000C12CD12C7601C39460C0D501C4010196BB
:102B1000A11DB11D8C8B9D8BAE8BBF8B86E0EAA572
:102B2000FBA5ACA5B02F01900D928A95E1F74E8CD4
:102B30005F8C68A079A04AA35BA36CA37DA36FC040
:102B40004E8C5F8C68A079A0AEA1BFA14D925D9222
:102B50006D927C921397E8A5F9A51083F101EC5FC3
:102B6000FE4F81E0808332978C918083A8A5B9A520
:102B70008C91319680838B89AC960FB6F894DEBF2A
:102B80000FBECDBFDF91CF911F910F91FF90EF90BE
:102B9000DF90CF90BF90AF909F908F907F906F907D
:102BA0005F904F903F902F900895BEECBB8BE3CF8A
:102BB000EEECEB8BE0CFFEECFB8BDDCF10E0412C9D
:102BC000512C3201C12CD12C76018F859889288D0A
:102BD000398D8217930708F0B7CF46E0EA8DFB8D59
:102BE0009E012F5F3F4FD90101900D924A95E1F769
:102BF000E88DF98D8E1B9F0BAC0170E060E04AA35D
:102C00005BA36CA37DA353E0452E512C612C712C4A
:102C1000B1016F5E7E4F7BA76AA72CA7032F9E0191
:102C2000255F3F4F4C895D896E897F898C8D9D8D95
:102C30000E94AF008B849C84AD84BE847FEF871696
:102C40009706A706B70609F4B0CFD301C2010196D3
:102C5000A11DB11D8E8F9F8FA8A3B9A3D501C4015B
:102C60008C549F4FAF4FBF4F36E0B695A7959795C1
:102C700087953A95D1F7880F991F880F991F8D5026
:102C80009E4F11E0FC0180819181A281B381892B4B
:102C90008A2B8B2B09F410E0812F90E0B0E0A0E0AC
:102CA0008C159D05AE05BF0509F082CFD501C40185
:102CB00023E0B695A795979587952A95D1F7B50105
:102CC000A401477055276627772786309105A1050F
:102CD000B10508F070CFEA8DFB8DE80FF91F21E0F8
:102CE00030E001C0220F4A95EAF78081822B808371
:102CF0006A8D7B8DC1010E944E05811139C0BE01D4
:102D0000615F7F4FC1010E94F313811131C08F8534
:102D10009889288D398DAC01421B530B821793077C
:102D200011F450E040E070E060E0A88DB98DA81784
:102D3000B90708F0EACE8AA19BA1ACA1BDA1841776
:102D40009507A607B70708F0FBCEBE016F5F7F4F60
:102D5000C1010E944E0596E0FE013196D101AF5EA1
:102D6000BE4F01900D929A95E1F7882309F4ECCEBD
:102D70008B8B01CF885B9E4F62ED72E0FC018081FE
:102D800091810E94C3108091EA02843079F44AE074
:102D900064E070E080E090E00E947A0587E292E0D3
:102DA0000E946D0560E070E0CB0108956091DA0249
:102DB0007091DB0290E080E00E94C12320E030E0CF
:102DC00040E251E40E94202308959F92AF92BF9267
:102DD000CF92DF92EF92FF920F931F93CF93DF93E7
:102DE000CDB7DEB7A0970FB6F894DEBF0FBECDBF4C
:102DF0006C012FEDC20ED11CF601A080F7E0F12C82
:102E0000AF1609F4EEC0B62E8C0141E060E80E94D6
:102E10002605F82E41E06FEFC8010E942605F82A2A
:102E200040E060E0C8010E942605F82A46E06FEF06
:102E3000C8010E942605F82AAE01425E5F4F63E892
:102E4000C8010E94DC09F82A4E8D446063E8C8017D
:102E50000E942605F82A47E06FEFC8010E94260568
:102E6000F82A41E061E8C8010E942605F82A0E947C
:102E70008700F82A41E060E8C8010E942605F82A88
:102E800021E0B212C1C0A0FC02C24BE664E9C80155
:102E90000E942605E82EC8010E94A40A8E29F82A5D
:102EA000AE01465E5F4F60E9C8010E949808F82AAB
:102EB0008A8D9B8DAC8DBD8D992EE89497F897FBEC
:102EC000EE24E0F844E264E9C8010E942605F82AED
:102ED000C8010E94A40AF82AAE01465E5F4F60E96D
:102EE000C8010E949808F82A8A8D9B8D2C8D3D8DF3
:102EF0003C8B2D8B9E8B8F8B45E264E9C8010E9431
:102F00002605F82AC8010E94A40AF82AAE01465EE6
:102F10005F4F60E9C8010E949808F82A8C8D9D8D4A
:102F2000988F898F40E061E8C8010E942605F82A41
:102F300046E06FEFC8010E942605F82AAE01425E06
:102F40005F4F63E8C8010E94DC09F82A4E8D4B7F71
:102F500063E8C8010E942605F82A41E06FEFC80126
:102F60000E942605F82A41E060E0C8010E9426057B
:102F7000F82A40E06FEFC8010E942605F82A40E0D9
:102F800060E8C8010E942605F82A59F5F1E0BF164D
:102F900099F0A1FC23C0F801E052FF4F8F8D808390
:102FA000319688A18083BE016F5F7F4FC8018E512B
:102FB0009F4F0E94502512C0A0FC10C0F801EE5F88
:102FC000FE4F90823196E082DE0154967496035E45
:102FD0001E4F8D9181930E171F07D9F7BA28F6015E
:102FE000B0828F2DA0960FB6F894DEBF0FBECDBF76
:102FF000DF91CF911F910F91FF90EF90DF90CF90D5
:10300000BF90AF909F900895A1FC41C142E064E958
:10301000C8010E942605E82EC8010E94A40A8E2934
:10302000F82AAE01415E5F4F60E9C8010E94DC09E9
:10303000F82A4BE764E9C8010E942605F82AC8016E
:103040000E94A40AF82AAE01405E5F4F60E9C80101
:103050000E94DC09F82A47E764E9C8010E942605B6
:10306000F82AC8010E94A40AF82AAE01465E5F4F02
:1030700060E9C8010E949808F82A4A8D5B8D6C8D22
:103080007D8DDB01CA0129E1B695A79597958795B6
:103090002A95D1F78983DB01CA0132E1B695A7955C
:1030A000979587953A95D1F78F778A83DB01CA0187
:1030B000EBE0B695A79597958795EA95D1F78F7729
:1030C0008B83DB01CA01F4E0B695A79597958795A8
:1030D000FA95D1F78F778C83440F440F440F4877CC
:1030E0004E8F48E764E9C8010E942605F82AC80106
:1030F0000E94A40AF82AAE01465E5F4F60E9C8014B
:103100000E949808F82A8A8D9B8DAC8DBD8DAC01EC
:10311000BD012DE176956795579547952A95D1F78D
:103120002E8D240F2D83AC01BD0136E17695679578
:10313000579547953A95D1F74F774E83AC01BD012E
:10314000EFE07695679557954795EA95D1F74F77D4
:103150004F83292F2F772887AC01BD01769567957E
:10316000579547954F774987982F9295990F990FC3
:1031700090749E8F49E764E9C8010E942605F82AE9
:10318000C8010E94A40AF82AAE01465E5F4F60E9BA
:10319000C8010E949808F82A8A8D9B8DAC8DBD8D40
:1031A000AC01BD012AE176956795579547952A951B
:1031B000D1F72E8D240F2A87AC01BD0133E176951E
:1031C0006795579547953A95D1F74F774B87AC015F
:1031D000BD01ECE07695679557954795EA95D1F74F
:1031E0004F774C87AC01BD01F5E076956795579513
:1031F0004795FA95D1F74F774D87982F990F990FEB
:103200009C779E8F4AE764E9C8010E942605F82A48
:10321000C8010E94A40AF82AAE01465E5F4F60E929
:10322000C8010E949808F82A8A8D9B8DAC8DBD8DAF
:10323000AC01BD012EE176956795579547952A9586
:10324000D1F72E8D240F2E87AC01BD0137E1769585
:103250006795579547953A95D1F74F774F872A2F1E
:103260002F77288BAC01BD01E9E0769567955795DE
:103270004795EA95D1F74F77498BF2E0B695A79538
:1032800097958795FA95D1F78F778A8B1B8AE12CD2
:10329000912C48CE2F923F924F925F926F927F92E5
:1032A0008F929F92AF92BF92CF92DF92EF92FF9256
:1032B0000F931F93CF93DF93CDB7DEB7C650D240A5
:1032C0000FB6F894DEBF0FBECDBF6C01C750DE4F06
:1032D00099838883C95FD1404C0122E0820E911C02
:1032E0002C01F20181912F0190E0FC01EC55FF4F80
:1032F000249180579F4FFC018491882399F090E09E
:10330000880F991FFC01EA57FF4FA591B491FC016A
:10331000E458FF4F859194918FB7F894EC912E2B40
:103320002C938FBF60E0F201319780810E943201BF
:1033300048145904B1F60E94A30161E0F6018081AE
:103340000E94320161E0F60181810E9432010E94F7
:10335000A30160E0F60180810E94320160E0F60185
:1033600081810E9432010E94A3018FEA93E0C35041
:10337000DE4F99838883CD5FD140C750DE4FE8810F
:10338000F981C95FD1402191C750DE4FF983E883AD
:10339000C95FD140C850DE4F2883C85FD14061E08B
:1033A000822F0E94320119826E0182E0C80ED11C68
:1033B000C75BDE4FD982C882C954D1408091AE0329
:1033C00010E3712E780E89E2CD5BDE4F8883C35403
:1033D000D14081E0CC5BDE4F8883C454D140E0E92A
:1033E000F1E0CB5BDE4FF983E883C554D14080E543
:1033F00094E0C95BDE4F99838883C754D140109213
:10340000AD031092AC031092AB031092AA030E947A
:103410000C0380E391E09093A9038093A80381E3D8
:1034200091E09093A7038093A60321E04EEF69E813
:10343000C6010E948B09811105C040E068E8C60101
:103440000E942605AE0147515E4F60ECC6010E9406
:10345000DC09CF51DF4F1882C15ED04088EE93E087
:10346000C55CDE4F99838883CB53D14080E991E0DE
:10347000C35CDE4F99838883CD53D14085E89BE6BA
:10348000A1E0B0E0C15CDE4F88839983AA83BB834F
:10349000CF53D14084EA90E7A9E0B0E0C653DF4FB4
:1034A00088839983AA83BB83CA5CD0401F8E18A2ED
:1034B00019A21AA2BE0161557E4FC6010E94120DCB
:1034C000182F811114C0C155DE4F1882CF5AD14038
:1034D000C055DE4F1882C05BD1408AE3FE01E15542
:1034E000FE4FDE01529601900D928A95E1F784E637
:1034F00090E0CD5DDE4F99838883C352D14084E84C
:1035000093E0CB5DDE4F99838883C552D14084EF31
:1035100091E0C95DDE4F99838883C752D14080E036
:103520009AE0C65DDE4F99838883CA52D14081E01C
:10353000C65CDE4F8883CA53D14041E060E8C601D3
:103540000E942605B82E41E06FEFC6010E942605B5
:10355000B82AB12A40E060E0C6010E942605B82AD8
:10356000AE0143515E4F61E9C6010E94DC09B82AF1
:10357000C351DE4F8881CD5ED140C75DDE4F888369
:10358000C952D14041E060E0C6010E942605B82A38
:1035900040E06FEFC6010E942605B82A40E060E8CF
:1035A000C6010E942605B82A8E010F5F1F4F912C7D
:1035B000812CFF24F394B11073C193E08916910418
:1035C00009F48DC074F4F1E08F169104D1F022E07B
:1035D0008216910409F481C0FFA2F801F6A280E0EE
:1035E00021C084E08816910409F47BC020E04FEEEE
:1035F00095E08916910481F760E6C6010E948B0967
:103600000FC04FA958AD69AD7AADB9E07695679511
:1036100057954795BA95D1F764E4C6010E94FC041A
:103620008823D9F2FFEF8F1A9F0A0F5F1F4FB82E22
:1036300026E08216910409F0BECF81115DC019A663
:103640001AA622E04EEF60E6C6010E948B098111A6
:1036500053C01BA620E14FEE60E6C6010E948B0915
:1036600081114AC01CA680E090E0A2E1B0E08BABE3
:103670009CABADABBEAB88A5811136C080E090E4B9
:10368000A0E0B0E08FAB98AFA9AFBAAF80E090E018
:10369000A3E2B0E08BAF9CAFADAFBEAF23961CAE44
:1036A0001DAE1EAE1FAE23978FEFC15EDE4F888327
:1036B000CF51D1404FEF61E0C6010E94260591E055
:1036C000CF5DDE4F9883C152D140811115C0CA5FD2
:1036D000DE4F1882C650D1400FC0F9A67ECFFAA6A1
:1036E0007CCF20E04EEF88CF40E250E064E4C6019A
:1036F0000E94FC04882311F28983172D1F77412F24
:103700006AE8C75BDE4F88819981C954D1400E9425
:10371000260589830E94A30189818111ACC1C75B01
:10372000DE4FE881F981C954D140EF5BFE4F108331
:1037300062E0C6010E94E516882309F4B3C08983BC
:10374000811110C0C455DE4F8881CC5AD1408130E0
:1037500039F4C355DE4F8881CD5AD140813011F004
:103760008BEF89838981811111C1C75BDE4F68802E
:103770007980C954D140CF50DE4F19821882C15F81
:10378000D140CB50DE4F1882C55FD140CC50DE4FC8
:103790001882C45FD140C351DE4F188219821A8249
:1037A0001B82CD5ED14061E0C3010E94E516F301AA
:1037B000ED5FFE4F2080F1E0F21508F4D9C0F3016F
:1037C000EE5FFE4F3080A32CB12CD12CC12C21E018
:1037D0002212C7C081E2A816B104C104D10408F0C6
:1037E000C7C041E06FEFC3010E94260581111AC0D6
:1037F00040E06FE4C3010E942605811113C04CE232
:103800006EE4C3010E94260581110CC040E06FEFF9
:10381000C3010E942605811105C044EB66EBC3017C
:103820000E942605F301EF5EFE4F10823196108252
:103830003196108231961082319610823196108224
:10384000E12CF12C8701222009F466C1D801C701BF
:103850008C549F4FAF4FBF4FF6E0B695A795979505
:103860008795FA95D1F7880F991F880F991F8D506A
:103870009E4FFC0180819181A281B381892B8A2B8B
:103880008B2B09F049C1FCE2EF16F104010511058B
:1038900009F442C12FEFE21AF20A0F4F1F4FD6CFA1
:1038A0008B2D2ACFCE51DF4F8881C25ED04081114F
:1038B00038C06FEB72E0CE0185579E4F0E945025B5
:1038C00062E672E0CE01855B9E4F0E9450256BE957
:1038D00072E0CE0185599E4F0E945025AE0145559C
:1038E0005E4F60ECC6010E94DC09811128CFAE0159
:1038F00041555E4F62ECC6010E94DC0991E0C4555F
:10390000DE4F9883CC5AD140C155DE4F9881CF5AB3
:10391000D14092959F70C355DE4F9883CD5AD140C8
:103920000ECFCD51DF4F1881C35ED040BE016C5128
:103930007F4FCE0185579E4F0E945025112309F4D9
:10394000BFCF133240F46EE672E0103209F0BACF06
:103950006AE772E0B7CF66E872E0173208F0B2CFDC
:10396000F7CF9DE0A916B104C104D10408F439CF02
:10397000AE014C505E4FBE0163517E4FC3010E94A9
:103980004A14B82EBB2009F4E1C0B98289818111A3
:103990000FC0AE014F505E4FBE0161557E4FC75BF9
:1039A000DE4F88819981C954D1400E944A1489838D
:1039B0008981811110C021E0AE0147515E4FBE01E7
:1039C00063517E4FC75BDE4F88819981C954D140D6
:1039D0000E944E1089838981811108C0C75BDE4F28
:1039E000E881F981C954D140108A198289818111F5
:1039F00042C0C75BDE4FE881F981C954D140FF2442
:103A0000F394F5A21982C75BDE4F08811981C9546E
:103A1000D140F80145A956A967A970AD99E07695FE
:103A20006795579547959A95D1F764E4C8010E9428
:103A3000FC04811102C0F801F6A2898381111BC028
:103A4000C75BDE4FE881F981C954D14081E080A78E
:103A50001982C75BDE4FE881F981C954D140FD96D8
:103A600084ED98E0A0E0B0E080839183A283B383EB
:103A70008981882381F0C850DE4FE881C85FD1403A
:103A80006E2F70E090E080E04AE00E947A0586E3C5
:103A900092E00E94BE05C75BDE4FE881F981C95400
:103AA000D14083E0808B8091AE038F5F8093AE0323
:103AB000CE010196C350DE4FE881F981CD5FD14040
:103AC00081939193C350DE4FF983E883CD5FD1405A
:103AD000C750DE4F88819981C95FD1408415950513
:103AE00009F04BCCCA5FDD4F0FB6F894DEBF0FBEB6
:103AF000CDBFDF91CF911F910F91FF90EF90DF909D
:103B0000CF90BF90AF909F908F907F906F905F907D
:103B10004F903F902F900895CE0181559E4F4C01BC
:103B200093012F5E3E4FA301495E5E4F622DC3019C
:103B30000E94B307B82E811125CF81E0F301EC5F1D
:103B4000FE4F80833297308231962082F301E85C09
:103B5000FE4F8081811114C23297C080D18030E045
:103B600020E04E0191E5891A9EEF990AF301EB5B83
:103B7000FE4FCA50DE4FF983E883C65FD140C301D0
:103B80008F5B9E4FC550DE4F99838883CB5FD140BA
:103B9000B297C150DE4FF983E883CF5FD140809761
:103BA000CF5FDD4F99838883C150D2403296CD5F7D
:103BB000DD4FF983E883C350D2400796CB5FDD4FDA
:103BC00099838883C550D24003C0ECEFBE2E91018B
:103BD000F601E20FF31F0081002309F495C0B11034
:103BE000D4CE19019FEF291A390AD601A20DB31DAF
:103BF0006C910F3F09F055C0190182E0280E311C6D
:103C0000D601A20DB31D8C91613049F1A8F062304C
:103C1000B9F16330D1F6190194E0290E311C2381EA
:103C200090E0982F8827820F911DCB5FDD4FE881B0
:103C3000F981C550D24010C0190194E0290E311C01
:103C4000238190E0982F8827820F911DCF5FDD4F51
:103C5000E881F981C150D24091838083B8CF1901A6
:103C600094E0290E311C238190E0982F8827820F41
:103C7000911DC150DE4FE881F981CF5FD140ECCF7B
:103C8000190194E0290E311C238190E0982F882798
:103C9000820F911DCD5FDD4FE881F981C350D24085
:103CA000DBCF053008F091CF2E5F3F4FD601A20F3A
:103CB000B31FF401202E312CCF01881999098215E8
:103CC00093051CF48D918193F7CF220E331ECA50B9
:103CD000DE4FE881F981C65FD140E080F18010E0DD
:103CE00030E020E0AE0141555E4FC550DE4FE88127
:103CF000F981CB5FD14080810E94BB04892B09F4FC
:103D000066CF7CEEB72E63CFB1103FCE44E06AE0C1
:103D1000C3010E942605B82E811137CE20E04FEE58
:103D200064E8C3010E948B09B82E81112ECE84E075
:103D3000F301E253FF4F8083C3010E94F909B82EBB
:103D4000811123CE41E06FEFC3010E942605B82EFA
:103D5000AE014F505E4F64E8C3010E94E108B82AEB
:103D600040E06FEFC3010E942605B82A09F00DCE8E
:103D7000F301E853FF4FCF50DE4F88819981C15F37
:103D8000D14024E0880F991F2A95E1F7B0E0A0E028
:103D900080839183A283B383BE0161557E4FC301AB
:103DA0000E94120DB82E8111F0CDAE014B505E4F26
:103DB00069E0C3010E94DC09B82E8111E6CDCB5029
:103DC000DE4F8881C55FD1408170CB50DE4F888344
:103DD000C55FD140F301E25EFE4F80838AE3FE01BE
:103DE000E155FE4FD301509601900D928A95E1F76F
:103DF000AE014B505E4F61E0C3010E94DC09B82E5A
:103E00008111C3CD8301035E1E4FCB50DE4F8881ED
:103E1000C55FD140F8018083C751DE4F1882C95E6B
:103E2000D140AE0147515E4F61E0C3010E94DC0901
:103E3000B82E8111AACDC751DE4F8881C95ED1400D
:103E4000F82EE894F4F884FF12C04F2D61E0C3010E
:103E50000E942605B82E811198CDF801F082F30159
:103E60004289538964897589C3010E94D10EC75163
:103E7000DE4F1882C95ED140AE0147515E4F61E00E
:103E8000C3010E94DC09B82E81117FCDC751DE4FDE
:103E90008881C95ED140F82EE894F2F882FF12C002
:103EA0004F2D61E0C3010E942605B82E81116DCD12
:103EB000F801F082F3014289538964897589C3014D
:103EC0000E94D10E83E0F301E15EFE4F8083AE01DC
:103ED0004D505E4F60E0C3010E94850AB82E8111EB
:103EE00054CDCD50DE4F8881C35FD140F301E852FD
:103EF000FF4F8083AE014D505E4F61E0C3010E94D1
:103F0000850AB82E811141CDCD50DE4F8881C35F27
:103F1000D140F301ED52FF4F8083AE0147515E4F18
:103F200063E0C3010E94BB0CB82E81112ECDC75196
:103F3000DE4F88819981AA81BB81C95ED140F3019E
:103F4000EC52FF4F80839183A283B383AE0147512C
:103F50005E4F64E0C3010E94BB0CB82E811115CDE9
:103F6000F301E153FF4FC751DE4F88819981AA8148
:103F7000BB81C95ED14080839183A283B38305CD89
:103F800080E0C82E81E0D82EEACD85ED8093BC007C
:103F900080912E0390912F03A0913003B0913103B3
:103FA0000796A11DB11D23E0B695A7959795879516
:103FB0002A95D1F72091BC0024FD03C0109277030D
:103FC000089540912E0350912F036091300370911A
:103FD0003103452B462B472B69F30097A105B1050B
:103FE00041F02AE22A95F1F700C00197A109B10931
:103FF000E1CF80912D030C942A031F920F920FB6EC
:104000000F9211242F933F938F939F93AF93BF935E
:1040100080919E0390919F03A091A003B091A10372
:1040200030919D0323E0230F2D3758F50196A11DF4
:10403000B11D20939D0380939E0390939F03A093B3
:10404000A003B093A1038091A2039091A303A09138
:10405000A403B091A5030196A11DB11D8093A203F5
:104060009093A303A093A403B093A503BF91AF9132
:104070009F918F913F912F910F900FBE0F901F90A6
:10408000189526E8230F0296A11DB11DD2CF1F92CD
:104090000F920FB60F9211242F933F934F935F937C
:1040A0006F937F938F939F93AF93BF93EF93FF9300
:1040B00083EB93E00E945602FF91EF91BF91AF9185
:1040C0009F918F917F916F915F914F913F912F9130
:1040D0000F900FBE0F901F9018951F920F920FB662
:1040E0000F9211242F938F939F93EF93FF93E0915F
:1040F000C303F091C4038081E091C903F091CA0326
:1041000082FD1BC090818091CC038F5F8F732091C3
:10411000CD03821741F0E091CC03F0E0ED54FC4F69
:10412000958F8093CC03FF91EF919F918F912F9169
:104130000F900FBE0F901F9018958081F4CF1F92A3
:104140000F920FB60F9211242F933F934F935F93CB
:104150006F937F938F939F93AF93BF93EF93FF934F
:104160008091B900887F803609F44AC0F0F5883222
:1041700009F4A7C018F5803109F49BC0B8F488236E
:1041800009F4F9C0883009F494C0FF91EF91BF9110
:10419000AF919F918F917F916F915F914F913F91DF
:1041A0002F910F900FBE0F901F901895883109F432
:1041B00088C0803251F78093760314C0803409F4AC
:1041C0009DC040F48033B9F38833F9F680937603C9
:1041D00085ECB0C0803509F485C0883509F496C0F7
:1041E000883499F60E94C51FD0CF883909F48CC055
:1041F00038F5883729F050F4883611F0803729F6E1
:1042000083E0809377031092750357C0883809F4D0
:104210007BC0803919F0803809F0B7CF80917503E1
:10422000803208F071C0E091750381E08E0F8093B9
:1042300075038091BB00F0E0EB5AFC4F80833DC0DA
:10424000803B39F0E0F4803A09F479C0883A09F00B
:104250009CCF84E080937703109254031092530311
:10426000E091A803F091A90309958091530381116E
:104270000FC081E0809353031092330309C0803C48
:1042800009F4A6CF883C09F4A3CF883B09F07DCF81
:10429000E091540381E08E0F80935403F0E0ED5CD5
:1042A000FC4F80818093BB00909154038091530315
:1042B00029C080919C038093BB0085EC8093BC0057
:1042C00064CF90919B0380919A03981758F5E091E1
:1042D0009B0381E08E0F80939B03F0E0E658FC4F38
:1042E0008081E9CFE0919B0381E08E0F80939B0357
:1042F0008091BB00F0E0E658FC4F808390919B03D7
:1043000080919A039817C8F285E8D8CFE0919B0373
:1043100081E08E0F80939B038091BB00F0E0E65814
:10432000FC4F80838091790381115CCF81E0809381
:10433000780384EA8093BC001092770326CF85EC43
:104340008093BC001092770380917503803230F423
:10435000E0917503F0E0EB5AFC4F10826091750319
:1043600070E0E091A603F091A70385E593E009953D
:10437000109275030ACF1092760334CFE3EBF3E08B
:104380001382128288EE93E0A0E0B0E084839583EC
:10439000A683B78327E032E03183208325EC30E029
:1043A0003587248724EC30E03787268720EC30E0FF
:1043B000318B208B21EC30E0338B228B22EC30E0F0
:1043C000358B248B26EC30E0378B268B118E128EAA
:1043D000138E148EE0E5F4E01382128284839583B9
:1043E000A683B78389E192E0918380830895CF9378
:1043F000DF9300D0CDB7DEB7789484B5826084BDFA
:1044000084B5816084BD85B5826085BD85B58160D8
:1044100085BD80916E00816080936E001092810056
:104420008091810082608093810080918100816011
:1044300080938100809180008160809380008091D2
:10444000B10084608093B1008091B000816080935E
:10445000B00080917A00846080937A0080917A0025
:10446000826080937A0080917A00816080937A00E4
:1044700080917A00806880937A001092C100E09168
:10448000C303F091C40382E08083E091BF03F09105
:10449000C0031082E091C103F091C2038FEC8083CE
:1044A0001092CB03E091C703F091C80386E08083AC
:1044B000E091C503F091C603808180618083E09123
:1044C000C503F091C603808188608083E091C503B5
:1044D000F091C603808180688083E091C503F091EC
:1044E000C60380818F7D808383EA92E00E94BE05AF
:1044F00088E0898389E08A83CE0101960E944A1967
:1045000081EB92E00E94BE0500E010E087EB92E0B4
:104510000E946D058091AF039091B0030E94BA167E
:1045200042E00E94D00580EC92E00E946D058091EF
:10453000B1039091B2030E94BA1642E00E94D005E6
:104540008EEC92E00E94BE0501151105F9F20E9461
:1045500042028823D9F20E940000D8CF5058BB27CE
:10456000AA270E94C6220C9439240E942B2438F0DA
:104570000E94322420F039F49F3F19F426F40C9461
:1045800028240EF4E095E7FB0C942224E92F0E94E6
:104590004A2458F3BA17620773078407950720F077
:1045A00079F4A6F50C946C240EF4E0950B2EBA2F3A
:1045B000A02D0B01B90190010C01CA01A001112429
:1045C000FF27591B99F0593F50F4503E68F11A16D5
:1045D000F040A22F232F342F4427585FF3CF469566
:1045E00037952795A795F0405395C9F77EF41F1688
:1045F000BA0B620B730B840BBAF09150A1F0FF0F52
:10460000BB1F661F771F881FC2F70EC0BA0F621F3D
:10461000731F841F48F4879577956795B795F7952D
:104620009E3F08F0B0CF9395880F08F09927EE0FC2
:104630009795879508950E94FE2308F481E00895D8
:104640000E9434230C9439240E94322458F00E9492
:104650002B2440F029F45F3F29F00C9422245111BF
:104660000C946D240C9428240E944A2468F3992306
:10467000B1F3552391F3951B550BBB27AA2762175E
:104680007307840738F09F5F5F4F220F331F441F6B
:10469000AA1FA9F335D00E2E3AF0E0E832D091509F
:1046A0005040E695001CCAF72BD0FE2F29D0660F8C
:1046B000771F881FBB1F261737074807AB07B0E8CF
:1046C00009F0BB0B802DBF01FF2793585F4F3AF0D5
:1046D0009E3F510578F00C9422240C946D245F3F8A
:1046E000E4F3983ED4F3869577956795B795F7955B
:1046F0009F5FC9F7880F911D9695879597F9089543
:10470000E1E0660F771F881FBB1F621773078407DE
:10471000BA0720F0621B730B840BBA0BEE1F88F7ED
:10472000E09508950E94522488F09F5798F0B92F81
:104730009927B751B0F0E1F0660F771F881F991FD6
:104740001AF0BA95C9F714C0B13091F00E946C24E8
:10475000B1E008950C946C24672F782F8827B85FF8
:1047600039F0B93FCCF3869577956795B395D9F72E
:104770003EF490958095709561957F4F8F4F9F4F38
:104780000895E89409C097FB3EF490958095709544
:1047900061957F4F8F4F9F4F9923A9F0F92F96E98D
:1047A000BB279395F695879577956795B795F11102
:1047B000F8CFFAF4BB0F11F460FF1BC06F5F7F4F9F
:1047C0008F4F9F4F16C0882311F096E911C07723B1
:1047D00021F09EE8872F762F05C0662371F096E8BA
:1047E000862F70E060E02AF09A95660F771F881F89
:1047F000DAF7880F9695879597F90895990F00082D
:10480000550FAA0BE0E8FEEF16161706E807F907A2
:10481000C0F012161306E407F50798F0621B730B3D
:10482000840B950B39F40A2661F0232B242B252BBE
:1048300021F408950A2609F4A140A6958FEF811D61
:10484000811D089597F99F6780E870E060E0089502
:104850009FEF80EC089500240A9416161706180698
:104860000906089500240A94121613061406050674
:104870000895092E0394000C11F4882352F0BB0F05
:1048800040F4BF2B11F460FF04C06F5F7F4F8F4F68
:104890009F4F089557FD9058440F551F59F05F3FA3
:1048A00071F04795880F97FB991F61F09F3F79F052
:1048B00087950895121613061406551FF2CF4695D4
:1048C000F1DF08C0161617061806991FF1CF869556
:1048D0007105610508940895E894BB27662777273A
:1048E000CB0197F908950E94FE2308F48FEF0895F5
:1048F0000E948B240C9439240E942B2438F00E94AF
:10490000322420F0952311F00C9422240C942824B6
:1049100011240C946D240E944A2470F3959FC1F3D6
:10492000950F50E0551F629FF001729FBB27F00D5D
:10493000B11D639FAA27F00DB11DAA1F649F6627B2
:10494000B00DA11D661F829F2227B00DA11D621F01
:10495000739FB00DA11D621F839FA00D611D221FBB
:10496000749F3327A00D611D231F849F600D211D9F
:10497000822F762F6A2F11249F5750409AF0F1F022
:1049800088234AF0EE0FFF1FBB1F661F771F881F8B
:1049900091505040A9F79E3F510580F00C9422247D
:1049A0000C946D245F3FE4F3983ED4F3869577959D
:1049B0006795B795F795E7959F5FC1F7FE2B880F31
:1049C000911D9695879597F908950E94FE23880B6F
:1049D000990B0895DB018F939F930E943F25BF9110
:1049E000AF91A29F800D911DA39F900DB29F900D3E
:1049F00011240895AA1BBB1B51E107C0AA1FBB1FAE
:104A0000A617B70710F0A61BB70B881F991F5A955A
:104A1000A9F780959095BC01CD010895A1E21A2EC9
:104A2000AA1BBB1BFD010DC0AA1FBB1FEE1FFF1F52
:104A3000A217B307E407F50720F0A21BB30BE40BA2
:104A4000F50B661F771F881F991F1A9469F76095E9
:104A50007095809590959B01AC01BD01CF010895A3
:104A6000A29FB001B39FC001A39F700D811D1124AF
:104A7000911DB29F700D811D1124911D08950E94FA
:104A80003025A59F900DB49F900DA49F800D911D82
:104A900011240895EE0FFF1F0590F491E02D099465
:104AA000FB01DC0101900D920020E1F70895F894DC
:104AB000FFCF01FF0101000001FF0001090001100B
:104AC000000111000124010125FF01750001FF0112
:104AD000014E2C01480001302001FF000130090186
:104AE0005400013104013203014083014625016075
:104AF000000127000150060151000152960156089D
:104B0000015730016100016200016400016500018C
:104B100066A001FF010122320147140149FF014A49
:104B20000001FF00017A0A017B0001782101FF01E9
:104B30000123340142000144FF01452601460501DD
:104B40004040010E0601201A01434001FF000134DC
:104B50000301354401FF01013104014B09014C05FA
:104B6000014D0401FF0001440001452001470801F7
:104B700048280167000170040171010172FE01768D
:104B80000001770001FF01010D0101FF000180011B
:104B90000101F801FF01018E0101000101FF000187
:104BA00080000000000A0000000500000000000076
:104BB0000005000000000000007802D8010502C5D1
:104BC0000236021402280200000000A2037503B896
:104BD000044B036E035B034C030D0A006E616E0011
:104BE000696E66006F7666003A204552524F522138
:104BF00021212121212121212121212121212121A5
:104C00002121212121212121212121212121212194
:104C100021212100564C35334C305820545330005C
:104C2000564C35334C30582054533100564C3533A4
:104C30004C30582054533200564C35334C305820A9
:104C4000455331206F72206C6174657200564C358B
:104C5000334C3058000A5354415254494E47205562
:104C60005021005245414459004469737420313A3F
:104C7000090020636D09094469737420323A090000
:044C800020636D0040
:107E0000112484B714BE81FFF0D085E080938100F7
:107E100082E08093C00088E18093C10086E0809377
:107E2000C20080E18093C4008EE0C9D0259A86E02C
:107E300020E33CEF91E0309385002093840096BBD3
:107E4000B09BFECF1D9AA8958150A9F7CC24DD24C4
:107E500088248394B5E0AB2EA1E19A2EF3E0BF2EE7
:107E6000A2D0813461F49FD0082FAFD0023811F036
:107E7000013811F484E001C083E08DD089C08234E0
:107E800011F484E103C0853419F485E0A6D080C0E4
:107E9000853579F488D0E82EFF2485D0082F10E0AE
:107EA000102F00270E291F29000F111F8ED06801E7
:107EB0006FC0863521F484E090D080E0DECF843638
:107EC00009F040C070D06FD0082F6DD080E0C81688
:107ED00080E7D80618F4F601B7BEE895C0E0D1E017
:107EE00062D089930C17E1F7F0E0CF16F0E7DF06D8
:107EF00018F0F601B7BEE89568D007B600FCFDCFD4
:107F0000A601A0E0B1E02C9130E011968C91119780
:107F100090E0982F8827822B932B1296FA010C0160
:107F200087BEE89511244E5F5F4FF1E0A038BF0790
:107F300051F7F601A7BEE89507B600FCFDCF97BE46
:107F4000E89526C08437B1F42ED02DD0F82E2BD052
:107F50003CD0F601EF2C8F010F5F1F4F84911BD097
:107F6000EA94F801C1F70894C11CD11CFA94CF0C13
:107F7000D11C0EC0853739F428D08EE10CD085E9AC
:107F80000AD08FE07ACF813511F488E018D01DD067
:107F900080E101D065CF982F8091C00085FFFCCF94
:107FA0009093C60008958091C00087FFFCCF809118
:107FB000C00084FD01C0A8958091C6000895E0E648
:107FC000F0E098E1908380830895EDDF803219F02E
:107FD00088E0F5DFFFCF84E1DECF1F93182FE3DFCA
:107FE0001150E9F7F2DF1F91089580E0E8DFEE27F6
:047FF000FF270994CA
:027FFE00040479
:00000001FF
