:020000040000FA
:100000000C943E010C9466010C9466010C946601FC
:100010000C9466010C9466010C9466010C946601C4
:100020000C9466010C9466010C9466010C946601B4
:100030000C9466010C9466010C9466010C946601A4
:100040000C94D90B0C9466010C94490C0C94230C61
:100050000C9466010C9466010C9466010C94660184
:100060000C947B0C0C946601484947484553542036
:100070005354455020434F554E543A09000A5B53A0
:1000800054415455535D3A205245414459000A5B4E
:100090005354415455535D3A2043414C49425241D7
:1000A00054494E472053544550504552204D4F54CB
:1000B0004F520020636D0A0020636D09094D61787D
:1000C000206469737420323A09005B524541444907
:1000D0004E475D3A204D6178206469737420313A4F
:1000E00009005B5354415455535D3A2043414C49F8
:1000F00042524154494E472053454E534F525300AC
:100100000A5354415254494E472055502100094347
:10011000757272656E7420434D3A200043555252F9
:10012000454E5420535445503A20000A454E445001
:100130004F494E543A20005345434F4E443A200015
:1001400046495253543A20000A42414C4C204D45F6
:1001500041535552454D454E54533A000A5B474171
:100160004D45205354415455535D3A20414C4C2049
:1001700053454E534F5253204445544543544544F0
:100180002042414C4C0020636D005B524541444984
:100190004E475D3A205345434F4E442053454E53FE
:1001A0004F522044455445435445443A0900206386
:1001B0006D005B52454144494E475D3A20464952E5
:1001C00053542053454E534F5220444554454354B5
:1001D00045443A09005B47414D452053544154552D
:1001E000535D3A2042616C6C2072657475726E6565
:1001F000643B2052657361742073656E736F727314
:10020000005B47414D45205354415455535D3A20BE
:1002100062616C6C2072657475726E696E67000045
:10022000000000240027002A00000000002500280C
:10023000002B000000000023002600290004040415
:10024000040404040402020202020203030303037F
:10025000030102040810204080010204081020015C
:10026000020408102000000008000201000003043E
:10027000070000000000000000009A0D11241FBEBE
:10028000CFEFD8E0DEBFCDBF11E0A0E0B1E0E2EA01
:10029000FAE302C005900D92AE3AB107D9F723E018
:1002A000AEEAB1E001C01D92A834B207E1F711E057
:1002B000CEE3D1E004C02197FE010E94241CCD337F
:1002C000D107C9F70E94DA0D0C944F1D0C94000061
:1002D000833081F028F4813099F08230A9F00895BC
:1002E0008730A9F08830C9F08430B1F48091800063
:1002F0008F7D03C0809180008F7780938000089568
:1003000084B58F7784BD089584B58F7DFBCF8091B0
:10031000B0008F778093B00008958091B0008F7DFA
:10032000F9CFCF93DF93EAE6F2E08491E6E5F2E0DD
:10033000D491E2E4F2E0C491CC23A1F081110E94B7
:100340006801EC2FF0E0EE0FFF1FED5CFD4FA59173
:10035000B491EC91ED2381E090E009F480E0DF912D
:10036000CF91089580E090E0FACF1F93CF93DF9371
:10037000282F30E0F901EB59FD4F8491F901EF5A34
:10038000FD4FD491F901E35CFD4FC491CC23A9F05A
:10039000162F81110E946801EC2FF0E0EE0FFF1F75
:1003A000E75DFD4FA591B4918FB7F894EC911111D1
:1003B00008C0D095DE23DC938FBFDF91CF911F91D2
:1003C0000895DE2BF8CFCF93DF9390E0FC01EF5A36
:1003D000FD4F2491835C9D4FFC0184918823D1F0D3
:1003E00090E0880F991FFC01E15EFD4FA591B4914B
:1003F000FC01E75DFD4FC591D49161110EC09FB71F
:10040000F8948C91E22FE0958E238C932881E2233F
:10041000E8839FBFDF91CF9108958FB7F894EC9157
:10042000E22BEC938FBFF6CF3FB7F89480911B027D
:1004300090911C02A0911D02B0911E0226B5A89BAE
:1004400005C02F3F19F00196A11DB11D3FBFBA2F66
:10045000A92F982F8827BC01CD01620F711D811D26
:10046000911D42E0660F771F881F991F4A95D1F7AB
:1004700008958F929F92AF92BF92CF92DF92EF92A8
:10048000FF924B015C010E9414026B017C010E94EF
:1004900014026C197D098E099F09683E734081051D
:1004A0009105A8F321E0821A9108A108B10888EE0D
:1004B000C80E83E0D81EE11CF11C81149104A10434
:1004C000B10429F7FF90EF90DF90CF90BF90AF90ED
:1004D0009F908F9008952FB7F894609117027091B4
:1004E00018028091190290911A022FBF0895089561
:1004F0000895AF92BF92CF92DF92EF92FF920F9347
:100500001F93CF93DF936C017B018B01040F151FA9
:10051000EB015E01AE18BF08C017D10759F0699111
:10052000D601ED91FC910190F081E02DC601099575
:10053000892B79F7C501DF91CF911F910F91FF9022
:10054000EF90DF90CF90BF90AF900895FC01538D56
:10055000448D252F30E0842F90E0821B930B54179D
:1005600010F0CF96089501970895FC01918D828D2A
:10057000981761F0A28DAE0FBF2FB11D5D968C91C3
:10058000928D9F5F9F73928F90E008958FEF9FEF02
:100590000895FC01918D828D981731F0828DE80FBE
:1005A000F11D858D90E008958FEF9FEF0895FC0178
:1005B000918D228D892F90E0805C9F4F821B910945
:1005C0008F73992708958FE892E00E94D70221E067
:1005D000892B09F420E0822F089580E090E0892B98
:1005E00029F00E94E30281110C9400000895FC019F
:1005F000A48DA80FB92FB11DA35ABF4F2C91848D84
:1006000090E001968F739927848FA689B7892C93E0
:10061000A089B1898C91837080648C93938D848D33
:10062000981306C00288F389E02D80818F7D808336
:100630000895EF92FF920F931F93CF93DF93EC01F6
:1006400081E0888F9B8D8C8D98131AC0E889F98979
:10065000808185FF15C09FB7F894EE89FF8960837C
:10066000E889F98980818370806480839FBF81E0FD
:1006700090E0DF91CF911F910F91FF90EF9008953F
:10068000F62E0B8D10E00F5F1F4F0F731127E02E1A
:100690008C8D8E110CC00FB607FCFACFE889F98952
:1006A000808185FFF5CFCE010E94F702F1CFEB8D5F
:1006B000EC0FFD2FF11DE35AFF4FF0829FB7F89426
:1006C0000B8FEA89FB8980818062CFCF0F931F93C4
:1006D000CF93DF938C01D0E0C0E0F801EC0FFD1F59
:1006E0006491662341F08FE892E00E941903892B00
:1006F00011F02196F2CFCE01DF91CF911F910F9192
:100700000895CF93DF93EC01888D8823B9F0AA89EF
:10071000BB89E889F9898C9185FD03C0808186FDBC
:100720000DC00FB607FCF7CF8C9185FFF2CF80810B
:1007300085FFEDCFCE010E94F702E9CFDF91CF9187
:1007400008952091CF01260F3327331F2132310521
:10075000ECF420916502FC0190E080E0243069F027
:1007600082E00895A091CF012191AC0141555E4FE7
:10077000A40FB52FB11D2C930196861798F3809185
:10078000CF01680F6093CF0180E0089581E0089564
:100790001092650281E08093640210923F0261E052
:1007A00082E10E94B50161E083E10E94B501E9EBBD
:1007B000F0E080818E7F808380818D7F808388E4DC
:1007C0008093B80085E48093BC000895CF93DF93B5
:1007D00091E09093AE018823B9F0C091B800D09118
:1007E000BA008091BC008A7B8093BC0060E082E10B
:1007F0000E94B50160E083E10E94B5010E94C80338
:10080000D093BA00C093B800DF91CF9108958F9232
:100810009F92AF92BF92CF92DF92EF92FF920F938F
:100820001F93CF93DF93D0918E02D13208F0D7C0BF
:10083000182FC0918D020E9414026B017C018091DF
:10084000650281116BC082E080936502109364029F
:100850008FEF8093630210926202D0936102ADE643
:10086000B2E0E1E4F2E080E0D81391C010924002DF
:1008700080914002CC0FC82BC093400280913F0270
:10088000813009F088C010923F020E9414026B016F
:100890007C01809140028093BB008091670290911F
:1008A0006802A0916902B0916A02892B8A2B8B2B76
:1008B000A1F00E9414020091670210916802209139
:1008C000690230916A026C197D098E099F09061729
:1008D00017072807390708F442C08091BC0083FD40
:1008E000D8CF85EC8093BC000E9414026B017C0180
:1008F00080916502823009F450C0809163028F3F7D
:1009000009F46FC080916302803209F46CC0809159
:100910006302803309F469C084E026C080916702D5
:1009200090916802A0916902B0916A02892B8A2B8A
:100930008B2B09F484CF0E94140280906702909060
:100940006802A0906902B0906A026C197D098E0954
:100950009F0986169706A806B90608F070CF809101
:1009600066020E94E60385E010926C0210928E02ED
:1009700010926B02DF91CF911F910F91FF90EF903A
:10098000DF90CF90BF90AF909F908F9008959D91F2
:1009900091938F5F69CF85EEA5CF8091670290918B
:1009A0006802A0916902B0916A02892B8A2B8B2B75
:1009B00009F49ECF0E941402009167021091680210
:1009C0002091690230916A026C197D098E099F0994
:1009D000061717072807390708F08ACFC0CF81E02C
:1009E000C3CF80E0C1CF82E0BFCF83E0BDCFCF9245
:1009F000DF92EF92FF920F931F93CF93DF93D82F45
:100A0000C62F613208F098C00E9414026B017C016D
:100A10008091650281116BC081E0809365028093B3
:100A200064029FEF90936302109262029C0F909376
:100A300061028093400280914002DD0FD82BD09359
:100A4000400280913F02813009F078C010923F024D
:100A50000E9414026B017C01809140028093BB00D4
:100A60008091670290916802A0916902B0916A0238
:100A7000892B8A2B8B2BA1F00E9414020091670214
:100A8000109168022091690230916A026C197D0907
:100A90008E099F09061717072807390708F448C069
:100AA0008091BC0083FDD8CF85EC8093BC000E9470
:100AB00014026B017C0180916502813009F440C011
:100AC000809162028C1710F4C0916202E1E4F2E0BE
:100AD000AFE1B2E080E08C1355C08C2FDF91CF9155
:100AE0001F910F91FF90EF90DF90CF90089580912C
:100AF000670290916802A0916902B0916A02892B05
:100B00008A2B8B2B09F484CF0E9414020091670278
:100B1000109168022091690230916A026C197D0976
:100B20008E099F09061717072807390708F070CFA5
:100B3000809166020E94E603C0E0CFCF85EEB5CF7C
:100B40008091670290916802A0916902B0916A0257
:100B5000892B8A2B8B2B09F4AECF0E9414020091B3
:100B60006702109168022091690230916A026C1943
:100B70007D098E099F09061717072807390708F00E
:100B80009ACFD6CF91919D938F5FA5CF0895E09195
:100B9000F7018091F601E81730F4F0E0E15EFD4FD7
:100BA000808190E008958FEF9FEF08959091F70175
:100BB0008091F6012FEF3FEF981748F4E92FF0E00E
:100BC000E15EFD4F208130E09F5F9093F701C90106
:100BD00008958091F6019091F701891B990B089572
:100BE000CF92DF92EF92FF920F931F93CF93DF93F9
:100BF0007C01CB018A0120916B02222389F0EB0159
:100C00006B01C40ED51ECC15DD0569F06991D701C5
:100C1000ED91FC910190F081E02DC7010995F3CF92
:100C2000642F0E94A103C801DF91CF911F910F9102
:100C3000FF90EF90DF90CF900895CF93DF931F92B6
:100C4000CDB7DEB7698320916B022223F9F02091A2
:100C50008E02203258F021E030E0FC013383228301
:100C600090E080E00F90DF91CF91089580916C0229
:100C7000E82FF0E0E359FD4F998190838F5F8093D7
:100C80006C0280938E0281E090E0ECCF61E0CE01B7
:100C900001960E94A103F7CF90E080E008950F93A2
:100CA0001F93CF93DF93EC01142F052F89819A8135
:100CB0002B8131E030936B0220938D0210926C02F5
:100CC00010928E02DC01ED91FC910190F081E02DFB
:100CD000099589819A81DC01ED91FC910190F08167
:100CE000E02D602F099589819A81DC01ED91FC91BD
:100CF0000190F081E02D612F099581E00E940704A9
:100D00008883DF91CF911F910F9108951F93CF9307
:100D1000DF93EC01142F89819A812B8131E030938C
:100D20006B0220938D0210926C0210928E02DC01F5
:100D3000ED91FC910190F081E02D099589819A81D6
:100D4000DC01ED91FC910190F081E02D612F09957E
:100D500081E00E9407048883DF91CF911F9108955D
:100D6000FC0101900020E9F73197AF01481B590BB6
:100D7000BC018FE892E00C9479028F929F92AF921F
:100D8000BF920F931F93CF93DF93CDB7DEB7A19799
:100D90000FB6F894DEBF0FBECDBF19A2423008F4E3
:100DA0004AE08E010F5D1F4F842E912CB12CA12C97
:100DB000A50194010E943E19E62FB901CA01EA304B
:100DC000F4F4E05DD801EE938D01232B242B252B29
:100DD00079F790E080E0109719F0CD010E94B006FD
:100DE000A1960FB6F894DEBF0FBECDBFDF91CF91B5
:100DF0001F910F91BF90AF909F908F900895E95CE5
:100E0000E1CFCF93DF930E946603EC018EE291E085
:100E10000E94B0068C0F9D1FDF91CF9108954F92D5
:100E20005F926F927F928F929F92AF92BF92CF927A
:100E3000DF92EF92FF920F931F93CF936B017C0190
:100E4000742EAC019B010E940F1C882399F081E352
:100E500091E0CF911F910F91FF90EF90DF90CF9095
:100E6000BF90AF909F908F907F906F905F904F90CA
:100E70000C94B00646015701E894B7F82FEF3FEF06
:100E80004FE75FE7C501B4010E940F1C81110DC03F
:100E90002FEF3FEF4FE75FE7C501B4010E94DC1978
:100EA00018161CF485E391E0D4CF2FEF3FEF4FE706
:100EB0005FE4C701B6010E949D1B18161CF489E36C
:100EC00091E0C7CF2FEF3FEF4FE75FECC701B601CF
:100ED0000E94DC1987FDF3CF20E030E0A901C701B3
:100EE000B6010E94DC1910E000E087FF0AC06DE245
:100EF0008FE892E00E9419038C01F7FAF094F7F85A
:100F0000F094C0E060E070E080E09FE37C1641F088
:100F100020E030E040E251E40E94E119CF5FF6CFDB
:100F2000A70196010E9470192B013C010E945A1AD8
:100F30004B015C014AE00E94BD067C01E00EF11EFF
:100F4000CC23C1F1C501B4010E94891A9B01AC01F7
:100F5000C301B2010E946F194B015C016EE28FE880
:100F600092E00E941903E80EF91EC15018F120E02A
:100F700030E040E251E4C501B4010E94A21B2B0104
:100F80003C010E945A1A4B01B12CA12C4AE0C50128
:100F9000B4010E94BD06E80EF91EC501B4010E940D
:100FA000891A9B01AC01C301B2010E946F194B0168
:100FB0005C01DBCFC701CF911F910F91FF90EF90A4
:100FC000DF90CF90BF90AF909F908F907F906F9069
:100FD0005F904F900895CF93DF9342E00E940F07F8
:100FE000EC018EE291E00E94B0068C0F9D1FDF9114
:100FF000CF9108950F931F93CF93DF93EC018981D5
:101000009A812B8131E030936B0220938D021092F4
:101010006C0210928E02DC01ED91FC910190F08146
:10102000E02D099581E00E940704888362E08B81AE
:101030000E94F7041092F7018093F60189819A814A
:10104000DC01ED91FC910284F385E02D099500E02F
:10105000182F89819A81DC01ED91FC910284F3853E
:10106000E02D0995802B912BDF91CF911F910F914E
:101070000895CF93DF93EC0189819A812B8131E030
:1010800030936B0220938D0210926C0210928E02AC
:10109000DC01ED91FC910190F081E02D099581E05A
:1010A0000E940704888361E08B810E94F7041092FC
:1010B000F7018093F60189819A81DC01ED91FC9121
:1010C0000284F385E02D0995DF91CF910895CF93A8
:1010D000DF93EC01462F416060E00E9486060E948B
:1010E0006B0278876F8363E1CE010E9439088770B5
:1010F00089F48C819D81892BB1F30E946B022F8131
:101100003885621B730B8C819D818617970758F772
:1011100080E00BC041E06BE0CE010E94860640E01B
:1011200060E0CE010E94860681E0DF91CF910895B4
:101130008F929F92AF92BF92CF92DF92EF92FF92E7
:101140000F931F93CF93DF936C017B01EA0160E55E
:101150000E9439088F5F880F90E09983888366E446
:10116000C6010E943908082F10E00F5F1F4F1D8332
:101170000C83A881B0E020E03FE24AE350E00E9407
:101180002B196C507E4F8F4F9F4F38EE832E33E0DC
:10119000932EA12CB12CA50194010E943E19D801D7
:1011A0000E9436196C507E4F8F4F9F4FA5019401BE
:1011B0000E943E192A873B874C875D8761E5C601FF
:1011C0000E94FA078C01112702C0000F111F9A9587
:1011D000E2F70F5F1F4F1F830E83A881B0E020E06E
:1011E0003FE24AE350E00E942B196C507E4F8F4F34
:1011F0009F4FA50194010E943E19D8010E942B190E
:101200006C507E4F8F4F9F4FA50194010E943E1955
:101210002E873F87488B598B60E7C6010E943908AB
:101220008F5F880F90E09B838A8361E7C6010E94ED
:10123000FA079C01992702C0880F991F3A95E2F797
:10124000019699878887F7012381222331F02E8127
:101250003F81821B930B99878887AA81B0E020E0A9
:101260003FE24AE350E00E942B196C507E4F8F4FB3
:101270009F4F28EEC22E23E0D22EE12CF12CA701A5
:1012800096010E943E19A885B9850E942B196C50C1
:101290007E4F8F4F9F4FA70196010E943E192A8BC8
:1012A0003B8B4C8B5D8BDF91CF911F910F91FF900A
:1012B000EF90DF90CF90BF90AF909F908F90089568
:1012C000CF93DF93EB0161E00E94390884FB9927FB
:1012D00090F9988383FB992790F99A8382FB992749
:1012E00090F9998386FB992790F99B83881F88271B
:1012F000881F8C83DF91CF9108952F923F924F9258
:101300005F926F927F928F929F92AF92BF92CF9295
:10131000DF92EF92FF920F931F93CF93DF93CDB79E
:10132000DEB76B970FB6F894DEBF0FBECDBF8C0152
:101330004A015B01BE01695E7F4F0E946009AE01F8
:101340004F5F5F4FBE01695E7F4FC8010E949808E2
:101350008F89882309F494C08B859C85AD85BE85D3
:101360008C57924FAF4FBF4F298D222309F48DC068
:101370004B855C856D857E854E545D4F6F4F7F4FED
:10138000440F551F661F771F840F951FA61FB71F99
:101390003A8C332061F04F85588969897A894C5697
:1013A0005D4F6F4F7F4F840F951FA61FB71F2B8C6C
:1013B000222009F4A1C06C017D0126E2C20E22E0C8
:1013C000D21EE11CF11C8C149D04AE04BF0408F471
:1013D00096C0AB81B0E020E03FE24AE350E00E94DB
:1013E0002B192B013C01E4EF4E0EE1E05E1E611C67
:1013F000711CA50194012C193D094E095F09A8EE45
:10140000B3E00E942B196B017C01C301B20120EDF6
:1014100037E040E050E00E943E19C20ED31EE41EA9
:10142000F51EC301B20128EE33E040E050E00E9417
:101430003E19C701B6010E943E19332031F08F8159
:101440009885280F391F411D511D21153105410572
:10145000510509F44EC0BA01A90141505109610971
:10146000710990E080E02A013B0144244528462888
:101470004728C1F076956795579547950196F3CF24
:1014800086E39BE0A0E0B0E06FCF288D222309F433
:101490007FCF4B855C856D857E854C565D4F6F4F4C
:1014A0007F4F72CF982F8827482B592B61E7C801AF
:1014B0000E944F06F80182869386A486B586822D07
:1014C0006B960FB6F894DEBF0FBECDBFDF91CF9104
:1014D0001F910F91FF90EF90DF90CF90BF90AF9052
:1014E0009F908F907F906F905F904F903F902F9044
:1014F000089550E040E0DACF22242394E0CF212C5D
:10150000DECF0F931F93CF93DF93EC010E946B020A
:1015100078876F8363E1CE010E9439088770C9F430
:101520008C819D81892BB1F30E946B022F813885BC
:10153000621B730B8C819D818617970758F781E09A
:101540008E830FEF1FEFC801DF91CF911F910F9195
:1015500008956EE1CE010E94FA078C0141E06BE034
:10156000CE010E948606EFCFCF92DF92EF92FF92DC
:10157000CF93DF93EC010D960E94810ABC0190E0AD
:1015800080E00E94891A20E030E040E251E40E94AD
:10159000E11920E030E040E45FE30E946F196B0145
:1015A0007C018DE391E00E94B006C701B6010E9464
:1015B000EB0720E030E040E250E4C701B6010E94B2
:1015C0006F1969877A878B879C87DF91CF91FF900E
:1015D000EF90DF90CF900895CF92DF92EF92FF923D
:1015E000CF93DF93EC010D960E94810ABC0190E03D
:1015F00080E00E94891A20E030E040E251E40E943D
:10160000E11920E030E040E45FE30E946F196B01D4
:101610007C0120E030E0A9010E94DC198823C1F0A0
:10162000A701960169857A858B859C850E949D1B03
:10163000181674F4A7019601C701B6010E94DC19BF
:10164000811106C081E08C83CD82DE82EF82F88634
:10165000C701B601DF91CF91FF90EF90DF90CF905F
:1016600008954F925F926F927F928F929F92AF9266
:10167000BF92CF92DF92EF92FF920F931F93CF937F
:10168000DF93CDB7DEB7AA970FB6F894DEBF0FBED3
:10169000CDBF2B013C018D8E9E8EAF8EB8A2C9A20C
:1016A000DAA2EBA2FCA20DA31EA32FA338A749A781
:1016B0005AA78EE0FE017D96DE01119601900D92F3
:1016C0008A95E1F78BE190E00E942A1C2EE0FE0152
:1016D0003196DE011F9601900D922A95E1F7FC01EB
:1016E000408251826282738214821582168217822E
:1016F000108640E050E060E272E4418752876387E1
:1017000074872EE0FE013F96DC011D9601900D923C
:101710002A95E1F7AA960FB6F894DEBF0FBECDBFAB
:10172000DF91CF911F910F91FF90EF90DF90CF90BD
:10173000BF90AF909F908F907F906F905F904F90F1
:10174000089585ED8093BC008091670290916802B6
:10175000A0916902B0916A020796A11DB11D23E014
:10176000B695A795979587952A95D1F72091BC00B6
:1017700024FD03C0109265020895409167025091C4
:1017800068026091690270916A02452B462B472BD3
:1017900069F30097A105B10541F02AE22A95F1F716
:1017A00000C00197A109B109E1CF809166020C94B4
:1017B000E6031F920F920FB60F9211242F933F93BF
:1017C0008F939F93AF93BF938091170290911802CC
:1017D000A0911902B0911A023091160223E0230F52
:1017E0002D3758F50196A11DB11D20931602809347
:1017F000170290931802A0931902B0931A028091D5
:101800001B0290911C02A0911D02B0911E02019634
:10181000A11DB11D80931B0290931C02A0931D0279
:10182000B0931E02BF91AF919F918F913F912F91E5
:101830000F900FBE0F901F90189526E8230F029669
:10184000A11DB11DD2CF1F920F920FB60F9211247E
:101850002F933F934F935F936F937F938F939F93B8
:10186000AF93BF93EF93FF938FE892E00E94F7024C
:10187000FF91EF91BF91AF919F918F917F916F9168
:101880005F914F913F912F910F900FBE0F901F903E
:1018900018951F920F920FB60F9211242F938F93CA
:1018A0009F93EF93FF93E0919F02F091A0028081BC
:1018B000E091A502F091A60282FD1BC0908180916B
:1018C000A8028F5F8F732091A902821741F0E091E7
:1018D000A802F0E0E157FD4F958F8093A802FF9199
:1018E000EF919F918F912F910F900FBE0F901F90AE
:1018F00018958081F4CF1F920F920FB60F9211248A
:101900002F933F934F935F936F937F938F939F9307
:10191000AF93BF93EF93FF938091B900887F803698
:1019200009F44AC0F0F5883209F4A7C018F58031EF
:1019300009F49BC0B8F4882309F4F9C0883009F48D
:1019400094C0FF91EF91BF91AF919F918F917F9143
:101950006F915F914F913F912F910F900FBE0F901C
:101960001F901895883109F488C0803251F7809310
:10197000630214C0803409F49DC040F48033B9F38D
:101980008833F9F68093630285ECB0C0803509F4A2
:1019900085C0883509F496C0883499F60E94A10B59
:1019A000D0CF883909F48CC038F5883729F050F445
:1019B000883611F0803729F683E080936502109213
:1019C000F10157C0883809F47BC0803919F080389C
:1019D00009F0B7CF8091F101803208F071C0E09139
:1019E000F10181E08E0F8093F1018091BB00F0E066
:1019F000EF52FE4F80833DC0803B39F0E0F4803AE7
:101A000009F479C0883A09F09CCF84E0809365029C
:101A10001092D0011092CF01E091F401F091F50104
:101A200009958091CF0181110FC081E08093CF0192
:101A30001092AF0109C0803C09F4A6CF883C09F49C
:101A4000A3CF883B09F07DCFE091D00181E08E0FDC
:101A50008093D001F0E0E155FE4F80818093BB0080
:101A60009091D0018091CF0129C080914002809354
:101A7000BB0085EC8093BC0064CF909162028091A2
:101A80006102981758F5E091620281E08E0F809311
:101A90006202F0E0EF5BFD4F8081E9CFE0916202EE
:101AA00081E08E0F809362028091BB00F0E0EF5BDB
:101AB000FD4F808390916202809161029817C8F275
:101AC00085E8D8CFE091620281E08E0F80936202B8
:101AD0008091BB00F0E0EF5BFD4F8083809164025A
:101AE00081115CCF81E080933F0284EA8093BC0047
:101AF0001092650226CF85EC8093BC00109265029F
:101B00008091F101803230F4E091F101F0E0EF5288
:101B1000FE4F10826091F10170E0E091F201F091CE
:101B2000F30181ED91E009951092F1010ACF109235
:101B3000630234CFEFE8F2E01382128288EE93E082
:101B4000A0E0B0E084839583A683B7832EE031E0E4
:101B50003183208325EC30E03587248724EC30E086
:101B60003787268720EC30E0318B208B21EC30E06A
:101B7000338B228B22EC30E0358B248B26EC30E04B
:101B8000378B268B118E128E138E148EECE2F3E0BF
:101B90001382128284839583A683B78380E291E0C7
:101BA000918380838CE0E8E3F3E0DF011D928A9566
:101BB000E9F70895CF93DF93CDB7DEB7CB54D109C2
:101BC0000FB6F894DEBF0FBECDBF789484B58260A7
:101BD00084BD84B5816084BD85B5826085BD85B5D1
:101BE000816085BD80916E00816080936E0010924F
:101BF00081008091810082608093810080918100CA
:101C0000816080938100809180008160809380005A
:101C10008091B10084608093B1008091B0008160B8
:101C20008093B00080917A00846080937A008091E4
:101C30007A00826080937A0080917A00816080933C
:101C40007A0080917A00806880937A001092C100B7
:101C5000E0919F02F091A00282E08083E0919B02DC
:101C6000F0919C021082E0919D02F0919E028FEC17
:101C700080831092A702E091A302F091A40286E073
:101C80008083E091A102F091A20280818061808333
:101C9000E091A102F091A202808188608083E091AE
:101CA000A102F091A202808180688083E091A1026C
:101CB000F091A20280818F7D80831092F7011092B3
:101CC000F60110926C0210928E020E94C80387E700
:101CD00092E09093F5018093F40188E792E090936D
:101CE000F3018093F20180E091E00E9401071FAEB2
:101CF0001EAE22961FAE1EAE229788E023968FAFAF
:101D0000239789E024968FAF249761E088E00E94B2
:101D1000E30160E088E00E94B50161E089E00E9493
:101D2000E30160E089E00E94B50160E088E00E9484
:101D3000B50160E089E00E94B5016AE070E080E0F2
:101D400090E00E94390261E088E00E94B50161E004
:101D500089E00E94B5016AE070E080E090E00E94B6
:101D6000390260E089E00E94B5019E012E5B3F4F81
:101D70007901CE01CE963C01190192E0290E311C69
:101D80000CE213E088248394912CD7015D907D01AF
:101D900061E0852D0E94B5016AE070E080E090E08E
:101DA0000E9439021FA30EA3B9E2B8A71AA619A66A
:101DB0001BA68091F801C82ED12CE0E3CE0ED11CD9
:101DC00050E3B52EB80E4B2D4F776AE8CE018596BD
:101DD0000E948606B8A6C6019927C816D90679F0CA
:101DE00086E591E00E94B006652D70E090E080E00D
:101DF0004AE00E94BD068EE291E00E94B00660ECCF
:101E0000CE0185960E9439088E3E09F0B1C069E87E
:101E1000CE0185960E943908482F416069E8CE01BD
:101E200085960E94860640E068E8CE0185960E946D
:101E3000860641E060E8CE0185960E94860641E074
:101E40006FEFCE0185960E94860640E060E0CE01ED
:101E500085960E94860661E9CE0185960E94390822
:101E60008EA741E060E0CE0185960E94860640E0A4
:101E70006FEFCE0185960E94860640E060E8CE01B5
:101E800085960E94860660E6CE0185960E943908F6
:101E9000482F426160E6CE0185960E94860640E2A8
:101EA00050E064E4CE0185960E944F064FEF61E05A
:101EB000CE0185960E94860641E060E8CE018596B7
:101EC0000E94860641E06FEFCE0185960E9486064D
:101ED00040E060E0CE0185960E94860646E06FEF06
:101EE000CE0185960E94860663E8CE0185960E9403
:101EF0003908482F446063E8CE0185960E94860623
:101F000047E06FEFCE0185960E94860641E061E8CA
:101F1000CE0185960E94860641E060E8CE01859656
:101F20000E9486064BE664E9CE0185960E948606ED
:101F300040E063E8CE0185960E9486060E946B020F
:101F40007DA76CA763E8CE0185960E9439088111B0
:101F50001FC089A59AA5892BA9F30E946B022CA505
:101F60003DA5621B730B89A59AA58617970750F7A5
:101F700086E891E00E94B006652D70E090E080E078
:101F80004AE00E94BD068EE291E00E94B00674C352
:101F900041E063E8CE0185960E94860662E9CE01A3
:101FA00085960E943908F82FFF772596FFAF259771
:101FB000881F8827881F29968FAF299740E061E8FE
:101FC000CE0185960E94860646E06FEFCE0185968B
:101FD0000E94860663E8CE0185960E943908482F44
:101FE0004B7F63E8CE0185960E94860641E06FEF45
:101FF000CE0185960E94860641E060E0CE0185967E
:102000000E94860640E06FEFCE0185960E9486060C
:1020100040E060E8CE0185960E9486068EA19FA1D1
:1020200028A531E030936B0220938D0210926C0250
:1020300010928E02DC01ED91FC910190F081E02D77
:1020400060EB099581E00E9407048DA366E088A5F6
:102050000E94F7041092F7018093F6016E01B3E33A
:10206000CB0ED11C560147E0442E4A94442069F01F
:102070008EA19FA1DC01ED91FC910284F385E02DFE
:102080000995F50181935F01F0CF41E06FEFCE013B
:1020900085960E94860640E06FE4CE0185960E94F8
:1020A00086064CE26EE4CE0185960E94860640E0EC
:1020B0006FEFCE0185960E94860644EB66EBCE015B
:1020C00085960E9486062996FFAD29976CE0F1114E
:1020D00001C060E090E080E0E82FE695E695E695A7
:1020E000F0E0D601AE0FBF1F2C91482F4770861726
:1020F00028F025963FAD2597391335C0EC0DFD1D11
:10210000D40102C0AA0FBB1F4A95E2F7AD0140956A
:10211000242320838F5F8033F9F68EA19FA128A509
:1021200031E030936B0220938D0210926C0210927A
:102130008E02DC01ED91FC910190F081E02D60EBCD
:10214000099537E0B32EBA94BB20B9F08EA19FA1B8
:10215000F60161916F01DC01ED91FC910190F0813C
:10216000E02D0995F0CF30E002C0359527954A95CE
:10217000E2F720FFCFCF9F5FCDCF81E00E94070421
:102180008DA341E06FEFCE0185960E94860640E068
:1021900060E0CE0185960E94860640E06FEFCE019A
:1021A00085960E94860640E069E0CE0185960E94F1
:1021B000860640E060E1CE0185960E94860640E0FA
:1021C00061E1CE0185960E94860641E064E2CE017F
:1021D00085960E9486064FEF65E2CE0185960E94A5
:1021E000860640E065E7CE0185960E94860641E0BE
:1021F0006FEFCE0185960E9486064CE26EE4CE011A
:1022000085960E94860640E068E4CE0185960E948D
:10221000860640E260E3CE0185960E94860640E095
:102220006FEFCE0185960E94860649E060E3CE01FD
:1022300085960E94860640E064E5CE0185960E9460
:10224000860644E061E3CE0185960E94860643E05F
:1022500062E3CE0185960E94860643E860E4CE01E3
:1022600085960E94860645E266E4CE0185960E9428
:10227000860640E060E6CE0185960E94860640E034
:1022800067E2CE0185960E94860646E060E5CE01B3
:1022900085960E94860640E061E5CE0185960E9403
:1022A000860646E962E5CE0185960E94860648E0EC
:1022B00066E5CE0185960E94860640E367E5CE017D
:1022C00085960E94860640E061E6CE0185960E94D2
:1022D000860640E062E6CE0185960E94860640E0D2
:1022E00064E6CE0185960E94860640E065E6CE0152
:1022F00085960E94860640EA66E6CE0185960E9493
:10230000860641E06FEFCE0185960E94860642E385
:1023100062E2CE0185960E94860644E167E4CE0122
:1023200085960E9486064FEF69E4CE0185960E944D
:10233000860640E06AE4CE0185960E94860640E06B
:102340006FEFCE0185960E9486064AE06AE7CE01CD
:1023500085960E94860640E06BE7CE0185960E9436
:10236000860641E268E7CE0185960E94860641E036
:102370006FEFCE0185960E94860644E363E2CE01AC
:1023800085960E94860640E062E4CE0185960E9412
:1023900086064FEF64E4CE0185960E94860646E2EB
:1023A00065E4CE0185960E94860645E066E4CE018E
:1023B00085960E94860640E460E4CE0185960E94E0
:1023C000860646E06EE0CE0185960E9486064AE1CA
:1023D00060E2CE0185960E94860640E463E4CE0169
:1023E00085960E94860640E06FEFCE0185960E949A
:1023F000860643E064E3CE0185960E94860644E4A7
:1024000065E3CE0185960E94860641E06FEFCE011E
:1024100085960E94860644E061E3CE0185960E947F
:10242000860649E06BE4CE0185960E94860645E06B
:102430006CE4CE0185960E94860644E06DE4CE01F0
:1024400085960E94860640E06FEFCE0185960E9439
:10245000860640E064E4CE0185960E94860640E24E
:1024600065E4CE0185960E94860648E067E4CE01C9
:1024700085960E94860648E268E4CE0185960E9411
:10248000860640E067E6CE0185960E94860644E017
:1024900060E7CE0185960E94860641E061E7CE01A5
:1024A00085960E9486064EEF62E7CE0185960E94D1
:1024B000860640E066E7CE0185960E94860640E0EB
:1024C00067E7CE0185960E94860641E06FEFCE0158
:1024D00085960E94860641E06DE0CE0185960E94B9
:1024E000860640E06FEFCE0185960E94860641E0A9
:1024F00060E8CE0185960E94860648EF61E0CE0135
:1025000085960E94860641E06FEFCE0185960E9477
:10251000860641E06EE8CE0185960E94860641E07F
:1025200060E0CE0185960E94860640E06FEFCE0106
:1025300085960E94860640E060E8CE0185960E945E
:10254000860644E06AE0CE0185960E94860664E82D
:10255000CE0185960E943908482F4F7E64E8CE014F
:1025600085960E94860641E06BE0CE0185960E942A
:102570008606BE01675C7F4FCE0185960E9460098A
:10258000AE014F5F5F4FBE01675C7F4FCE01859606
:102590000E94980889AD882309F436C18B859C85F3
:1025A000AD85BE858C57924FAF4FBF4F2BAD2223C9
:1025B00009F42FC14B855C856D857E854E545D4F3A
:1025C0006F4F7F4F440F551F661F771F840F951F56
:1025D000A61FB71F2CAD222361F04F85588969894A
:1025E0007A894C565D4F6F4F7F4F840F951FA61F02
:1025F000B71F2DAD222361F04B895C896D897E89DF
:102600004A5D5D4F6F4F7F4F840F951FA61FB71F09
:102610008FA798ABA9ABBAAB48EE61E0CE01859627
:102620000E9486064FA558A969A97AA9CE01859668
:102630000E947D0941E061E0CE0185960E948606F8
:1026400060E4CE0185960E946708882309F490CC47
:1026500042E061E0CE0185960E94860660E0CE01F0
:1026600085960E946708882309F482CC48EE61E0D1
:10267000CE0185960E9486068091F8018F5F809337
:10268000F80140E25EE460E070E0CE0185960E94D1
:102690007D0941E060E8CE0185960E94860641E012
:1026A0006FEFCE0185960E94860640E060E0CE0185
:1026B00085960E9486064EA561E9CE0185960E9408
:1026C000860641E060E0CE0185960E94860640E0E5
:1026D0006FEFCE0185960E94860640E060E8CE014D
:1026E00085960E94860642E060E0CE0185960E94B3
:1026F00086068EE0FE01B596DE01119601900D92E0
:102700008A95E1F78EE090E00E942A1C2EE0FE01FF
:102710003196DE01579601900D922A95E1F72EE051
:10272000FE017796DC0101900D922A95E1F7F30105
:10273000819391933F012E143F0409F026CBEEAD17
:10274000FFAD80809180A280B380C480D580E68078
:10275000F78000851185228533854485558560E0A5
:1027600070E08AE092E40E94310B90931302809310
:1027700012022296EEADFFAD229780809180A2805A
:10278000B380C480D580E680F780008511852285DE
:1027900033854485558560E070E08CEC91E40E94BF
:1027A000310B909315028093140282EE90E00E9408
:1027B00001070091120210911302D8011996CD90D1
:1027C000DD90ED90FC901C9720E030E040E85FE366
:1027D000C701B6010E94DC19181694F420E030E01D
:1027E00040E252E4C701B6010E94DC19882341F09F
:1027F000A7019601C701B6010E94DC198823C9F020
:10280000C8010E94B40AD5CF86E39BE0A0E0B0E007
:10281000CDCE2AAD222309F4DDCE4B855C856D85B6
:102820007E854C565D4F6F4F7F4FD0CEC8010E94C2
:10283000B40A0091140210911502F801C184D284E7
:10284000E384F48420E030E040E85FE3C701B601B0
:102850000E94DC19181654F720E030E040E252E400
:10286000C701B6010E94DC19882301F3E09012022F
:10287000F0901302D70119966D917D918D919C91E5
:102880001C979B01AC010E94DC198111CFCF8AEC0F
:1028900090E00E946603F7016185728583859485C7
:1028A00042E00E940F0788EB90E00E946603E091EF
:1028B0001402F091150261857285838594850E94CA
:1028C000EB0783EB90E00E940107A0901202B0900A
:1028D0001302D50119966C9019971A967C901A9745
:1028E0001B968C901B971C969C90C0901402D090C5
:1028F0001502F601E184F284038514859301A40195
:10290000B701C8010E949D1B181614F473018401BD
:10291000C701D801F50181879287A387B487F601A3
:1029200081879287A387B4878093000190930101E8
:10293000A0930201B09303018EE890E00E9401078A
:1029400061E083E00E94E30161E082E00E94E30134
:1029500083E08093380382E08093390388EC90E031
:1029600090933B0380933A0310923D0310923C03F3
:1029700010923F0310923E031092410310924003C5
:10298000109242031092430360E085E00E94E3014D
:1029900060E085E00E94E30161E0809139030E94DC
:1029A000B50160E0809138030E94B5010E94910159
:1029B000892BB9F461E0809138030E94B50169E088
:1029C00070E080E090E00E94390260E0809138037E
:1029D0000E94B50169E070E080E090E00E94390259
:1029E000E5CF68EE73E080E090E00E94390260E09D
:1029F000809139030E94B50110E000E00E9491012E
:102A0000892BC9F461E0809138030E94B50169E027
:102A100070E080E090E00E94390260E0809138032D
:102A20000E94B50169E070E080E090E00E94390208
:102A30000F5F1F4FE3CF10934103009340031093A8
:102A40003D0300933C0388E690E00E94660360919A
:102A500040037091410390E080E04AE00E94BD068F
:102A60008EE291E00E94B0068DE790E00E9401079F
:102A70008091FD0181110DC00E9414026093F90143
:102A80007093FA018093FB019093FC01F1E0F093C5
:102A9000FD01809143038111F2C10E9414026093F1
:102AA000F9017093FA018093FB019093FC01E0918E
:102AB0001402F09115028481882371F0E0911202D2
:102AC000F09113028481811107C081E092E00E949D
:102AD000010721E020931102E0911202F09113020C
:102AE00084818823C1F0809111028823A1F014828F
:102AF0001582168217821086E0911402F091150259
:102B00001482158216821782108685ED91E00E944C
:102B1000010710921102E0911202F09113028481D8
:102B2000811151C0C184D284E384F4848091120263
:102B3000909113020E94EC0A00911202109113026C
:102B4000D80114968C911497882309F452C31596D2
:102B50008C90159716969C9016971796AC90179791
:102B60001896BC909401A501B601C7010E949D1B57
:102B7000181614F46401750120E030E040E05FE3D2
:102B8000B601C7010E9470199401A5010E949D1B06
:102B9000181664F2C601D701F80185839683A783CE
:102BA000B08782EB91E00E946603D80115966D9183
:102BB0007D918D919C91189742E00E940F078EEABB
:102BC00091E00E940107E0911402F09115028481C6
:102BD000811148C0C184D284E384F48480911402BA
:102BE000909115020E94EC0A0091140210911502B6
:102BF000F8018481882309F4FCC285809680A7802F
:102C0000B0849401A501B601C7010E949D1B18164E
:102C100014F46401750120E030E040E05FE3B601A8
:102C2000C7010E9470199401A5010E949D1B1816EE
:102C3000ACF2C601D701F80185839683A783B087DC
:102C40008AE891E00E946603D80115966D917D9106
:102C50008D919C91189742E00E940F0786E891E0C1
:102C60000E9401078CE591E00E94010788E491E051
:102C70000E94010780E491E00E946603E091120245
:102C8000F091130265817681878190850E94EB0720
:102C900087E391E00E946603E0911402F09115022F
:102CA00065817681878190850E94EB07E09114020F
:102CB000F091150200911202109113028080918010
:102CC000A280B3804580568067807084D8011596B5
:102CD0002D913D914D915C911897C301B2010E94D5
:102CE0006F1928966CAF7DAF8EAF9FAF2897A50167
:102CF0009401F80160817181828193810E946F1932
:102D00006B017C0120E030E0A9010E949D1B181698
:102D100024F0F7FAF094F7F8F094A70196012896BA
:102D20006CAD7DAD8EAD9FAD28970E94E1196B0112
:102D30007C01AC019B01C501B4010E94A21BA3014F
:102D400092010E9470192B013C0120E030E0A901A2
:102D5000C701B6010E94DC1961E070E0882391F0A0
:102D600020E030E0A901C701B6010E949D1BA70128
:102D7000960118160CF05058C701B6010E94E119CF
:102D80000E94531A072E000C880B990B0E948B1A75
:102D900028966CAF7DAF8EAF9FAF28972DEC3CECA3
:102DA0004CEF5FE30E94A21BA30192010E947019E5
:102DB0004B015C01C0900001D0900101E090020144
:102DC000F0900301C701B6010E94531A8B0122241F
:102DD0002394312CB801012E000C880B990B0E9412
:102DE0008B1AA50194010E94DC1987FD16C0662785
:102DF0007727601B710B072E000C880B990B0E9424
:102E00008B1AA70196010E9470199B01AC01C501A4
:102E1000B4010E94DC1987FF02C1FFEF2F1A3F0A9D
:102E2000B101032C000C880B990B0E948B1A2C9675
:102E30006CAF7DAF8EAF9FAF2C972DEC3CEC4CEF81
:102E40005FE30E94A21B28962CAD3DAD4EAD5FAD59
:102E500028970E94A21BA30192010E9470194B01A6
:102E60005C012C962CAD3DAD4EAD5FAD2C97C701EE
:102E7000B6010E94A21B0E94531A8B01ABCF0E9485
:102E800014020091F9011091FA012091FB01309197
:102E9000FC01601B710B820B930B0E94891A2DEBB6
:102EA00037E346E855E30E94A21B20E030E040E70C
:102EB00052E40E94E1196B017C016091420370E0D1
:102EC00090E080E00E948B1A9B01AC01C701B60123
:102ED0000E94A21B2B013C01C0903C03D0903D03FB
:102EE000E0903E03F0903F035601AE18BF08CE14A9
:102EF000DF0411F4B12CA12C60913A0370913B03D3
:102F000090E080E00E94891AA30192010E94A21B16
:102F10000E945A1A8B01A616B70608F485010115FE
:102F2000110509F4C4CD61E0CE14DF0408F460E0BB
:102F3000809139030E94B501B12CA12C61E08091F0
:102F400038030E94B5018BE396E00197F1F760E04A
:102F5000809138030E94B5018BE396E00197F1F769
:102F600095012F5F3F4F2017310709F056C0809120
:102F70003C0390913D03CE14DF0418F09501209599
:102F80003095820F931F90933D0380933C032091D3
:102F90003E0330913F038217930711F410924303CD
:102FA0008CE191E00E94660360913C0370913D03C7
:102FB00090E080E04AE00E94BD068EE091E00E9431
:102FC0006603609140037091410390E080E00E94AD
:102FD000891A9B01AC0160910001709101018091FF
:102FE0000201909103010E94E1196B017C01609143
:102FF0003C0370913D0390E080E00E94891A9B01A0
:10300000AC01C701B6010E94A21B42E00E940F075B
:103010008EE291E00E94B00640CD59018FCF810130
:1030200001501109B801110F880B990B0E948B1ADE
:103030002DEC3CEC4CE750E40E94A21B28962CADF2
:103040003DAD4EAD5FAD28970E94A21BA30192013A
:103050000E947019A70196010E94D11AA70196013A
:103060000E947019A70196010E94D11A962EA72ED0
:10307000B82E192F00FF0CC0262F372F482F592F9D
:10308000C701B6010E946F19962EA72EB82E192FD0
:103090008BE291E00E946603692D7A2D8B2D912F92
:1030A0000E94EB0720E030E040E450E4692D7A2DE7
:1030B0008B2D912F0E94DC1987FDA8C020E030E005
:1030C00040E450E46091000170910101809102019F
:1030D000909103010E946F19D62EE72EF82E092F2A
:1030E000292D3A2D4B2D512F0E94DC1987FD03C04D
:1030F000D92C7501012F8090000190900101A090C2
:103100000201B09003016D2D7E2D8F2D902F0E9416
:10311000531A6B017C0123E0C21AD108E108F108BF
:10312000C501B4010E94531AA70196010E94141C04
:103130006B017C0120E030E040E450E4C501B401C3
:103140000E946F190E94531A9B01AC012350310950
:1031500041095109C701B6010E940C19CA01B90100
:103160000E948B1A6B017C0180910902811117C0AA
:10317000609140037091410390E080E00E94891AC1
:10318000A50194010E94E119609305027093060263
:10319000809307029093080231E030930902209156
:1031A0000502309106024091070250910802C701C2
:1031B000B6010E94A21B0E945A1A70933F036093AB
:1031C0003E038EE18093420391E090934303E091AC
:1031D0001402F0911502148215821682178210864D
:1031E000E0911202F0911302148215821682178266
:1031F0001086A0E0B0E0AB2B09F43ACC0E94E302C9
:10320000882309F435CC0E94000032CCD12CE12C6B
:1032100080E4F82E00E46FCF052E97FB1EF4009497
:103220000E94231957FD07D00E943E1907FC03D0C6
:103230004EF40C94231950954095309521953F4FAD
:103240004F4F5F4F089590958095709561957F4F92
:103250008F4F9F4F08950E946019A59F900DB49FB6
:10326000900DA49F800D911D11240895B7FF0C941B
:103270002B190E942B19821B930B0895A1E21A2E81
:10328000AA1BBB1BFD010DC0AA1FBB1FEE1FFF1F0A
:10329000A217B307E407F50720F0A21BB30BE40B5A
:1032A000F50B661F771F881F991F1A9469F76095A1
:1032B0007095809590959B01AC01BD01CF0108955B
:1032C000A29FB001B39FC001A39F700D811D112467
:1032D000911DB29F700D811D1124911D08955058AC
:1032E000BB27AA270E9487190C94631B0E94551BB9
:1032F00038F00E945C1B20F039F49F3F19F426F44B
:103300000C94521B0EF4E095E7FB0C943E1BE92F46
:103310000E94741B58F3BA17620773078407950756
:1033200020F079F4A6F50C94961B0EF4E0950B2E84
:10333000BA2FA02D0B01B90190010C01CA01A00107
:103340001124FF27591B99F0593F50F4503E68F162
:103350001A16F040A22F232F342F4427585FF3CFA3
:10336000469537952795A795F0405395C9F77EF474
:103370001F16BA0B620B730B840BBAF09150A1F0BD
:10338000FF0FBB1F661F771F881FC2F70EC0BA0F43
:10339000621F731F841F48F4879577956795B795CB
:1033A000F7959E3F08F0B0CF9395880F08F09927C6
:1033B000EE0F9795879508950E941A1B08F481E0F7
:1033C00008950E94F5190C94631B0E945C1B58F031
:1033D0000E94551B40F029F45F3F29F00C943E1BDE
:1033E00051110C94971B0C94521B0E94741B68F390
:1033F0009923B1F3552391F3951B550BBB27AA27AE
:1034000062177307840738F09F5F5F4F220F331FE7
:10341000441FAA1FA9F335D00E2E3AF0E0E832D0AF
:1034200091505040E695001CCAF72BD0FE2F29D0B2
:10343000660F771F881FBB1F261737074807AB0784
:10344000B0E809F0BB0B802DBF01FF2793585F4FF9
:103450003AF09E3F510578F00C943E1B0C94971B5C
:103460005F3FE4F3983ED4F3869577956795B795DB
:10347000F7959F5FC9F7880F911D9695879597F9E6
:103480000895E1E0660F771F881FBB1F621773075F
:103490008407BA0720F0621B730B840BBA0BEE1F74
:1034A00088F7E09508950E945A1A6894B1110C9417
:1034B000971B08950E947C1B88F09F5798F0B92FA6
:1034C0009927B751B0F0E1F0660F771F881F991F59
:1034D0001AF0BA95C9F714C0B13091F00E94961B4A
:1034E000B1E008950C94961B672F782F8827B85F5A
:1034F00039F0B93FCCF3869577956795B395D9F7B1
:103500003EF490958095709561957F4F8F4F9F4FBA
:103510000895E89409C097FB3EF4909580957095C6
:1035200061957F4F8F4F9F4F9923A9F0F92F96E90F
:10353000BB279395F695879577956795B795F11184
:10354000F8CFFAF4BB0F11F460FF1BC06F5F7F4F21
:103550008F4F9F4F16C0882311F096E911C0772333
:1035600021F09EE8872F762F05C0662371F096E83C
:10357000862F70E060E02AF09A95660F771F881F0B
:10358000DAF7880F9695879597F908950E94551B4D
:1035900020F019F00E945C1B50F40C94521B0C9408
:1035A000971BE92F0E94741B88F35523B1F3E7FBA7
:1035B0006217730784079507A8F189F3E92FFF279E
:1035C00088232AF03197660F771F881FDAF7952F27
:1035D0005527442332F091505040220F331F441F8F
:1035E000D2F7BB27E91BF50B621B730B840BB109E8
:1035F000B1F222F4620F731F841FB11D31972AF0BC
:10360000660F771F881FBB1FEFCF9150504062F0AD
:1036100041F0882332F0660F771F881F9150504089
:10362000C1F793950C94441B8695779567959F5F9A
:10363000D9F7F7CF990F0008550FAA0BE0E8FEEF76
:1036400016161706E807F907C0F012161306E40766
:10365000F50798F0621B730B840B950B39F40A265F
:1036600061F0232B242B252B21F408950A2609F43D
:10367000A140A6958FEF811D811D089597F99F6741
:1036800080E870E060E008959F3F31F0915020F4B1
:10369000879577956795B795880F911D969587952E
:1036A00097F908959FEF80EC089500240A94161668
:1036B000170618060906089500240A941216130620
:1036C000140605060895092E0394000C11F48823AE
:1036D00052F0BB0F40F4BF2B11F460FF04C06F5FCA
:1036E0007F4F8F4F9F4F089557FD9058440F551FA0
:1036F00059F05F3F71F04795880F97FB991F61F074
:103700009F3F79F087950895121613061406551FEA
:10371000F2CF4695F1DF08C0161617061806991F56
:10372000F1CF86957105610508940895E894BB274B
:1037300066277727CB0197F908950E941A1B08F492
:103740008FEF08950E94B51B0C94631B0E94551BBC
:1037500038F00E945C1B20F0952311F00C943E1B66
:103760000C94521B11240C94971B0E94741B70F331
:10377000959FC1F3950F50E0551F629FF001729F16
:10378000BB27F00DB11D639FAA27F00DB11DAA1F25
:10379000649F6627B00DA11D661F829F2227B00D72
:1037A000A11D621F739FB00DA11D621F839FA00DFD
:1037B000611D221F749F3327A00D611D231F849F4D
:1037C000600D211D822F762F6A2F11249F575040A4
:1037D0009AF0F1F088234AF0EE0FFF1FBB1F661F1F
:1037E000771F881F91505040A9F79E3F510580F0E8
:1037F0000C943E1B0C94971B5F3FE4F3983ED4F36C
:10380000869577956795B795F795E7959F5FC1F78B
:10381000FE2B880F911D9695879597F908950E9424
:103820001A1B880B990B0895DB018F939F930E94BD
:103830002B19BF91AF91A29F800D911DA39F900D59
:10384000B29F900D11240895EE0FFF1F0590F49183
:10385000E02D09940F931F93CF93DF93823091054E
:1038600010F482E090E0E0914603F091470330E0ED
:1038700020E0B0E0A0E0309799F42115310509F47B
:103880004AC0281B390B24303105D8F58A819B8129
:103890006115710589F1FB0193838283FE0111C0DB
:1038A000408151810281138148175907E0F0481780
:1038B000590799F4109761F012960C93129713968A
:1038C0001C933296CF01DF91CF911F910F910895F4
:1038D0000093460310934703F4CF2115310551F0AF
:1038E0004217530738F0A901DB019A01BD01DF013E
:1038F000F801C1CFEF01F9CF9093470380934603BE
:10390000CDCFFE01E20FF31F819391932250310935
:1039100039832883D7CF2091440330914503232B4B
:1039200041F4209106013091070130934503209323
:10393000440320910401309105012115310541F422
:103940002DB73EB74091080150910901241B350B5A
:10395000E0914403F0914503E217F307A0F42E1B16
:103960003F0B2817390778F0AC014E5F5F4F2417E3
:10397000350748F04E0F5F1F5093450340934403B3
:10398000819391939FCFF0E0E0E09CCFCF93DF93C2
:103990000097E9F0FC01329713821282A09146034E
:1039A000B0914703ED0130E020E01097A1F42081B1
:1039B0003181820F931F20914403309145032817D2
:1039C000390709F061C0F0934503E0934403DF91A8
:1039D000CF910895EA01CE17DF07E8F54A815B81B0
:1039E0009E0141155105B1F7E901FB83EA83499135
:1039F0005991C40FD51FEC17FD0761F480819181A7
:103A00000296840F951FE9019983888382819381AF
:103A10009B838A83F0E0E0E012968D919C9113974E
:103A20000097B9F52D913C911197CD010296820F27
:103A3000931F20914403309145032817390739F625
:103A4000309751F51092470310924603B093450307
:103A5000A0934403BCCFD383C28340815181840FA0
:103A6000951FC817D90761F44E5F5F4F8881998110
:103A7000480F591F518340838A819B81938382839E
:103A80002115310509F0B0CFF0934703E0934603C9
:103A90009ECFFD01DC01C0CF13821282D7CFF894F4
:103AA000FFCF00002042000048038000000000001B
:103AB00019037902A6028103D702B502C9020000E8
:103AC00000001D06F0054C06C605E905D605C7052C
:103AD0000D0A006E616E00696E66006F76660043C7
:103AE000616C69627261746564206D6178206469DB
:103AF000737420746F3A09004661696C65642074C0
:103B00006F20736574206164647265737320746FD1
:103B10002073656E736F72207769746820585348FC
:103B200055542070696E20004661696C656420748C
:103B30006F2073746172742073656E736F72207777
:103B40006974682058534855542070696E200000ED
:107E0000112484B714BE81FFF0D085E080938100F7
:107E100082E08093C00088E18093C10086E0809377
:107E2000C20080E18093C4008EE0C9D0259A86E02C
:107E300020E33CEF91E0309385002093840096BBD3
:107E4000B09BFECF1D9AA8958150A9F7CC24DD24C4
:107E500088248394B5E0AB2EA1E19A2EF3E0BF2EE7
:107E6000A2D0813461F49FD0082FAFD0023811F036
:107E7000013811F484E001C083E08DD089C08234E0
:107E800011F484E103C0853419F485E0A6D080C0E4
:107E9000853579F488D0E82EFF2485D0082F10E0AE
:107EA000102F00270E291F29000F111F8ED06801E7
:107EB0006FC0863521F484E090D080E0DECF843638
:107EC00009F040C070D06FD0082F6DD080E0C81688
:107ED00080E7D80618F4F601B7BEE895C0E0D1E017
:107EE00062D089930C17E1F7F0E0CF16F0E7DF06D8
:107EF00018F0F601B7BEE89568D007B600FCFDCFD4
:107F0000A601A0E0B1E02C9130E011968C91119780
:107F100090E0982F8827822B932B1296FA010C0160
:107F200087BEE89511244E5F5F4FF1E0A038BF0790
:107F300051F7F601A7BEE89507B600FCFDCF97BE46
:107F4000E89526C08437B1F42ED02DD0F82E2BD052
:107F50003CD0F601EF2C8F010F5F1F4F84911BD097
:107F6000EA94F801C1F70894C11CD11CFA94CF0C13
:107F7000D11C0EC0853739F428D08EE10CD085E9AC
:107F80000AD08FE07ACF813511F488E018D01DD067
:107F900080E101D065CF982F8091C00085FFFCCF94
:107FA0009093C60008958091C00087FFFCCF809118
:107FB000C00084FD01C0A8958091C6000895E0E648
:107FC000F0E098E1908380830895EDDF803219F02E
:107FD00088E0F5DFFFCF84E1DECF1F93182FE3DFCA
:107FE0001150E9F7F2DF1F91089580E0E8DFEE27F6
:047FF000FF270994CA
:027FFE00040479
:00000001FF
