:020000040000FA
:100000000C9458000C9480000C9480000C94800098
:100010000C9480000C9480000C9480000C94800060
:100020000C9480000C9480000C9480000C94800050
:100030000C9480000C9480000C9480000C94800040
:100040000C9467070C9480000C94D7070C94B107AC
:100050000C9480000C9480000C9480000C94800020
:100060000C9409080C948000000000002500280072
:100070002B00040404040404040402020202020229
:10008000030303030303010204081020408001025C
:1000900004081020010204081020000000080002DB
:1000A0000100000304070000000000000000240914
:1000B00011241FBECFEFD8E0DEBFCDBF11E0A0E01E
:1000C000B1E0EEE9FDE102C005900D92AC3AB10756
:1000D000D9F723E0ACEAB1E001C01D92A930B20724
:1000E000E1F710E0C8E5D0E004C02197FE010E94CE
:1000F000C70EC735D107C9F70E9451090C94CD0E20
:100100000C94000090E0FC01E656FF4F2491FC01A6
:10011000EA57FF4F3491FC01EE58FF4FE491EE2374
:10012000C9F0222339F0233001F1A8F4213019F16C
:10013000223029F1F0E0EE0FFF1FE859FF4FA591A3
:10014000B4918FB7F894EC91611126C030953E239D
:100150003C938FBF08952730A9F02830C9F0243090
:1001600049F7809180008F7D03C0809180008F7758
:1001700080938000DFCF84B58F7784BDDBCF84B5DB
:100180008F7DFBCF8091B0008F778093B000D2CF6E
:100190008091B0008F7DF9CF3E2BDACF3FB7F89436
:1001A0008091F8019091F901A091FA01B091FB01C1
:1001B00026B5A89B05C02F3F19F00196A11DB11DC2
:1001C0003FBFBA2FA92F982F8827BC01CD01620FFE
:1001D000711D811D911D42E0660F771F881F991FB9
:1001E0004A95D1F70895AF92BF92CF92DF92EF92E6
:1001F000FF920F931F93CF93DF936C017B018B01D1
:10020000040F151FEB015E01AE18BF08C017D10720
:1002100059F06991D601ED91FC910190F081E02DAA
:10022000C6010995892B79F7C501DF91CF911F91FF
:100230000F91FF90EF90DF90CF90BF90AF90089517
:10024000FC01538D448D252F30E0842F90E0821BDC
:10025000930B541710F0CF96089501970895FC0161
:10026000918D828D981761F0A28DAE0FBF2FB11DB9
:100270005D968C91928D9F5F9F73928F90E0089511
:100280008FEF9FEF0895FC01918D828D981731F0CB
:10029000828DE80FF11D858D90E008958FEF9FEF1F
:1002A0000895FC01918D228D892F90E0805C9F4FF5
:1002B000821B91098F73992708958CE692E00E9422
:1002C000510121E0892B09F420E0822F089580E07C
:1002D00090E0892B29F00E945D0181110C940000AF
:1002E0000895FC01A48DA80FB92FB11DA35ABF4FCB
:1002F0002C91848D90E001968F739927848FA68925
:10030000B7892C93A089B1898C91837080648C9378
:10031000938D848D981306C00288F389E02D808127
:100320008F7D80830895EF92FF920F931F93CF9359
:10033000DF93EC0181E0888F9B8D8C8D98131AC020
:10034000E889F989808185FF15C09FB7F894EE8907
:10035000FF896083E889F989808183708064808364
:100360009FBF81E090E0DF91CF911F910F91FF90AF
:10037000EF900895F62E0B8D10E00F5F1F4F0F7357
:100380001127E02E8C8D8E110CC00FB607FCFACF12
:10039000E889F989808185FFF5CFCE010E9471013E
:1003A000F1CFEB8DEC0FFD2FF11DE35AFF4FF082E3
:1003B0009FB7F8940B8FEA89FB8980818062CFCF49
:1003C000CF93DF93EC01888D8823B9F0AA89BB898C
:1003D000E889F9898C9185FD03C0808186FD0DC077
:1003E0000FB607FCF7CF8C9185FFF2CF808185FF98
:1003F000EDCFCE010E947101E9CFDF91CF91089539
:100400001F93CF93DF93C1E0C093AE01882399F18E
:10041000D091B8001091BA008091BC008A7B809383
:10042000BC0060E082E10E94820060E083E10E9403
:10043000820010924202C093410210921C0261E0BD
:1004400082E10E94820061E083E10E94820080914B
:10045000B9008E7F8093B9008091B9008D7F809321
:10046000B90088E48093B80085E48093BC001093C1
:10047000BA00D093B800DF91CF911F9108958F9269
:100480009F92AF92BF92CF92DF92EF92FF920F9323
:100490001F93CF93DF93D0916B02D13208F0D7C076
:1004A000182FC0916A020E94CE006B017C018091DE
:1004B000420281116BC082E080934202109341029C
:1004C0008FEF8093400210923F02D0933E02AAE445
:1004D000B2E0EEE1F2E080E0D81391C010921D028C
:1004E00080911D02CC0FC82BC0931D0280911C026D
:1004F000813009F088C010921C020E94CE006B016E
:100500007C0180911D028093BB00809144029091F8
:100510004502A0914602B0914702892B8A2B8B2B72
:10052000A1F00E94CE00009144021091450220915A
:100530004602309147026C197D098E099F09061702
:1005400017072807390708F442C08091BC0083FDD3
:10055000D8CF85EC8093BC000E94CE006B017C015B
:1005600080914202823009F450C0809140028F3F56
:1005700009F46FC080914002803209F46CC0809110
:100580004002803309F469C084E026C080914402AF
:1005900090914502A0914602B0914702892B8A2B87
:1005A0008B2B09F484CF0E94CE008090440290905F
:1005B0004502A0904602B09047026C197D098E0951
:1005C0009F0986169706A806B90608F070CF809195
:1005D00043020E94000285E01092490210926B02D1
:1005E00010924802DF91CF911F910F91FF90EF90F1
:1005F000DF90CF90BF90AF909F908F9008959D9186
:1006000091938F5F69CF85EEA5CF80914402909141
:100610004502A0914602B0914702892B8A2B8B2B71
:1006200009F49ECF0E94CE00009144021091450231
:1006300020914602309147026C197D098E099F096D
:10064000061717072807390708F08ACFC0CF81E0BF
:10065000C3CF80E0C1CF82E0BFCF83E0BDCFCF92D8
:10066000DF92EF92FF920F931F93CF93DF93D82FD8
:10067000C62F613208F098C00E94CE006B017C0149
:100680008091420281116BC081E08093420280938D
:1006900041029FEF9093400210923F029C0F909373
:1006A0003E0280931D0280911D02DD0FD82BD09356
:1006B0001D0280911C02813009F078C010921C024A
:1006C0000E94CE006B017C0180911D028093BB00D3
:1006D0008091440290914502A0914602B091470258
:1006E000892B8A2B8B2BA1F00E94CE000091440213
:1006F0001091450220914602309147026C197D0904
:100700008E099F09061717072807390708F448C0FC
:100710008091BC0083FDD8CF85EC8093BC000E9403
:10072000CE006B017C0180914202813009F440C00F
:1007300080913F028C1710F4C0913F02EEE1F2E08D
:10074000ACEFB1E080E08C1355C08C2FDF91CF91DE
:100750001F910F91FF90EF90DF90CF9008958091BF
:10076000440290914502A0914602B0914702892B24
:100770008A2B8B2B09F484CF0E94CE000091440277
:100780001091450220914602309147026C197D0973
:100790008E099F09061717072807390708F070CF39
:1007A000809143020E940002C0E0CFCF85EEB5CF1A
:1007B0008091440290914502A0914602B091470277
:1007C000892B8A2B8B2B09F4AECF0E94CE0000918F
:1007D00044021091450220914602309147026C1963
:1007E0007D098E099F09061717072807390708F0A2
:1007F0009ACFD6CF91919D938F5FA5CF2091CF01B6
:10080000260F3327331F21323105ECF420914202A9
:10081000FC0190E080E0243069F082E00895A0912E
:10082000CF012191AC0141555E4FA40FB52FB11DF1
:100830002C930196861798F38091CF01680F6093EF
:10084000CF0180E0089581E008950895E091AD0121
:100850008091AC01E81730F4F0E0E450FE4F808165
:1008600090E008958FEF9FEF08959091AD018091F2
:10087000AC012FEF3FEF981748F4E92FF0E0E45078
:10088000FE4F208130E09F5F9093AD01C901089534
:100890008091AC019091AD01891B990B0895CF9285
:1008A000DF92EF92FF920F931F93CF93DF937C0120
:1008B000CB018A0120914802222389F0EB016B01D0
:1008C000C40ED51ECC15DD0569F06991D701ED91F7
:1008D000FC910190F081E02DC7010995F3CF642FC1
:1008E0000E94FE03C801DF91CF911F910F91FF90ED
:1008F000EF90DF90CF900895CF93DF931F92CDB705
:10090000DEB76983209148022223F9F020916B021F
:10091000203258F021E030E0FC013383228390E064
:1009200080E00F90DF91CF91089580914902E82FE8
:10093000F0E0E65BFD4F998190838F5F80934902E1
:1009400080936B0281E090E0ECCF61E0CE010196F4
:100950000E94FE03F7CF90E080E008951F93CF93AD
:10096000DF93EC01142F89819A812B8131E0309340
:10097000480220936A021092490210926B02DC0135
:10098000ED91FC910190F081E02D099589819A818A
:10099000DC01ED91FC910190F081E02D612F099532
:1009A00081E00E943F028883DF91CF911F910895DB
:1009B000FC0101900020E9F73197AF01481B590B6A
:1009C000BC018CE692E00C94F3008F929F92AF9260
:1009D000BF920F931F93CF93DF93CDB7DEB7A1974D
:1009E0000FB6F894DEBF0FBECDBF19A2423008F497
:1009F0004AE08E010F5D1F4F842E912CB12CA12C4B
:100A0000A50194010E94A50EE62FB901CA01EA30A2
:100A1000F4F4E05DD801EE938D01232B242B252BDC
:100A200079F790E080E0109719F0CD010E94D8048A
:100A3000A1960FB6F894DEBF0FBECDBFDF91CF9168
:100A40001F910F91BF90AF909F908F900895E95C98
:100A5000E1CFCF93DF930E94D804EC0182E191E0D3
:100A60000E94D8048C0F9D1FDF91CF9108954F9263
:100A70005F926F927F928F929F92AF92BF92CF922E
:100A8000DF92EF92FF926B017C01AC019B010E940F
:100A9000A00E8823C1F085E191E00E94D8047C017A
:100AA00082E191E00E94D8048E0D9F1DFF90EF908F
:100AB000DF90CF90BF90AF909F908F907F906F907E
:100AC0005F904F90089546015701E894B7F82FEFD3
:100AD0003FEF4FE75FE7C501B4010E94A00E81110F
:100AE0000DC02FEF3FEF4FE75FE7C501B4010E9454
:100AF0006D0C18161CF489E191E0CFCF2FEF3FEF7A
:100B00004FE75FE4C701B6010E942E0E18161CF4D1
:100B10008DE191E0C2CF2FEF3FEF4FE75FECC701D0
:100B2000B6010E946D0C87FDF3CF20E030E0A901F3
:100B3000C701B6010E946D0CB12CA12C87FF0AC021
:100B40006DE28CE692E00E9493015C01F7FAF0946A
:100B5000F7F8F0942AE037ED43EA5BE3C701B6010A
:100B60000E94010C2B013C010E94EB0C6B017C01EB
:100B70000E941A0D9B01AC01C301B2010E94000C3E
:100B80002B013C014AE0C701B6010E94E5047C014B
:100B9000EA0CFB1C6EE28CE692E00E949301E80EE8
:100BA000F91E20E030E040E251E4C301B2010E94AE
:100BB000330E2B013C010E94EB0C4B01B12CA12CFC
:100BC0004AE0C501B4010E94E504E80EF91EC50122
:100BD000B4010E941A0D9B01AC01C301B2010E9435
:100BE000000C20E030E040E251E40E94330E0E940D
:100BF000EB0C90E080E04AE00E94E504E80EF91E6C
:100C00004FCFCF93DF93EC0189819A812B8131E023
:100C10003093480220936A021092490210926B02AC
:100C2000DC01ED91FC910190F081E02D099581E0CE
:100C30000E943F02888361E08B810E942F03109203
:100C4000AD018093AC0189819A81DC01ED91FC9129
:100C50000284F385E02D0995DF91CF9108950F93DC
:100C60001F93CF93DF93EC0141E060E80E94AE0454
:100C700041E06FEFCE010E94AE0440E060E0CE01A3
:100C80000E94AE04498561E9CE010E94AE0441E0B4
:100C900060E0CE010E94AE0440E06FEFCE010E9402
:100CA000AE0440E060E8CE010E94AE0441E060E0A6
:100CB000CE010E94AE042FB7F8948091F401909178
:100CC000F501A091F601B091F7012FBF98878F83AE
:100CD00060E0CE010E94010680FF22C08C819D81D0
:100CE000892BB1F32FB7F8948091F4019091F5011D
:100CF000A091F601B091F7012FBF2F813885821B9B
:100D0000930B2C813D812817390710F781E08E83E2
:100D10000FEF1FEFC801DF91CF911F910F91089541
:100D20002FB7F8948091F4019091F501A091F6010C
:100D3000B091F7012FBF98878F8363E1CE010E94A6
:100D400001068770C9F48C819D81892BB1F32FB77F
:100D5000F8948091F4019091F501A091F601B09181
:100D6000F7012FBF2F813885821B930B2C813D818A
:100D70002817390710F7CACF89819A812B8131E072
:100D80003093480220936A021092490210926B023B
:100D9000DC01ED91FC910190F081E02D6EE109956F
:100DA00081E00E943F02888362E08B810E942F03D2
:100DB0001092AD018093AC0189819A81DC01ED91A3
:100DC000FC910284F385E02D099500E0182F8981BC
:100DD0009A81DC01ED91FC910284F385E02D099567
:100DE000082B192B41E06BE0CE010E94AE0492CF9C
:100DF000CF92DF92EF92FF92CF93DF93EC010D96AB
:100E00000E942F06BC0190E080E00E941A0D20E0B5
:100E100030E040E251E40E94720C6B017C0120E062
:100E200030E0A9010E946D0C882381F0A701960192
:100E300069857A858B859C850E942E0E181634F460
:100E400081E08C83CD82DE82EF82F886C701B60115
:100E5000DF91CF91FF90EF90DF90CF90089585EDD7
:100E60008093BC008091440290914502A09146027B
:100E7000B09147020796A11DB11D23E0B695A79535
:100E8000979587952A95D1F72091BC0024FD03C042
:100E9000109242020895409144025091450260919F
:100EA000460270914702452B462B472B69F300976A
:100EB000A105B10541F02AE22A95F1F700C001979A
:100EC000A109B109E1CF809143020C9400021F9265
:100ED0000F920FB60F9211242F933F938F939F93EE
:100EE000AF93BF938091F4019091F501A091F60129
:100EF000B091F7013091F30123E0230F2D3758F51E
:100F00000196A11DB11D2093F3018093F4019093EC
:100F1000F501A093F601B093F7018091F80190914B
:100F2000F901A091FA01B091FB010196A11DB11D3B
:100F30008093F8019093F901A093FA01B093FB011B
:100F4000BF91AF919F918F913F912F910F900FBEC5
:100F50000F901F90189526E8230F0296A11DB11D32
:100F6000D2CF1F920F920FB60F9211242F933F935F
:100F70004F935F936F937F938F939F93AF93BF93A1
:100F8000EF93FF938CE692E00E947101FF91EF9145
:100F9000BF91AF919F918F917F916F915F914F9191
:100FA0003F912F910F900FBE0F901F9018951F9299
:100FB0000F920FB60F9211242F938F939F93EF935D
:100FC000FF93E0917C02F0917D028081E0918202AA
:100FD000F091830282FD1BC09081809185028F5F1A
:100FE0008F7320918602821741F0E0918502F0E034
:100FF000E459FD4F958F80938502FF91EF919F916A
:101000008F912F910F900FBE0F901F901895808198
:10101000F4CF1F920F920FB60F9211242F933F938C
:101020004F935F936F937F938F939F93AF93BF93F0
:10103000EF93FF938091B900887F803609F44AC00E
:10104000F0F5883209F4A5C018F5803109F499C08B
:10105000B8F4882309F4F5C0883009F492C0FF91F0
:10106000EF91BF91AF919F918F917F916F915F9120
:101070004F913F912F910F900FBE0F901F90189599
:10108000883109F486C0803251F78093400214C041
:10109000803409F49BC040F48033B9F38833F9F607
:1010A0008093400285ECAEC0803509F483C088355A
:1010B00009F494C0883499F60E942F07D0CF88395C
:1010C00009F48AC038F5883729F050F4883611F0D1
:1010D000803729F683E0809342021092F10155C0D7
:1010E000883809F479C0803919F0803809F0B7CF11
:1010F0008091F101803208F06FC0E091F10181E050
:101100008E0F8093F1018091BB00F0E0EF52FE4F13
:1011100080833BC0803B39F0D0F4803A09F477C03B
:10112000883A09F09CCF84E0809342021092D0016B
:101130001092CF01F0E0E0E009958091CF0181119C
:101140000FC081E08093CF011092AF0109C0803CB5
:1011500009F4A8CF883C09F4A5CF883B09F07FCFDC
:10116000E091D00181E08E0F8093D001F0E0E15555
:10117000FE4F80818093BB009091D0018091CF0180
:1011800029C080911D028093BB0085EC8093BC0038
:1011900066CF90913F0280913E02981758F5E091FA
:1011A0003F0281E08E0F80933F02F0E0E25EFD4F50
:1011B0008081E9CFE0913F0281E08E0F80933F0272
:1011C0008091BB00F0E0E25EFD4F808390913F0292
:1011D00080913E029817C8F285E8D8CFE0913F028F
:1011E00081E08E0F80933F028091BB00F0E0E25ED1
:1011F000FD4F80838091410281115ECF81E0809319
:101200001C0284EA8093BC001092420228CF85EC35
:101210008093BC00109242028091F101803230F440
:10122000E091F101F0E0EF52FE4F10826091F10188
:1012300070E081ED91E0F0E0E0E009951092F101BD
:101240000ECF1092400238CFECE6F2E01382128209
:1012500088EE93E0A0E0B0E084839583A683B78313
:1012600084E091E09183808385EC90E0958784878A
:1012700084EC90E09787868780EC90E0918B808B60
:1012800081EC90E0938B828B82EC90E0958B848B49
:1012900086EC90E0978B868B118E128E138E148EB7
:1012A0000895CF93DF9300D000D000D0CDB7DEB744
:1012B000789484B5826084BD84B5816084BD85B531
:1012C000826085BD85B5816085BD80916E0081603D
:1012D00080936E00109281008091810082608093E3
:1012E00081008091810081608093810080918000E5
:1012F0008160809380008091B10084608093B10010
:101300008091B00081608093B00080917A00846009
:1013100080937A0080917A00826080937A00809135
:101320007A00816080937A0080917A00806880934F
:101330007A001092C100E0917C02F0917D0282E07F
:101340008083E0917802F09179021082E0917A0234
:10135000F0917B028FEC808310928402E0918002F6
:10136000F091810286E08083E0917E02F0917F021D
:10137000808180618083E0917E02F0917F02808194
:1013800088608083E0917E02F0917F028081806896
:101390008083E0917E02F0917F0280818F7D808347
:1013A00081E291E00E942905C0900900D0900A00D6
:1013B000E0900B00F0900C0020E030E040E85FEBA4
:1013C000C701B6010E946D0C882351F020E030E087
:1013D00040E252E4C701B6010E946D0C81113BC08E
:1013E0008DE090E00E942F06BC0190E080E00E941A
:1013F0001A0D20E030E040E251E40E94720C20E03F
:1014000030E040E85FE30E94000C609309007093B5
:101410000A0080930B0090930C00C6CF8DE090E003
:101420000E942F06BC0190E080E00E941A0D20E08F
:1014300030E040E251E40E94720C20E030E040E8ED
:101440005FE30E94000C6093090070930A00809390
:101450000B0090930C00C0900900D0900A00E0901F
:101460000B00F0900C0020E030E040E85FEBC7019B
:10147000B6010E946D0C882389F220E030E040E242
:1014800052E4C701B6010E946D0C882339F28FE245
:1014900091E00E9429058DE391E00E94D8046091BB
:1014A000090070910A0080910B0090910C000E943D
:1014B000370588E491E00E94D8046091090070919A
:1014C0000A0080910B0090910C000E94370583E187
:1014D00091E00E94290583E591E00E94290580E0C2
:1014E000282E80E0382E80910400882381F080919E
:1014F000F201882361F0109204001092050010920E
:10150000060010920700109208001092F2018091DC
:101510000400811117C090E080E00E94F8068091DD
:101520000400882309F460C189E591E00E94D80491
:10153000609105007091060080910700909108006D
:101540000E94370580910400811117C090E080E06F
:101550000E94F80680910400882309F445C18AE6B8
:1015600091E00E94D804609105007091060080917E
:101570000700909108000E9437058CE791E00E94D7
:10158000290580E991E00E94D804609105007091DE
:10159000060080910700909108000E94370588E9B5
:1015A00091E00E94D804609105007091060080913E
:1015B0000700909108000E943705809000009090ED
:1015C0000100A0900200B0900300409005005090F0
:1015D00006006090070070900800A3019201C3010B
:1015E000B2010E94000C69837A838B839C83A501DE
:1015F0009401C501B4010E94000C6B017C0120E044
:1016000030E0A9010E942E0E181624F0F7FAF0948B
:10161000F7F8F094A701960169817A818B819C810A
:101620000E94720C6B017C01A50194010E94330E93
:10163000A30192010E94010C4B015C0120E030E00B
:10164000A901C701B6010E946D0C61E070E088231A
:1016500091F020E030E0A901C701B6010E942E0EF2
:10166000A701960118160CF05058C701B6010E9448
:10167000720C0E94E40C072E000C880B990B0E9440
:101680001C0D2B013C012DEC3CEC4CEF5FE30E9468
:10169000330EA50194010E94010C6B017C0108E24C
:1016A00010E021E030E03E832D83B801012E000CD4
:1016B000880B990B0E941C0DA70196010E946D0CCE
:1016C00087FD18C066277727601B710B072E000C5B
:1016D000880B990B0E941C0D20E030E040E252E4A0
:1016E0000E94010C9B01AC01C701B6010E946D0C68
:1016F00087FF2DC08D819E8101969E838D83BC01C5
:10170000990F880B990B0E941C0D69837A838B8338
:101710009C832DEC3CEC4CEF5FE30E94330EA30165
:1017200092010E94330EA50194010E94010C6B01ED
:101730007C0120E030E040E252E469817A818B81D3
:101740009C810E94330E0E94E40C8B01AECF2D8150
:101750003E81215031093A832983B901330F880B27
:10176000990B0E941C0D2DEC3CEC4CE750E40E94C0
:10177000330EA30192010E94330EA50194010E9431
:10178000010C20E030E040E252E40E94620D20E0D3
:1017900030E040E252E40E94010C20E030E040E200
:1017A00052E40E94620D6B017C01398130FF0AC056
:1017B000AC019B0160E070E080E292E40E94000CCA
:1017C0006B017C0181EA91E00E94D804C701B60157
:1017D0000E94370510920400109205001092060036
:1017E00010920700109208002114310409F47BCEF6
:1017F0000E945D01882309F476CE0E94000073CE1A
:101800005058BB27AA270E94180C0C94F40D0E9474
:10181000E60D38F00E94ED0D20F039F49F3F19F4E9
:1018200026F40C94E30D0EF4E095E7FB0C94CF0D39
:10183000E92F0E94050E58F3BA1762077307840751
:10184000950720F079F4A6F50C94270E0EF4E09598
:101850000B2EBA2FA02D0B01B90190010C01CA016A
:10186000A0011124FF27591B99F0593F50F4503E15
:1018700068F11A16F040A22F232F342F4427585F07
:10188000F3CF469537952795A795F0405395C9F71F
:101890007EF41F16BA0B620B730B840BBAF09150D7
:1018A000A1F0FF0FBB1F661F771F881FC2F70EC076
:1018B000BA0F621F731F841F48F487957795679549
:1018C000B795F7959E3F08F0B0CF9395880F08F035
:1018D0009927EE0F9795879508950E94AB0D08F410
:1018E00081E008950E94860C0C94F40D0E94ED0D89
:1018F00058F00E94E60D40F029F45F3F29F00C9467
:10190000CF0D51110C94280E0C94E30D0E94050E7E
:1019100068F39923B1F3552391F3951B550BBB271E
:10192000AA2762177307840738F09F5F5F4F220F63
:10193000331F441FAA1FA9F335D00E2E3AF0E0E85A
:1019400032D091505040E695001CCAF72BD0FE2FA4
:1019500029D0660F771F881FBB1F26173707480738
:10196000AB07B0E809F0BB0B802DBF01FF279358F0
:101970005F4F3AF09E3F510578F00C94CF0D0C94D8
:10198000280E5F3FE4F3983ED4F3869577956795EC
:10199000B795F7959F5FC9F7880F911D9695879525
:1019A00097F90895E1E0660F771F881FBB1F621744
:1019B00073078407BA0720F0621B730B840BBA0B02
:1019C000EE1F88F7E09508950E94EB0C6894B11122
:1019D0000C94280E08950E940D0E88F09F5798F0E1
:1019E000B92F9927B751B0F0E1F0660F771F881F24
:1019F000991F1AF0BA95C9F714C0B13091F00E943E
:101A0000270EB1E008950C94270E672F782F8827B2
:101A1000B85F39F0B93FCCF3869577956795B39564
:101A2000D9F73EF490958095709561957F4F8F4FD3
:101A30009F4F0895E89409C097FB3EF490958095D8
:101A4000709561957F4F8F4F9F4F9923A9F0F92F84
:101A500096E9BB279395F695879577956795B79502
:101A6000F111F8CFFAF4BB0F11F460FF1BC06F5FE8
:101A70007F4F8F4F9F4F16C0882311F096E911C0FA
:101A8000772321F09EE8872F762F05C0662371F01B
:101A900096E8862F70E060E02AF09A95660F771F2F
:101AA000881FDAF7880F9695879597F908950E9411
:101AB000E60D20F019F00E94ED0D50F40C94E30DAA
:101AC0000C94280EE92F0E94050E88F35523B1F3DC
:101AD000E7FB6217730784079507A8F189F3E92FDD
:101AE000FF2788232AF03197660F771F881FDAF7C0
:101AF000952F5527442332F091505040220F331F29
:101B0000441FD2F7BB27E91BF50B621B730B840B39
:101B1000B109B1F222F4620F731F841FB11D319716
:101B20002AF0660F771F881FBB1FEFCF91505040E0
:101B300062F041F0882332F0660F771F881F9150C2
:101B40005040C1F793950C94D50D86957795679580
:101B50009F5FD9F7F7CF990F0008550FAA0BE0E860
:101B6000FEEF16161706E807F907C0F0121613065F
:101B7000E407F50798F0621B730B840B950B39F49F
:101B80000A2661F0232B242B252B21F408950A2605
:101B900009F4A140A6958FEF811D811D089597F945
:101BA0009F6780E870E060E008959F3F31F09150BA
:101BB00020F4879577956795B795880F911D969531
:101BC000879597F908959FEF80EC089500240A9473
:101BD0001616170618060906089500240A94121608
:101BE0001306140605060895092E0394000C11F43B
:101BF000882352F0BB0F40F4BF2B11F460FF04C0E8
:101C00006F5F7F4F8F4F9F4F089557FD9058440F40
:101C1000551F59F05F3F71F04795880F97FB991F4B
:101C200061F09F3F79F08795089512161306140608
:101C3000551FF2CF4695F1DF08C016161706180695
:101C4000991FF1CF86957105610508940895E89470
:101C5000BB2766277727CB0197F908950E94AB0D24
:101C600008F48FEF08950E94460E0C94F40D0E9424
:101C7000E60D38F00E94ED0D20F0952311F00C9444
:101C8000CF0D0C94E30D11240C94280E0E94050E28
:101C900070F3959FC1F3950F50E0551F629FF001BF
:101CA000729FBB27F00DB11D639FAA27F00DB11DD8
:101CB000AA1F649F6627B00DA11D661F829F222761
:101CC000B00DA11D621F739FB00DA11D621F839FE8
:101CD000A00D611D221F749F3327A00D611D231FBE
:101CE000849F600D211D822F762F6A2F11249F570C
:101CF00050409AF0F1F088234AF0EE0FFF1FBB1F0F
:101D0000661F771F881F91505040A9F79E3F5105CD
:101D100080F00C94CF0D0C94280E5F3FE4F3983EB6
:101D2000D4F3869577956795B795F795E7959F5F77
:101D3000C1F7FE2B880F911D9695879597F9089509
:101D40000E94AB0D880B990B0895A1E21A2EAA1BD5
:101D5000BB1BFD010DC0AA1FBB1FEE1FFF1FA2175B
:101D6000B307E407F50720F0A21BB30BE40BF50B58
:101D7000661F771F881F991F1A9469F760957095E1
:101D8000809590959B01AC01BD01CF010895EE0FA8
:101D9000FF1F0590F491E02D0994F894FFCF000007
:101DA00000009301F3002001E00151012F014301E4
:101DB0000D0A006E616E00696E66006F7666000A3D
:101DC0005354415254494E4720555021004D4158DB
:101DD0002044495354414E43453A0053454E534FD6
:101DE0005220313A200053454E534F5220323A2070
:101DF00000524541445900464952535420444554E9
:101E000045435445443A20005345434F4E442044F3
:101E1000455445435445443A20000A42414C4C2025
:101E20004D4541535552454D454E54533A00464950
:101E30005253543A20005345434F4E443A200045F4
:0A1E40004E44504F494E543A200022
:107E0000112484B714BE81FFF0D085E080938100F7
:107E100082E08093C00088E18093C10086E0809377
:107E2000C20080E18093C4008EE0C9D0259A86E02C
:107E300020E33CEF91E0309385002093840096BBD3
:107E4000B09BFECF1D9AA8958150A9F7CC24DD24C4
:107E500088248394B5E0AB2EA1E19A2EF3E0BF2EE7
:107E6000A2D0813461F49FD0082FAFD0023811F036
:107E7000013811F484E001C083E08DD089C08234E0
:107E800011F484E103C0853419F485E0A6D080C0E4
:107E9000853579F488D0E82EFF2485D0082F10E0AE
:107EA000102F00270E291F29000F111F8ED06801E7
:107EB0006FC0863521F484E090D080E0DECF843638
:107EC00009F040C070D06FD0082F6DD080E0C81688
:107ED00080E7D80618F4F601B7BEE895C0E0D1E017
:107EE00062D089930C17E1F7F0E0CF16F0E7DF06D8
:107EF00018F0F601B7BEE89568D007B600FCFDCFD4
:107F0000A601A0E0B1E02C9130E011968C91119780
:107F100090E0982F8827822B932B1296FA010C0160
:107F200087BEE89511244E5F5F4FF1E0A038BF0790
:107F300051F7F601A7BEE89507B600FCFDCF97BE46
:107F4000E89526C08437B1F42ED02DD0F82E2BD052
:107F50003CD0F601EF2C8F010F5F1F4F84911BD097
:107F6000EA94F801C1F70894C11CD11CFA94CF0C13
:107F7000D11C0EC0853739F428D08EE10CD085E9AC
:107F80000AD08FE07ACF813511F488E018D01DD067
:107F900080E101D065CF982F8091C00085FFFCCF94
:107FA0009093C60008958091C00087FFFCCF809118
:107FB000C00084FD01C0A8958091C6000895E0E648
:107FC000F0E098E1908380830895EDDF803219F02E
:107FD00088E0F5DFFFCF84E1DECF1F93182FE3DFCA
:107FE0001150E9F7F2DF1F91089580E0E8DFEE27F6
:047FF000FF270994CA
:027FFE00040479
:00000001FF
