:100000000C945D000C9485000C9485000C94850084
:100010000C9485000C9485000C9485000C9485004C
:100020000C9485000C9485000C9485000C9485003C
:100030000C9485000C9485000C9485000C9485002C
:100040000C945E0A0C9485000C94CE0A0C94A80AB9
:100050000C9485000C9485000C9485000C9485000C
:100060000C94000B0C948500000000002400270075
:100070002A0000000000250028002B0004040404CE
:100080000404040402020202020203030303030342
:10009000010204081020408001020408102001021F
:1000A00004081020000000080002010000030407FB
:1000B00000000000000000001F0C11241FBECFEF45
:1000C000D8E0DEBFCDBF12E0A0E0B1E0E4E1F3E3B1
:1000D00002C005900D92A036B107D9F723E0A0E643
:1000E000B2E001C01D92A63DB207E1F710E0CDE5F8
:1000F000D0E004C02197FE010E944E18CC35D107F4
:10010000C9F70E94580C0C9488190C94000090E0D8
:10011000FC01EC55FF4F2491FC01E057FF4F349157
:10012000FC01E458FF4FE491EE23C9F0222339F09B
:10013000233001F1A8F4213019F1223029F1F0E047
:10014000EE0FFF1FEE58FF4FA591B4918FB7F894B3
:10015000EC91611126C030953E233C938FBF0895EA
:100160002730A9F02830C9F0243049F78091800069
:100170008F7D03C0809180008F7780938000DFCFD8
:1001800084B58F7784BDDBCF84B58F7DFBCF809125
:10019000B0008F778093B000D2CF8091B0008F7D78
:1001A000F9CF3E2BDACF3FB7F8948091B50290910A
:1001B000B602A091B702B091B80226B5A89B05C0BF
:1001C0002F3F19F00196A11DB11D3FBFBA2FA92FD6
:1001D000982F8827BC01CD01620F711D811D911DD3
:1001E00042E0660F771F881F991F4A95D1F708953F
:1001F0008F929F92AF92BF92CF92DF92EF92FF9237
:100200004B015C010E94D3006B017C010E94D30072
:100210006C197D098E099F09683E7340810591051F
:10022000A8F321E0821A9108A108B10888EEC80E4F
:1002300083E0D81EE11CF11C81149104A104B104D7
:1002400029F7FF90EF90DF90CF90BF90AF909F90F5
:100250008F9008952FB7F8946091B1027091B20217
:100260008091B3029091B4022FBF0895089508952C
:10027000AF92BF92CF92DF92EF92FF920F931F93B4
:10028000CF93DF936C017B018B01040F151FEB01F2
:100290005E01AE18BF08C017D10759F06991D601A9
:1002A000ED91FC910190F081E02DC6010995892B1B
:1002B00079F7C501DF91CF911F910F91FF90EF90DA
:1002C000DF90CF90BF90AF900895FC01538D448D87
:1002D000252F30E0842F90E0821B930B541710F0F1
:1002E000CF96089501970895FC01918D828D9817FE
:1002F00061F0A28DAE0FBF2FB11D5D968C91928DD6
:100300009F5F9F73928F90E008958FEF9FEF089506
:10031000FC01918D828D981731F0828DE80FF11DCF
:10032000858D90E008958FEF9FEF0895FC01918DEA
:10033000228D892F90E0805C9F4F821B91098F73E3
:100340009927089589E293E00E94960121E0892B84
:1003500009F420E0822F089580E090E0892B29F0B5
:100360000E94A20181110C9400000895FC01A48D4B
:10037000A80FB92FB11DA35ABF4F2C91848D90E0C7
:1003800001968F739927848FA689B7892C93A089AA
:10039000B1898C91837080648C93938D848D981334
:1003A00006C00288F389E02D80818F7D80830895C7
:1003B000EF92FF920F931F93CF93DF93EC0181E0B5
:1003C000888F9B8D8C8D98131AC0E889F98980815C
:1003D00085FF15C09FB7F894EE89FF896083E8898F
:1003E000F98980818370806480839FBF81E090E081
:1003F000DF91CF911F910F91FF90EF900895F62E0E
:100400000B8D10E00F5F1F4F0F731127E02E8C8DA7
:100410008E110CC00FB607FCFACFE889F9898081EC
:1004200085FFF5CFCE010E94B601F1CFEB8DEC0F29
:10043000FD2FF11DE35AFF4FF0829FB7F8940B8F09
:10044000EA89FB8980818062CFCFCF93DF93EC0173
:10045000888D8823B9F0AA89BB89E889F9898C91AC
:1004600085FD03C0808186FD0DC00FB607FCF7CF68
:100470008C9185FFF2CF808185FFEDCFCE010E9468
:10048000B601E9CFDF91CF91089520918102260F27
:100490003327331F21323105ECF42091FF02FC0198
:1004A00090E080E0243069F082E00895A09181021C
:1004B0002191AC014F595D4FA40FB52FB11D2C9365
:1004C0000196861798F380918102680F60938102EC
:1004D00080E0089581E008951092FF0281E080930A
:1004E000FE021092D90261E082E10E94870061E081
:1004F00083E10E948700E9EBF0E080818E7F8083BA
:1005000080818D7F808388E48093B80085E4809328
:10051000BC000895CF93DF9391E09093600288230D
:10052000B9F0C091B800D091BA008091BC008A7B2C
:100530008093BC0060E082E10E94870060E083E17C
:100540000E9487000E946C02D093BA00C093B8004A
:10055000DF91CF9108958F929F92AF92BF92CF92E9
:10056000DF92EF92FF920F931F93CF93DF93D0917F
:100570002803D13208F0D7C0182FC09127030E945A
:10058000D3006B017C018091FF0281116BC082E07E
:100590008093FF021093FE028FEF8093FD02109272
:1005A000FC02D093FB02A7E0B3E0EBEDF2E080E0C9
:1005B000D81391C01092DA028091DA02CC0FC82BC6
:1005C000C093DA028091D902813009F088C010927C
:1005D000D9020E94D3006B017C018091DA028093E2
:1005E000BB008091010390910203A0910303B0919D
:1005F0000403892B8A2B8B2BA1F00E94D30000913E
:1006000001031091020320910303309104036C193C
:100610007D098E099F09061717072807390708F46F
:1006200042C08091BC0083FDD8CF85EC8093BC0094
:100630000E94D3006B017C018091FF02823009F49B
:1006400050C08091FD028F3F09F46FC08091FD0280
:10065000803209F46CC08091FD02803309F469C0D6
:1006600084E026C08091010390910203A0910303CE
:10067000B0910403892B8A2B8B2B09F484CF0E9421
:10068000D3008090010390900203A0900303B090E8
:1006900004036C197D098E099F0986169706A80622
:1006A000B90608F070CF809100030E948A0285E0AD
:1006B000109206031092280310920503DF91CF9148
:1006C0001F910F91FF90EF90DF90CF90BF90AF9070
:1006D0009F908F9008959D9191938F5F69CF85EE44
:1006E000A5CF8091010390910203A0910303B091E3
:1006F0000403892B8A2B8B2B09F49ECF0E94D300F5
:10070000009101031091020320910303309104032F
:100710006C197D098E099F090617170728073907E5
:1007200008F08ACFC0CF81E0C3CF80E0C1CF82E0A4
:10073000BFCF83E0BDCFCF92DF92EF92FF920F93B6
:100740001F93CF93DF93D82FC62F613208F098C044
:100750000E94D3006B017C018091FF0281116BC06C
:1007600081E08093FF028093FE029FEF9093FD0251
:100770001092FC029C0F9093FB028093DA0280910E
:10078000DA02DD0FD82BD093DA028091D9028130C2
:1007900009F078C01092D9020E94D3006B017C014D
:1007A0008091DA028093BB00809101039091020353
:1007B000A0910303B0910403892B8A2B8B2BA1F00A
:1007C0000E94D300009101031091020320910303C2
:1007D000309104036C197D098E099F0906171707CC
:1007E0002807390708F448C08091BC0083FDD8CFA2
:1007F00085EC8093BC000E94D3006B017C0180914A
:10080000FF02813009F440C08091FC028C1710F483
:10081000C091FC02EBEDF2E0A9EBB2E080E08C13BA
:1008200055C08C2FDF91CF911F910F91FF90EF90CA
:10083000DF90CF9008958091010390910203A091E1
:100840000303B0910403892B8A2B8B2B09F484CFEB
:100850000E94D30000910103109102032091030331
:10086000309104036C197D098E099F09061717073B
:100870002807390708F070CF809100030E948A0290
:10088000C0E0CFCF85EEB5CF8091010390910203F8
:10089000A0910303B0910403892B8A2B8B2B09F4BD
:1008A000AECF0E94D300009101031091020320916A
:1008B0000303309104036C197D098E099F09061703
:1008C00017072807390708F09ACFD6CF91919D9343
:1008D0008F5FA5CF0895E091A9028091A802E81743
:1008E00030F4F0E0E754FD4F808190E008958FEF01
:1008F0009FEF08959091A9028091A8022FEF3FEFFA
:10090000981748F4E92FF0E0E754FD4F208130E0DC
:100910009F5F9093A902C90108958091A8029091C8
:10092000A902891B990B0895CF92DF92EF92FF9253
:100930000F931F93CF93DF937C01CB018A0120910A
:100940000503222389F0EB016B01C40ED51ECC15E3
:10095000DD0569F06991D701ED91FC910190F0817D
:10096000E02DC7010995F3CF642F0E944502C8010D
:10097000DF91CF911F910F91FF90EF90DF90CF907B
:100980000895CF93DF931F92CDB7DEB7698320918F
:1009900005032223F9F020912803203258F021E0AA
:1009A00030E0FC013383228390E080E00F90DF9100
:1009B000CF91089580910603E82FF0E0E95FFC4FA6
:1009C000998190838F5F809306038093280381E051
:1009D00090E0ECCF61E0CE0101960E944502F7CF96
:1009E00090E080E008950F931F93CF93DF93EC0185
:1009F000142F052F89819A812B8131E030930503D3
:100A0000209327031092060310922803DC01ED9136
:100A1000FC910190F081E02D099589819A81DC019A
:100A2000ED91FC910190F081E02D602F0995898175
:100A30009A81DC01ED91FC910190F081E02D612F14
:100A4000099581E00E94AB028883DF91CF911F91CD
:100A50000F9108951F93CF93DF93EC01142F898199
:100A60009A812B8131E03093050320932703109264
:100A7000060310922803DC01ED91FC910190F081B6
:100A8000E02D099589819A81DC01ED91FC9101901D
:100A9000F081E02D612F099581E00E94AB028883EF
:100AA000DF91CF911F910895FC0101900020E9F79B
:100AB0003197AF01481B590BBC0189E293E00C94BC
:100AC00038018F929F92AF92BF920F931F93CF9353
:100AD000DF93CDB7DEB7A1970FB6F894DEBF0FBE98
:100AE000CDBF19A2423008F44AE08E010F5D1F4FBE
:100AF000842E912CB12CA12CA50194010E941918CF
:100B0000E62FB901CA01EA30F4F4E05DD801EE93B2
:100B10008D01232B242B252B79F790E080E0109773
:100B200019F0CD010E945405A1960FB6F894DEBFCE
:100B30000FBECDBFDF91CF911F910F91BF90AF90AE
:100B40009F908F900895E95CE1CF0C945405CF936A
:100B5000DF930E945405EC018AE291E00E94540563
:100B60008C0F9D1FDF91CF9108954F925F926F92EE
:100B70007F928F929F92AF92BF92CF92DF92EF922D
:100B8000FF926B017C01AC019B010E941418882329
:100B9000C1F08DE291E00E9454057C018AE291E06F
:100BA0000E9454058E0D9F1DFF90EF90DF90CF9017
:100BB000BF90AF909F908F907F906F905F904F907D
:100BC000089546015701E894B7F82FEF3FEF4FE73C
:100BD0005FE7C501B4010E94141881110DC02FEF09
:100BE0003FEF4FE75FE7C501B4010E94E11518161A
:100BF0001CF481E391E0CFCF2FEF3FEF4FE75FE4AD
:100C0000C701B6010E94A21718161CF485E391E0F3
:100C1000C2CF2FEF3FEF4FE75FECC701B6010E9455
:100C2000E11587FDF3CF20E030E0A901C701B6014F
:100C30000E94E115B12CA12C87FF0AC06DE289E268
:100C400093E00E94D8015C01F7FAF094F7F8F09471
:100C50002AE037ED43EA5BE3C701B6010E94751550
:100C60002B013C010E945F166B017C010E948E16D5
:100C70009B01AC01C301B2010E9474152B013C0120
:100C80004AE0C701B6010E9461057C01EA0CFB1C29
:100C90006EE289E293E00E94D801E80EF91E20E09E
:100CA00030E040E251E4C301B2010E94A7172B01DA
:100CB0003C010E945F164B01B12CA12C4AE0C501FA
:100CC000B4010E946105E80EF91EC501B4010E943D
:100CD0008E169B01AC01C301B2010E94741520E085
:100CE00030E040E251E40E94A7170E945F1690E0B6
:100CF00080E04AE00E946105E80EF91E4FCF0F9395
:100D00001F93CF93DF93EC0189819A812B8131E08E
:100D100030930503209327031092060310922803B3
:100D2000DC01ED91FC910190F081E02D099581E0CD
:100D30000E94AB02888362E08B810E949B03109229
:100D4000A9028093A80289819A81DC01ED91FC912E
:100D50000284F385E02D099500E0182F89819A819E
:100D6000DC01ED91FC910284F385E02D0995802B47
:100D7000912BDF91CF911F910F910895CF93DF9326
:100D8000EC0189819A812B8131E030930503209316
:100D900027031092060310922803DC01ED91FC91C9
:100DA0000190F081E02D099581E00E94AB028883DB
:100DB00061E08B810E949B031092A9028093A8029C
:100DC00089819A81DC01ED91FC910284F385E02D0B
:100DD0000995DF91CF910895CF93DF93EC01462FD2
:100DE000416060E00E942A050E942A0178876F8393
:100DF00063E1CE010E94BE06877089F48C819D81DB
:100E0000892BB1F30E942A012F813885621B730B55
:100E10008C819D818617970758F780E00BC041E0D1
:100E20006BE0CE010E942A0540E060E0CE010E9406
:100E30002A0581E0DF91CF9108958F929F92AF9222
:100E4000BF92CF92DF92EF92FF920F931F93CF93B7
:100E5000DF936C017B01EA0160E50E94BE068F5FB3
:100E6000880F90E09983888366E4C6010E94BE06DD
:100E7000082F10E00F5F1F4F1D830C83A881B0E087
:100E800020E03FE24AE350E00E943B186C507E4F66
:100E90008F4F9F4F38EE832E33E0932EA12CB12C31
:100EA000A50194010E941918D8010E9446186C509F
:100EB0007E4F8F4F9F4FA50194010E9419182A87DA
:100EC0003B874C875D8761E5C6010E947F068C01E8
:100ED000112702C0000F111F9A95E2F70F5F1F4FF5
:100EE0001F830E83A881B0E020E03FE24AE350E098
:100EF0000E943B186C507E4F8F4F9F4FA50194016D
:100F00000E941918D8010E943B186C507E4F8F4FD9
:100F10009F4FA50194010E9419182E873F87488B87
:100F2000598B60E7C6010E94BE068F5F880F90E074
:100F30009B838A8361E7C6010E947F069C019927F3
:100F400002C0880F991F3A95E2F701969987888722
:100F5000F7012381222331F02E813F81821B930BE5
:100F600099878887AA81B0E020E03FE24AE350E019
:100F70000E943B186C507E4F8F4F9F4F28EEC22E21
:100F800023E0D22EE12CF12CA70196010E94191822
:100F9000A885B9850E943B186C507E4F8F4F9F4F9C
:100FA000A70196010E9419182A8B3B8B4C8B5D8BF5
:100FB000DF91CF911F910F91FF90EF90DF90CF9035
:100FC000BF90AF909F908F900895CF93DF93EB01E8
:100FD00061E00E94BE0684FB992790F9988383FB09
:100FE000992790F99A8382FB992790F9998386FB38
:100FF000992790F99B83881F8827881F8C83DF910E
:10100000CF9108952F923F924F925F926F927F926D
:101010008F929F92AF92BF92CF92DF92EF92FF9208
:101020000F931F93CF93DF93CDB7DEB76B970FB6B8
:10103000F894DEBF0FBECDBF8C014A015B01BE013B
:10104000695E7F4F0E94E507AE014F5F5F4FBE01B3
:10105000695E7F4FC8010E941D078F89882309F4AC
:1010600094C08B859C85AD85BE858C57924FAF4FC4
:10107000BF4F298D222309F48DC04B855C856D857A
:101080007E854E545D4F6F4F7F4F440F551F661F37
:10109000771F840F951FA61FB71F3A8C332061F06E
:1010A0004F85588969897A894C565D4F6F4F7F4FBC
:1010B000840F951FA61FB71F2B8C222009F4A1C0F7
:1010C0006C017D0126E2C20E22E0D21EE11CF11C61
:1010D0008C149D04AE04BF0408F496C0AB81B0E04C
:1010E00020E03FE24AE350E00E943B182B013C0124
:1010F000E4EF4E0EE1E05E1E611C711CA50194013F
:101100002C193D094E095F09A8EEB3E00E943B1877
:101110006B017C01C301B20120ED37E040E050E0FB
:101120000E941918C20ED31EE41EF51EC301B2019F
:1011300028EE33E040E050E00E941918C701B601E4
:101140000E941918332031F08F819885280F391F9C
:10115000411D511D211531054105510509F44EC0B0
:10116000BA01A901415051096109710990E080E07B
:101170002A013B014424452846284728C1F076959A
:101180006795579547950196F3CF86E39BE0A0E0DE
:10119000B0E06FCF288D222309F47FCF4B855C858B
:1011A0006D857E854C565D4F6F4F7F4F72CF982F68
:1011B0008827482B592B61E7C8010E94F304F801E6
:1011C00082869386A486B586822D6B960FB6F89498
:1011D000DEBF0FBECDBFDF91CF911F910F91FF906A
:1011E000EF90DF90CF90BF90AF909F908F907F90C7
:1011F0006F905F904F903F902F90089550E040E0A7
:10120000DACF22242394E0CF212CDECF0F931F933B
:10121000CF93DF93EC010E942A0178876F8363E10B
:10122000CE010E94BE068770C9F48C819D81892BF6
:10123000B1F30E942A012F813885621B730B8C81C8
:101240009D818617970758F781E08E830FEF1FEF78
:10125000C801DF91CF911F910F9108956EE1CE01EA
:101260000E947F068C0141E06BE0CE010E942A05BE
:10127000EFCFCF92DF92EF92FF92CF93DF93EC010B
:101280000D960E940609BC0190E080E00E948E1637
:1012900020E030E040E251E40E94E61520E030E03A
:1012A00040E45FE30E9474156B017C0189E391E0E7
:1012B0000E94A505C701B6010E94B50520E030E0F7
:1012C00040E250E4C701B6010E94741569877A872D
:1012D0008B879C87DF91CF91FF90EF90DF90CF902D
:1012E0000895CF92DF92EF92FF92CF93DF93EC01BC
:1012F0000D960E940609BC0190E080E00E948E16C7
:1013000020E030E040E251E40E94E61520E030E0C9
:1013100040E45FE30E9474156B017C0120E030E043
:10132000A9010E94E1158823C1F0A70196016985F2
:101330007A858B859C850E94A217181674F4A701E4
:101340009601C701B6010E94E115811106C081E036
:101350008C83CD82DE82EF82F886C701B601DF91F1
:10136000CF91FF90EF90DF90CF9008954F925F92D2
:101370006F927F928F929F92AF92BF92CF92DF92A5
:10138000EF92FF920F931F93CF93DF93CDB7DEB70A
:10139000AA970FB6F894DEBF0FBECDBF2B013C015C
:1013A0008D8E9E8EAF8EB8A2C9A2DAA2EBA2FCA24D
:1013B0000DA31EA32FA338A749A75AA78EE0FE01AD
:1013C0007D96DE01119601900D928A95E1F78BE1F1
:1013D00090E00E9463182EE0FE013196DE011F9618
:1013E00001900D922A95E1F7FC01408251826282C0
:1013F00073821482158216821782108640E050E0B4
:1014000060E272E441875287638774872EE0FE01B1
:101410003F96DC011D9601900D922A95E1F7AA9660
:101420000FB6F894DEBF0FBECDBFDF91CF911F91F5
:101430000F91FF90EF90DF90CF90BF90AF909F9073
:101440008F907F906F905F904F90089585ED80937F
:10145000BC008091010390910203A0910303B0911D
:1014600004030796A11DB11D23E0B695A795979596
:1014700087952A95D1F72091BC0024FD03C01092D6
:10148000FF0208954091010350910203609103030C
:1014900070910403452B462B472B69F30097A10558
:1014A000B10541F02AE22A95F1F700C00197A109A0
:1014B000B109E1CF809100030C948A021F920F9230
:1014C0000FB60F9211242F933F938F939F93AF9357
:1014D000BF938091B1029091B202A091B302B091FA
:1014E000B4023091B00223E0230F2D3758F5019656
:1014F000A11DB11D2093B0028093B1029093B2025E
:10150000A093B302B093B4028091B5029091B60259
:10151000A091B702B091B8020196A11DB11D8093B0
:10152000B5029093B602A093B702B093B802BF91F0
:10153000AF919F918F913F912F910F900FBE0F9080
:101540001F90189526E8230F0296A11DB11DD2CF3A
:101550001F920F920FB60F9211242F933F934F9328
:101560005F936F937F938F939F93AF93BF93EF930B
:10157000FF9389E293E00E94B601FF91EF91BF9142
:10158000AF919F918F917F916F915F914F913F911B
:101590002F910F900FBE0F901F9018951F920F92D2
:1015A0000FB60F9211242F938F939F93EF93FF9376
:1015B000E0913903F0913A038081E0913F03F0918B
:1015C000400382FD1BC09081809142038F5F8F7327
:1015D00020914303821741F0E0914203F0E0E75D80
:1015E000FC4F958F80934203FF91EF919F918F91D4
:1015F0002F910F900FBE0F901F9018958081F4CF00
:101600001F920F920FB60F9211242F933F934F9377
:101610005F936F937F938F939F93AF93BF93EF935A
:10162000FF938091B900887F803609F44AC0F0F5B5
:10163000883209F4A7C018F5803109F49BC0B8F4CA
:10164000882309F4F9C0883009F494C0FF91EF9120
:10165000BF91AF919F918F917F916F915F914F91CA
:101660003F912F910F900FBE0F901F9018958831CA
:1016700009F488C0803251F78093FD0214C0803491
:1016800009F49DC040F48033B9F38833F9F68093B0
:10169000FD0285ECB0C0803509F485C0883509F4B9
:1016A00096C0883499F60E94260AD0CF883909F46A
:1016B0008CC038F5883729F050F4883611F080371F
:1016C00029F683E08093FF021092A30257C0883866
:1016D00009F47BC0803919F0803809F0B7CF8091C8
:1016E000A302803208F071C0E091A30281E08E0F66
:1016F0008093A3028091BB00F0E0ED57FD4F808303
:101700003DC0803B39F0E0F4803A09F479C0883A72
:1017100009F09CCF84E08093FF0210928202109225
:101720008102E091A602F091A702099580918102C1
:1017300081110FC081E0809381021092610209C083
:10174000803C09F4A6CF883C09F4A3CF883B09F07C
:101750007DCFE091820281E08E0F80938202F0E0E3
:10176000EF59FD4F80818093BB0090918202809160
:10177000810229C08091DA028093BB0085EC8093BE
:10178000BC0064CF9091FC028091FB02981758F541
:10179000E091FC0281E08E0F8093FC02F0E0E552C4
:1017A000FD4F8081E9CFE091FC0281E08E0F8093B4
:1017B000FC028091BB00F0E0E552FD4F80839091E8
:1017C000FC028091FB029817C8F285E8D8CFE0911F
:1017D000FC0281E08E0F8093FC028091BB00F0E060
:1017E000E552FD4F80838091FE0281115CCF81E044
:1017F0008093D90284EA8093BC001092FF0226CF26
:1018000085EC8093BC001092FF028091A30280328D
:1018100030F4E091A302F0E0ED57FD4F10826091AB
:10182000A30270E0E091A402F091A50283E892E0A7
:1018300009951092A3020ACF1092FD0234CFE9E27B
:10184000F3E01382128288EE93E0A0E0B0E084839C
:101850009583A683B7832AE031E03183208325EC8A
:1018600030E03587248724EC30E03787268720EC6A
:1018700030E0318B208B21EC30E0338B228B22EC5B
:1018800030E0358B248B26EC30E0378B268B118EA5
:10189000128E138E148EE6ECF3E013821282848390
:1018A0009583A683B7838CE191E09183808308952B
:1018B000CF93DF93CDB7DEB7C854D1090FB6F894F4
:1018C000DEBF0FBECDBF789484B5826084BD84B581
:1018D000816084BD85B5826085BD85B5816085BD2B
:1018E00080916E00816080936E00109281008091E3
:1018F000810082608093810080918100816080936B
:101900008100809180008160809380008091B1008F
:1019100084608093B1008091B00081608093B000BA
:1019200080917A00846080937A0080917A0082604E
:1019300080937A0080917A00816080937A00809110
:101940007A00806880937A001092C100E091390398
:10195000F0913A0382E08083E0913503F091360301
:101960001082E0913703F09138038FEC808310925E
:101970004103E0913D03F0913E0386E08083E091D6
:101980003B03F0913C03808180618083E0913B03C5
:10199000F0913C03808188608083E0913B03F0916B
:1019A0003C03808180688083E0913B03F0913C039D
:1019B00080818F7D80831092A9021092A8021092DC
:1019C0000603109228030E946C0286E391E0909334
:1019D000A7028093A60287E391E09093A5028093EB
:1019E000A40282E591E00E94A7051FAE1EAE2296DA
:1019F0001FAE1EAE229788E023968FAF239789E013
:101A000024968FAF249764E670E080E090E00E9417
:101A1000F800CE018E5B9F4F6C017C0192E0E90ED5
:101A2000F11C8601F80181918F0190E0FC01E057E3
:101A3000FF4F249184589F4FFC018491882399F093
:101A400090E0880F991FFC01E859FF4FA591B491D0
:101A5000FC01EE58FF4F859194918FB7F894EC916B
:101A60002E2B2C938FBF60E0F801319780810E946C
:101A70008700E016F106B1F62396EFAC239760E0FD
:101A80008E2D0E9487002496FFAC249760E08F2D56
:101A90000E9487006AE070E080E090E00E94F80019
:101AA00061E08E2D0E94870061E08F2D0E948700EB
:101AB0006AE070E080E090E00E94F80060E08F2D26
:101AC0000E948700DE01DE961D0176EC672E73E032
:101AD000772E88248394912CD6015D906D0161E06E
:101AE000852D0E9487006AE070E080E090E00E940F
:101AF000F8007FA26EA2B9E2B8A71AA619A61BA683
:101B00008091AA02E82EF12CE0E3EE0EF11C50E3E6
:101B1000B52EB80E4B2D4F776AE8CE0185960E9400
:101B20002A05B8A6C7019927E816F90679F080E6D4
:101B300091E00E94A505652D70E090E080E04AE00C
:101B40000E9461058AE291E00E94540560ECCE019A
:101B500085960E94BE068E3E09F0B1C069E8CE01AE
:101B600085960E94BE06482F416069E8CE018596A1
:101B70000E942A0540E068E8CE0185960E942A0569
:101B800041E060E8CE0185960E942A0541E06FEFB2
:101B9000CE0185960E942A0540E060E0CE01859640
:101BA0000E942A0561E9CE0185960E94BE068EA795
:101BB00041E060E0CE0185960E942A0540E06FEF8B
:101BC000CE0185960E942A0540E060E8CE01859608
:101BD0000E942A0560E6CE0185960E94BE06482F27
:101BE000426160E6CE0185960E942A0540E250E0FF
:101BF00064E4CE0185960E94F3044FEF61E0CE01CC
:101C000085960E942A0541E060E8CE0185960E94F3
:101C10002A0541E06FEFCE0185960E942A0540E03B
:101C200060E0CE0185960E942A0546E06FEFCE0166
:101C300085960E942A0563E8CE0185960E94BE061D
:101C4000482F446063E8CE0185960E942A0547E04C
:101C50006FEFCE0185960E942A0541E061E8CE0132
:101C600085960E942A0541E060E8CE0185960E9493
:101C70002A054BE664E9CE0185960E942A0540E0DC
:101C800063E8CE0185960E942A050E942A017DA75D
:101C90006CA763E8CE0185960E94BE0681111FC025
:101CA00089A59AA5892BA9F30E942A012CA53DA5F7
:101CB000621B730B89A59AA58617970750F780E9D1
:101CC00091E00E94A505652D70E090E080E04AE07B
:101CD0000E9461058AE291E00E94540574C341E0CC
:101CE00063E8CE0185960E942A0562E9CE018596B9
:101CF0000E94BE06F82FFF772596FFAF2597881F15
:101D00008827881F29968FAF299740E061E8CE0188
:101D100085960E942A0546E06FEFCE0185960E94C7
:101D20002A0563E8CE0185960E94BE06482F4B7FA8
:101D300063E8CE0185960E942A0541E06FEFCE014F
:101D400085960E942A0541E060E0CE0185960E94BA
:101D50002A0540E06FEFCE0185960E942A0540E0FB
:101D600060E8CE0185960E942A058EA19FA128A534
:101D700031E030930503209327031092060310925D
:101D80002803DC01ED91FC910190F081E02D60EBE6
:101D9000099581E00E94AB028DA366E088A50E94B0
:101DA0009B031092A9028093A8027E01B3E3EB0E7D
:101DB000F11C570147E0442E4A94442069F08EA15B
:101DC0009FA1DC01ED91FC910284F385E02D099542
:101DD000F50181935F01F0CF41E06FEFCE01859671
:101DE0000E942A0540E06FE4CE0185960E942A05F4
:101DF0004CE26EE4CE0185960E942A0540E06FEF2A
:101E0000CE0185960E942A0544EB66EBCE018596AD
:101E10000E942A052996FFAD29976CE0F11101C0B7
:101E200060E090E080E0E82FE695E695E695F0E04A
:101E3000D701AE0FBF1F2C91482F4770861728F08F
:101E400025963FAD2597391335C0EE0DFF1DD40102
:101E500002C0AA0FBB1F4A95E2F7AD0140952423AB
:101E600020838F5F8033F9F68EA19FA128A531E0F2
:101E70003093050320932703109206031092280342
:101E8000DC01ED91FC910190F081E02D60EB099572
:101E900037E0B32EBA94BB20B9F08EA19FA1F70111
:101EA00061917F01DC01ED91FC910190F081E02DC9
:101EB0000995F0CF30E002C0359527954A95E2F7B5
:101EC00020FFCFCF9F5FCDCF81E00E94AB028DA3DB
:101ED00041E06FEFCE0185960E942A0540E060E068
:101EE000CE0185960E942A0540E06FEFCE018596CF
:101EF0000E942A0540E069E0CE0185960E942A05ED
:101F000040E060E1CE0185960E942A0540E061E153
:101F1000CE0185960E942A0541E064E2CE018596B5
:101F20000E942A054FEF65E2CE0185960E942A05A0
:101F300040E065E7CE0185960E942A0541E06FEFFB
:101F4000CE0185960E942A054CE26EE4CE0185966C
:101F50000E942A0540E068E4CE0185960E942A0589
:101F600040E260E3CE0185960E942A0540E06FEFD3
:101F7000CE0185960E942A0549E060E3CE01859650
:101F80000E942A0540E064E5CE0185960E942A055C
:101F900044E061E3CE0185960E942A0543E062E3B6
:101FA000CE0185960E942A0543E860E4CE0185961D
:101FB0000E942A0545E266E4CE0185960E942A0524
:101FC00040E060E6CE0185960E942A0540E067E287
:101FD000CE0185960E942A0546E060E5CE018596F1
:101FE0000E942A0540E061E5CE0185960E942A05FF
:101FF00046E962E5CE0185960E942A0548E066E53D
:10200000CE0185960E942A0540E367E5CE018596BC
:102010000E942A0540E061E6CE0185960E942A05CD
:1020200040E062E6CE0185960E942A0540E064E623
:10203000CE0185960E942A0540E065E6CE01859690
:102040000E942A0540EA66E6CE0185960E942A058E
:1020500041E06FEFCE0185960E942A0542E362E2DD
:10206000CE0185960E942A0544E167E4CE0185965B
:102070000E942A054FEF69E4CE0185960E942A0549
:1020800040E06AE4CE0185960E942A0540E06FEFA9
:10209000CE0185960E942A054AE06AE7CE01859620
:1020A0000E942A0540E06BE7CE0185960E942A0532
:1020B00041E268E7CE0185960E942A0541E06FEF74
:1020C000CE0185960E942A0544E363E2CE018596FF
:1020D0000E942A0540E062E4CE0185960E942A050E
:1020E0004FEF64E4CE0185960E942A0546E265E43E
:1020F000CE0185960E942A0545E066E4CE018596CC
:102100000E942A0540E460E4CE0185960E942A05DB
:1021100046E06EE0CE0185960E942A054AE160E223
:10212000CE0185960E942A0540E463E4CE0185969F
:102130000E942A0540E06FEFCE0185960E942A0595
:1021400043E064E3CE0185960E942A0544E465E3FA
:10215000CE0185960E942A0541E06FEFCE0185965B
:102160000E942A0544E061E3CE0185960E942A057B
:1021700049E06BE4CE0185960E942A0545E06CE4B7
:10218000CE0185960E942A0544E06DE4CE01859635
:102190000E942A0540E06FEFCE0185960E942A0535
:1021A00040E064E4CE0185960E942A0540E265E4A1
:1021B000CE0185960E942A0548E067E4CE01859607
:1021C0000E942A0548E268E4CE0185960E942A050D
:1021D00040E067E6CE0185960E942A0544E060E76C
:1021E000CE0185960E942A0541E061E7CE018596E1
:1021F0000E942A054EEF62E7CE0185960E942A05CD
:1022000040E066E7CE0185960E942A0540E067E738
:10221000CE0185960E942A0541E06FEFCE0185969A
:102220000E942A0541E06DE0CE0185960E942A05B4
:1022300040E06FEFCE0185960E942A0541E060E8FC
:10224000CE0185960E942A0548EF61E0CE01859671
:102250000E942A0541E06FEFCE0185960E942A0573
:1022600041E06EE8CE0185960E942A0541E060E0DB
:10227000CE0185960E942A0540E06FEFCE0185963B
:102280000E942A0540E060E8CE0185960E942A055A
:1022900044E06AE0CE0185960E942A0564E8CE01FA
:1022A00085960E94BE06482F4F7E64E8CE01859633
:1022B0000E942A0541E06BE0CE0185960E942A0526
:1022C000BE01675C7F4FCE0185960E94E507AE0197
:1022D0004F5F5F4FBE01675C7F4FCE0185960E94C6
:1022E0001D0789AD882309F438C18B859C85AD8590
:1022F000BE858C57924FAF4FBF4F2BAD222309F4B1
:1023000031C14B855C856D857E854E545D4F6F4F29
:102310007F4F440F551F661F771F840F951FA61F01
:10232000B71F2CAD222361F04F85588969897A89BE
:102330004C565D4F6F4F7F4F840F951FA61FB71FE1
:102340002DAD222361F04B895C896D897E894A5DC0
:102350005D4F6F4F7F4F840F951FA61FB71F8FA72D
:1023600098ABA9ABBAAB48EE61E0CE0185960E946E
:102370002A054FA558A969A97AA9CE0185960E9478
:10238000020841E061E0CE0185960E942A0560E4E2
:10239000CE0185960E94EC06882309F490CC42E099
:1023A00061E0CE0185960E942A0560E0CE01859607
:1023B0000E94EC06882309F482CC48EE61E0CE014D
:1023C00085960E942A058091AA028F5F8093AA02B7
:1023D00040E25EE460E070E0CE0185960E94020873
:1023E00041E060E8CE0185960E942A0541E06FEF4A
:1023F000CE0185960E942A0540E060E0CE018596D8
:102400000E942A054EA561E9CE0185960E942A0503
:1024100041E060E0CE0185960E942A0540E06FEF22
:10242000CE0185960E942A0540E060E8CE0185969F
:102430000E942A0542E060E0CE0185960E942A05AE
:102440008EE0FE01B596DE01119601900D928A95FF
:10245000E1F78EE090E00E9463182EE0FE013196D5
:10246000DE01579601900D922A95E1F72EE0FE01CC
:102470007796DC0101900D922A95E1F7F1018193A5
:1024800091931F010C151D0509F026CB64E670E041
:1024900080E090E00E94F800EEADFFAD808091807A
:1024A000A280B380C480D580E680F7800085118546
:1024B000228533854485558560E070E08AE092E4AA
:1024C0000E94B6099093AD028093AC022296EEADC5
:1024D000FFAD229780809180A280B380C480D58098
:1024E000E680F780008511852285338544855585F2
:1024F00060E070E08CEC91E40E94B6099093AF022A
:102500008093AE020091AC021091AD02D8011996F1
:10251000CD90DD90ED90FC901C9720E030E040E8FD
:102520005FE3C701B6010E94E115181694F420E09C
:1025300030E040E252E4C701B6010E94E115882371
:1025400041F0A7019601C701B6010E94E115882359
:10255000C9F0C8010E943909D5CF86E39BE0A0E00D
:10256000B0E0CBCE2AAD222309F4DBCE4B855C85CF
:102570006D857E854C565D4F6F4F7F4FCECEC80127
:102580000E9439090091AE021091AF02F801C18496
:10259000D284E384F48420E030E040E85FE3C701C4
:1025A000B6010E94E115181654F720E030E040E231
:1025B00052E4C701B6010E94E115882301F3E091BE
:1025C000AC02F091AD0261857285838594859B0193
:1025D000AC010E94E1158111D2CF87EB91E00E94FE
:1025E000A70585EC91E00E94A505E091AC02F09171
:1025F000AD0261857285838594850E94B50580ED65
:1026000091E00E94A505E091AE02F091AF026185D4
:102610007285838594850E94B5058BE291E00E94C6
:10262000A705E090AC02F090AD02D70119966C902E
:1026300019971A967C901A971B968C901B971C964C
:102640009C900091AE021091AF02F801A184B28477
:10265000C384D4849301A401B501C6010E94A217CA
:10266000181614F453016401C501D601F7018187DE
:102670009287A387B487F80181879287A387B4875D
:1026800068EC70E080E090E00E94F8008BED91E053
:102690000E94A70590E0292E90E0392EE091AE022D
:1026A000F091AF028481882371F0E091AC02F09147
:1026B000AD028481811107C081EE91E00E94A705DF
:1026C000F1E0F093AB02E091AC02F091AD028481B5
:1026D0008823C1F08091AB028823A1F01482158277
:1026E000168217821086E091AE02F091AF0214823A
:1026F000158216821782108680EF91E00E94A7054E
:102700001092AB02E091AC02F091AD028481811194
:102710004DC0C184D284E384F4848091AC02909152
:10272000AD020E9471090091AC021091AD02D80176
:1027300014968C911497882309F4CAC115968C902D
:10274000159716969C9016971796AC901797189613
:10275000BC909401A501B601C7010E94A2171816EA
:1027600014F46401750120E030E040E05FE3B6015D
:10277000C7010E9475159401A5010E94A2171816A1
:1027800064F2C601D701F80185839683A783B087D9
:102790008DE392E00E94A505E091AC02F091AD02BC
:1027A00065817681878190850E94B505E091AE02B2
:1027B000F091AF028481811144C0C184D284E3844A
:1027C000F4848091AE029091AF020E947109009151
:1027D000AE021091AF02F8018481882309F478C118
:1027E00085809680A780B0849401A501B601C701B9
:1027F0000E94A217181614F46401750120E030E05D
:1028000040E05FE3B601C7010E9475159401A50180
:102810000E94A2171816ACF2C601D701F8018583F1
:102820009683A783B0878EE492E00E94A505E0918D
:10283000AE02F091AF0265817681878190850E941A
:10284000B5058DE092E00E94A70581E292E00E942A
:10285000A505E091AC02F091AD026581768187819A
:1028600090850E94B50589E292E00E94A505E0915D
:10287000AE02F091AF0265817681878190850E94DA
:10288000B505E091AE02F091AF020091AC0210915B
:10289000AD02408051806280738085819681A781DE
:1028A000B08528968CAF9DAFAEAFBFAF2897D8014B
:1028B00015962D913D914D915C91189728966CAD90
:1028C0007DAD8EAD9FAD28970E9474154B015C01C4
:1028D000A3019201F80160817181828193810E943C
:1028E00074156B017C0120E030E0A9010E94A21761
:1028F000181624F0F7FAF094F7F8F094A70196016F
:10290000C501B4010E94E6154B015C01AC019B01BD
:10291000C301B2010E94A71728962CAD3DAD4EAD64
:102920005FAD28970E9475156B017C0120E030E0B7
:10293000A901C501B4010E94E11561E070E088239E
:1029400091F020E030E0A901C501B4010E94A21776
:10295000A501940118160CF05058C501B4010E944D
:10296000E6150E945816072E000C880B990B0E9442
:10297000901628966CAF7DAF8EAF9FAF28972DEC49
:102980003CEC4CEF5FE30E94A717A70196010E9461
:1029900075154B015C0188E2682E712C01E010E096
:1029A000B301072C000C880B990B0E949016A5010F
:1029B00094010E94E11587FD18C0662777276619E4
:1029C0007709072E000C880B990B0E94901620E0C7
:1029D00030E040E252E40E9475159B01AC01C50154
:1029E000B4010E94E11587FF2BC00F5F1F4FB80194
:1029F000012E000C880B990B0E9490162B013C01B4
:102A00002DEC3CEC4CEF5FE30E94A71728962CAD11
:102A10003DAD4EAD5FAD28970E94A717A701960167
:102A20000E9475154B015C0120E030E040E252E469
:102A3000C301B2010E94A7170E9458163B01B0CFF4
:102A400001501109B801110F880B990B0E949016C3
:102A50002DEC3CEC4CE750E40E94A71728962CADD7
:102A60003DAD4EAD5FAD28970E94A717A701960117
:102A70000E94751520E030E040E252E40E94D61634
:102A800020E030E040E252E40E94751520E030E0A2
:102A900040E252E40E94D6166B017C0100FF0AC09E
:102AA000AC019B0160E070E080E292E40E9474154A
:102AB0006B017C0182E392E00E94A505C701B6018B
:102AC0000E94B50568EC70E080E090E00E94F8009C
:102AD0002114310409F4E2CD0E94A201882309F4F3
:102AE000DDCD0E940000DACD5058BB27AA270E94F6
:102AF0008C150C9468170E945A1738F00E946117C1
:102B000020F039F49F3F19F426F40C9457170EF473
:102B1000E095E7FB0C944317E92F0E94791758F3CF
:102B2000BA17620773078407950720F079F4A6F5B2
:102B30000C949B170EF4E0950B2EBA2FA02D0B01D1
:102B4000B90190010C01CA01A0011124FF27591BF2
:102B500099F0593F50F4503E68F11A16F040A22FF8
:102B6000232F342F4427585FF3CF46953795279569
:102B7000A795F0405395C9F77EF41F16BA0B620B68
:102B8000730B840BBAF09150A1F0FF0FBB1F661FAF
:102B9000771F881FC2F70EC0BA0F621F731F841FF2
:102BA00048F4879577956795B795F7959E3F08F018
:102BB000B0CF9395880F08F09927EE0F97958795DA
:102BC00008950E941F1708F481E008950E94FA15E5
:102BD0000C9468170E94611758F00E945A1740F031
:102BE00029F45F3F29F00C94431751110C949C1762
:102BF0000C9457170E94791768F39923B1F3552362
:102C000091F3951B550BBB27AA27621773078407FF
:102C100038F09F5F5F4F220F331F441FAA1FA9F395
:102C200035D00E2E3AF0E0E832D091505040E69583
:102C3000001CCAF72BD0FE2F29D0660F771F881FE4
:102C4000BB1F261737074807AB07B0E809F0BB0BD7
:102C5000802DBF01FF2793585F4F3AF09E3F5105EB
:102C600078F00C9443170C949C175F3FE4F3983E64
:102C7000D4F3869577956795B795F7959F5FC9F7D4
:102C8000880F911D9695879597F90895E1E0660F55
:102C9000771F881FBB1F621773078407BA0720F0CE
:102CA000621B730B840BBA0BEE1F88F7E095089537
:102CB0000E945F166894B1110C949C1708950E94AD
:102CC000811788F09F5798F0B92F9927B751B0F026
:102CD000E1F0660F771F881F991F1AF0BA95C9F7A0
:102CE00014C0B13091F00E949B17B1E008950C948C
:102CF0009B17672F782F8827B85F39F0B93FCCF33F
:102D0000869577956795B395D9F73EF4909580951C
:102D1000709561957F4F8F4F9F4F0895E89409C03C
:102D200097FB3EF490958095709561957F4F8F4FFE
:102D30009F4F9923A9F0F92F96E9BB279395F69514
:102D4000879577956795B795F111F8CFFAF4BB0F92
:102D500011F460FF1BC06F5F7F4F8F4F9F4F16C0F6
:102D6000882311F096E911C0772321F09EE8872F80
:102D7000762F05C0662371F096E8862F70E060E03C
:102D80002AF09A95660F771F881FDAF7880F9695B5
:102D9000879597F908950E945A1720F019F00E941C
:102DA000611750F40C9457170C949C17E92F0E944C
:102DB000791788F35523B1F3E7FB6217730784078C
:102DC0009507A8F189F3E92FFF2788232AF0319787
:102DD000660F771F881FDAF7952F5527442332F0A7
:102DE00091505040220F331F441FD2F7BB27E91BDD
:102DF000F50B621B730B840BB109B1F222F4620F65
:102E0000731F841FB11D31972AF0660F771F881F2B
:102E1000BB1FEFCF9150504062F041F0882332F059
:102E2000660F771F881F91505040C1F793950C94FF
:102E300049178695779567959F5FD9F7F7CF990FD3
:102E40000008550FAA0BE0E8FEEF16161706E80774
:102E5000F907C0F012161306E407F50798F0621B95
:102E6000730B840B950B39F40A2661F0232B242B6A
:102E7000252B21F408950A2609F4A140A6958FEF89
:102E8000811D811D089597F99F6780E870E060E0DB
:102E900008959F3F31F0915020F48795779567957D
:102EA000B795880F911D9695879597F908959FEF8F
:102EB00080EC089500240A941616170618060906D1
:102EC000089500240A9412161306140605060895A0
:102ED000092E0394000C11F4882352F0BB0F40F428
:102EE000BF2B11F460FF04C06F5F7F4F8F4F9F4F68
:102EF000089557FD9058440F551F59F05F3F71F0EA
:102F00004795880F97FB991F61F09F3F79F0879550
:102F10000895121613061406551FF2CF4695F1DFD9
:102F200008C0161617061806991FF1CF8695710569
:102F3000610508940895E894BB2766277727CB019D
:102F400097F908950E941F1708F48FEF08950E94C3
:102F5000BA170C9468170E945A1738F00E9461172C
:102F600020F0952311F00C9443170C94571711245B
:102F70000C949C170E94791770F3959FC1F3950FDD
:102F800050E0551F629FF001729FBB27F00DB11DED
:102F9000639FAA27F00DB11DAA1F649F6627B00D7D
:102FA000A11D661F829F2227B00DA11D621F739F66
:102FB000B00DA11D621F839FA00D611D221F749F74
:102FC0003327A00D611D231F849F600D211D822FBB
:102FD000762F6A2F11249F5750409AF0F1F08823E2
:102FE0004AF0EE0FFF1FBB1F661F771F881F91500F
:102FF0005040A9F79E3F510580F00C9443170C9464
:103000009C175F3FE4F3983ED4F3869577956795D8
:10301000B795F795E7959F5FC1F7FE2B880F911D38
:103020009695879597F908950E941F17880B990B1D
:103030000895A1E21A2EAA1BBB1BFD010DC0AA1FF9
:10304000BB1FEE1FFF1FA217B307E407F50720F011
:10305000A21BB30BE40BF50B661F771F881F991F8C
:103060001A9469F760957095809590959B01AC01D5
:10307000BD01CF0108950E945418A59F900DB49FE3
:10308000900DA49F800D911D11240895B7FF0C94FD
:103090003B180E943B18821B930B0895EE0FFF1FF5
:1030A0000590F491E02D0994A29FB001B39FC00157
:1030B000A39F700D811D1124911DB29F700D811D64
:1030C0001124911D08950F931F93CF93DF938230A6
:1030D000910510F482E090E0E091D403F091D503E3
:1030E00030E020E0B0E0A0E0309799F42115310500
:1030F00009F44AC0281B390B24303105D8F58A81E0
:103100009B816115710589F1FB0193838283FE0127
:1031100011C0408151810281138148175907E0F0A5
:103120004817590799F4109761F012960C9312976B
:1031300013961C933296CF01DF91CF911F910F917F
:1031400008950093D4031093D503F4CF21153105CE
:1031500051F04217530738F0A901DB019A01BD0174
:10316000DF01F801C1CFEF01F9CF9093D503809330
:10317000D403CDCFFE01E20FF31F81939193225030
:10318000310939832883D7CF2091D2033091D303DB
:10319000232B41F420910201309103013093D3039A
:1031A0002093D203209100013091010121153105B6
:1031B00041F42DB73EB74091040150910501241B05
:1031C000350BE091D203F091D303E217F307A0F49B
:1031D0002E1B3F0B2817390778F0AC014E5F5F4F6D
:1031E0002417350748F04E0F5F1F5093D3034093C9
:1031F000D203819391939FCFF0E0E0E09CCFCF93F7
:10320000DF930097E9F0FC01329713821282A091BC
:10321000D403B091D503ED0130E020E01097A1F484
:1032200020813181820F931F2091D2033091D303EB
:103230002817390709F061C0F093D303E093D20354
:10324000DF91CF910895EA01CE17DF07E8F54A81B3
:103250005B819E0141155105B1F7E901FB83EA83CA
:1032600049915991C40FD51FEC17FD0761F4808176
:1032700091810296840F951FE90199838883828149
:1032800093819B838A83F0E0E0E012968D919C917C
:1032900013970097B9F52D913C911197CD010296A6
:1032A000820F931F2091D2033091D303281739073F
:1032B00039F6309751F51092D5031092D403B0939C
:1032C000D303A093D203BCCFD383C2834081518167
:1032D000840F951FC817D90761F44E5F5F4F88812F
:1032E0009981480F591F518340838A819B81938321
:1032F00082832115310509F0B0CFF093D503E09317
:10330000D4039ECFFD01DC01C0CF13821282D7CF40
:04331000F894FFCF5F
:103314000000D603800000000000D80138016501D8
:10332400250296017401880100000000C104940480
:10333400F0046A048D047A046B040D0A006E616E55
:1033440000696E66006F76660043616C6962726143
:10335400746564206D6178206469737420746F3AB5
:1033640009000A5354415254494E472055502100F4
:103374004661696C656420746F20736574206164B0
:10338400647265737320746F2073656E736F72203B
:10339400776974682058534855542070696E20002A
:1033A4004661696C656420746F2073746172742063
:1033B40073656E736F72207769746820585348552B
:1033C400542070696E20004D4158204449535441A3
:1033D4004E43453A0053454E534F5220313A200054
:1033E40053454E534F5220323A20005245414459DE
:1033F4000062616C6C2072657475726E696E670030
:1034040042616C6C2072657475726E65643B205207
:10341400657361742073656E736F7273000A424141
:103424004C4C204D4541535552454D454E54533A0D
:103434000046495253543A20005345434F4E443AB0
:103444002000454E44504F494E543A2000464952BC
:1034540053542044455445435445443A200053456D
:10346400434F4E442044455445435445443A200078
:00000001FF
